S00E000061726D2D66772E73726563CC
S214400000184E0020417A4000097B4000097B4000A2
S214400010097B4000097B4000097B4000000000004F
S214400020000000000000000000000000097B4000C7
S214400030097B400000000000097B40007D7D4000B9
S214400040097B4000097B4000097B4000097B40005B
S214400050097B4000097B4000097B4000000000000F
S214400060097B4000117E400000000000693E4000D1
S214400070813E400000000000097B4000097B4000B4
S2144000800000000000000000097B4000097B4000A3
S214400090097B4000097B4000097B4000097B40000B
S2144000A0097B4000097B4000000000000000000083
S2144000B0000000009D7D4000097B4000B57D40006B
S2144000C0097B4000097B4000E545400010B5054CE3
S2144000D0237833B9044B13B10448AFF300800123AF
S2144000E0237010BD4005002000000000D89240005C
S2144000F00C4B43B10C480D4910B5AFF300800C488B
S214400100036823B910BD0A48036833B97047094BE2
S214400110002BF7D0BDE810401847064B002BF5D013
S214400120184700BF00000000D89240004405002059
S214400130D89240000000000090B585B002AF7860CD
S21440014001200B4B98477B6818687B68997B7B68D7
S2144001501B7C0133DAB27B685C7C7B68123300938D
S2144001602346044CA04700BF0C37BD4690BD00BF99
S21440017029074000356A400090B585B002AF7860E8
S21440018000200B4B98477B6818687B68997B7B6898
S2144001901B7C0133DAB27B685C7C7B68123300934D
S2144001A02346044CA04700BF0C37BD4690BD00BF59
S2144001B029074000356A400090B587B002AF7860A6
S2144001C07B685B7C042B02D00123FB721BE0002380
S2144001D0FB727B689B7C9AB27B68DB7C9BB21B0283
S2144001E09BB21344FB817B681B7D9AB27B685B7D28
S2144001F09BB21B029BB21344BB81BA89FB89114652
S21440020018460A4B98477B6818687B68997B7B68DA
S2144002101B7C0133DAB207F10B0300930123044C35
S214400220A04700BF1437BD4690BD00BFED06400056
S214400230356A400090B587B002AF78602D4B98473E
S214400240F8607B6818687B68997B7B681B7C013309
S214400250DAB2FB6800930123274CA0477B681868F6
S2144002607B68997B7B681B7C0133DAB2FB68023380
S21440027000930823204CA0477B6818687B68997BCE
S2144002807B681B7C0133DAB2FB680C3300938C230B
S214400290194CA0477B6818687B68997B7B681B7CF9
S2144002A00133DAB2FB68983300938C23124CA04794
S2144002B07B6818687B68997B7B681B7C0133DAB265
S2144002C0FB6803F5927300938C230B4CA0477B6826
S2144002D018687B68997B7B681B7C0133DAB2FB68C5
S2144002E003F5D87300938C23034CA04700BF143704
S2144002F0BD4690BD91074000356A400090B587B036
S21440030002AF78600023FB730123FB737B68186899
S2144003107B68997B7B681B7C0133DAB207F10F035D
S21440032000930123024CA04700BF1437BD4690BD42
S214400330356A400090B587B002AF78600023FB7303
S2144003407B681B79012B07D17B681B7B012B03D174
S2144003507B681B7B002B02D00123FB7304E07B6889
S2144003601B7B1846094B98477B6818687B68997BC7
S2144003707B681B7C0133DAB207F10F03009301233D
S214400380034CA04700BF1437BD4690BD81084000CF
S214400390356A400090B587B002AF7860094B984701
S2144003A0F8607B6818687B68997B7B681B7C0133A8
S2144003B0DAB2FB6800930823034CA04700BF14370B
S2144003C0BD4690BDB9074000356A400090B587B03D
S2144003D002AF78600023BB737B689B7CFB73FB7B20
S2144003E0642B02D90123BB7303E0FB7B18460A4B00
S2144003F098477B6818687B68997B7B681B7C0133D1
S214400400DAB207F10E0300930123044CA04700BF65
S2144004101437BD4690BD00BF61084000356A4000B5
S21440042090B58BB002AF786001233B7202237B729B
S2144004305323BB726523FB7270233B7320237B736D
S2144004403123BB733323FB7320233B7432237B74EB
S2144004503023BB743223FB7431233B7500237B75FA
S2144004603123BB753623FB753A233B7635237B76A3
S2144004703723BB763A23FB7634233B7734237B778C
S2144004800023BB777B6818687B68997B7B681B7CFE
S2144004900133DAB207F1080300931723024CA04752
S2144004A000BF2437BD4690BD356A400090B585B044
S2144004B002AF78607B6818687B68997B7B681B7C9A
S2144004C00133DAB27B685C7C7B6812330093234648
S2144004D0024CA04700BF0C37BD4690BD356A400071
S2144004E090B585B002AF78607B6818687B68997B6A
S2144004F07B681033009301230F22034CA04700BFB4
S2144005000C37BD4690BD00BF356A400080B485B00C
S21440051000AF0346FB710023FB7308E0FB7BFA79D0
S21440052091B2074A22F81310FB7B0133FB73FB7B27
S214400530012BF3D900BF1437BD4680BC704700BFBF
S214400540B419002080B500AF102200211248134B8A
S21440055098474FF41C6200211148104B98470822D8
S214400560002110480D4B98474FF4387200210E4832
S2144005700A4B9847CC2200210C48084B98470C4819
S2144005800C4B98470C480D4B9847042200210C48CA
S214400590024B984700BF80BD5C050020B98E4000E6
S2144005A070050020AC190020300F002010120020EB
S2144005B0E01200203D1E400070170020051F40003E
S2144005C0B419002080B500AF1D481E4B98471E4901
S2144005D01B481E4B98471E4B1B7818461D4B98478A
S2144005E01D4B5B88B3F5A06F03D11C4B01221A70DC
S2144005F008E0194BB3F87231B3F5A06F02D1174B30
S21440060000221A70154B1B781946134A4FF4B873DC
S21440061003FB01F3134402331B88B3F5A06F0CD2DF
S2144006200E4B1B781A464FF4B87303FB02F30A4A84
S2144006301344194604480A4B984700BF80BD00BF84
S2144006405C0500203516400070050020F11940007A
S2144006500A0000200D054000300F0020B819002089
S2144006600111400080B500AF164B1B78002B27D0F9
S214400670154B5B88B3F5A06F08D114491248144B4C
S214400680984714491148144B98470DE00E4BB3F861
S2144006907231B3F5A06F07D10C4910480C4B984700
S2144006A00C490A480C4B98470A4B5B890F2B08D1DC
S2144006B00B4908480B4B984706480B4B984700E0B9
S2144006C000BF80BDAC190020300F00201012002063
S2144006D091124000E0120020251F4000A01000208C
S2144006E070170020B92040003D1E400080B582B003
S2144006F000AF03460A46FB801346BB80074AFB888A
S2144007005380064ABB8893804FF41C6200210448FD
S214400710044B984700BF0837BD4680BDAC19002043
S21440072070050020B98E400080B582B000AF034609
S214400730FB71124B9847124AFB791370FB79002BDA
S2144007400CD017200F4B984701200F4B98471D2081
S2144007500E4B984701200D4B98470BE017200B4B4C
S21440076098470020084B98471D20064B9847012085
S214400770044B984700BF0837BD4680BD450540003E
S214400780AC190020FD724000850A40002D734000E1
S21440079080B400AF024B1846BD4680BC704700BFD1
S2144007A07017002080B400AF024B1B781846BD4639
S2144007B080BC7047AC19002080B400AF024B18468E
S2144007C0BD4680BC704700BFAC19002080B483B0E3
S2144007D000AF786039603B689A881B4B9B889A428A
S2144007E006D07B681B7843F00103DAB27B681A7048
S2144007F03B685A88144B5B889A4206D07B681B78C5
S21440080043F00203DAB27B681A703B681A780E4BE4
S2144008101B789A4206D07B681B7843F00403DAB212
S2144008207B681A703B689A79074B9B799A4206D048
S2144008307B681B7843F00803DAB27B681A7000BF07
S2144008400C37BD4680BC7047AC19002080B400AF62
S214400850024B1846BD4680BC704700BFB419002006
S21440086080B483B000AF0346FB71044AFB79137033
S21440087000BF0C37BD4680BC704700BF0A00002052
S21440088080B483B000AF0346FB71044AFB79937192
S21440089000BF0C37BD4680BC704700BFAC19002077
S2144008A080B483B000AF78607B68072B25D801A260
S2144008B052F823F0D5084000DB084000E10840002D
S2144008C0E7084000EB084000EF084000F30840000F
S2144008D0F70840004FF4FA4310E04FF400430DE0B1
S2144008E04FF400430AE0084B08E0084B06E0084B8C
S2144008F004E0074B02E0064B00E0002318460C37A6
S214400900BD4680BC704700BF00093D0000127A001B
S214400910001BB70080B500AF0620044B9847024640
S21440092013469B0013449B00184680BDA108400018
S21440093080B500AF024B984703465B08184680BD1B
S2144009401509400080B584B000AF404A3F4B1B6855
S21440095043F0200313604FF0006102203C4B984761
S2144009604FF000611E203A4B98474FF080512520AB
S214400970374B98474FF000610020354B98471F2073
S214400980344B984702213448344B9847002132482C
S214400990324B9847324B7B600023BB60314B9847C5
S2144009A00346FB603B1D19462B482F4B98472F4B61
S2144009B000221A812D4B0B225A602C4B64221A615E
S2144009C02A4B0022DA60294B00229A72274B0122DA
S2144009D083F82220254B01229A75244B05225A8300
S2144009E0224B05229A83214B00229A771F4B0022E6
S2144009F0DA771E4B002283F820201C4B002283F817
S214400A0021201A4B02221A6018491348184B98475F
S214400A10164B00221A6015490F48154B984701227D
S214400A204FF400310C48134B9847012200210A48E6
S214400A30114B984702210848104B9847002106481A
S214400A400F4B984700BF1037BD4680BD14030E407D
S214400A505D734000A978400000000240BB41400062
S214400A6040420F0031094000153F4000BC190020AD
S214400A70953F400033424000DD414000194240006F
S214400A809941400080B483B000AF0346FB7100BF7D
S214400A900C37BD4680BC704780B483B000AF034679
S214400AA0FB7197F90730002B0BDB084997F90730A5
S214400AB05B09FA7902F01F02012000FA02F241F8BF
S214400AC0232000BF0C37BD4680BC704700E100E0E5
S214400AD080B483B000AF0346FB7197F90730002B14
S214400AE010DB0B4997F907305B09FA7902F01F02D1
S214400AF0012000FA02F2203341F82320BFF34F8F43
S214400B00BFF36F8F00BF0C37BD4680BC704700BF39
S214400B1000E100E080B483B000AF0346FB7197F974
S214400B200730002B0CDB094997F907305B09FA7947
S214400B3002F01F02012000FA02F2603341F823203F
S214400B4000BF0C37BD4680BC704700BF00E100E0E8
S214400B5080B483B000AF03463960FB7197F9073025
S214400B60002B0ADB0D4997F907303A68D2B21201DA
S214400B70D2B20B4483F800230AE00949FB7903F01C
S214400B800F03043B3A68D2B21201D2B20B441A7633
S214400B9000BF0C37BD4680BC704700BF00E100E098
S214400BA000ED00E080B582B000AF78607B68013B26
S214400BB0B3F1807F01D301230FE00A4A7B68013BF3
S214400BC053600F214FF0FF30074B9847054B0022EC
S214400BD09A60044B07221A60002318460837BD4621
S214400BE080BD00BF10E000E0510B400080B483B0F1
S214400BF000AF78607B68072B25D801A252F823F017
S214400C00210C4000270C40002D0C4000330C4000C7
S214400C10370C40003B0C40003F0C4000430C40006B
S214400C204FF4FA4310E04FF400430DE04FF4004316
S214400C300AE0084B08E0084B06E0084B04E0074B88
S214400C4002E0064B00E0002318460C37BD4680BC49
S214400C50704700BF00093D0000127A00001BB70035
S214400C6080B500AF0620044B9847024613469B00CB
S214400C7013449B00184680BDED0B400080B500AF86
S214400C80024B984703465B08184680BD610C4000FF
S214400C9080B500AF024B984703465B08184680BDB8
S214400CA0610C400080B582B000AF78607868034B36
S214400CB0984700BF0837BD4680BD00BFA9784000B2
S214400CC080B500AF4FF040511720074B984717208C
S214400CD0064B98474FF040511020034B9847102042
S214400CE0024B984700BF80BD5D7340002D734000A7
S214400CF080B500AF4FF060511D20074B98471D2030
S214400D00064B98474FF060510120034B984701200F
S214400D10024B984700BF80BD5D734000FD724000A7
S214400D2080B584B000AF114B984703467B60104BAC
S214400D30BB604FF40C63FB604FF000620C210D4823
S214400D400D4B984709200D4B98473B1D19460C48BC
S214400D500C4B98470A480C4B9847012108480B4BC8
S214400D60984700BF1037BD4680BD00BF910C40007D
S214400D701C4E0E0000100E400D754000A50C4000A5
S214400D8000080E4087424000E7424000FF424000D5
S214400D902DE9F04F87B000AF0023FB7580E01020B0
S214400DA0444B98471720434B9847434B9847034636
S214400DB019464FF000020B4614466001F860F8688A
S214400DC040EAD360F8605B01BB60D7E902345B1A47
S214400DD064EB02044FEA840949EA93794FEA8308B0
S214400DE043464C465B1844EB0204DB1844EB0404D1
S214400DF01946224643F2AF634FF00004CD1842EB4B
S214400E000406284631462D4C43F2B0624FF00003AC
S214400E10A04703460C461846294B98471020294BB6
S214400E2098471720274B9847234B98470346194621
S214400E304FF000020B4614464FEA441B4BEAD36B76
S214400E404FEA431A53465C465B1A64EB0204A00022
S214400E507860786840EA937078609B003B60D7E99A
S214400E6000345B1844EB0204DB1844EB04041946D8
S214400E70224643F2AF634FF00004CD1842EB04061F
S214400E80284631460D4C43F2B0624FF00003A0476F
S214400E9003460C4618460A4B9847FB7D0133FB75C4
S214400EA0FB7D022B7FF67BAF00BF1C37BD46BDE8FF
S214400EB0F08F00BFFD7240007D0C4000198A400054
S214400EC0010000202D73400080B500AF014B9847CD
S214400ED000BF80BDD130400080B500AF014B984781
S214400EE000BF80BD7117400080B500AF014B9847EA
S214400EF000BF80BD4509400080B500AF1F4B4FF492
S214400F0000425A601E4B98470B201E4B98470C20B9
S214400F101C4B98474FF020524FF0FF311A481B4B5E
S214400F2098474FF020524FF0FF311948174B9847DB
S214400F3000224FF0FF311448164B984700224FF0DE
S214400F40FF311348134B984700224FF0FF310E48AD
S214400F50114B984700224FF0FF310D480E4B9847F3
S214400F600E4B98470E4B98470E4B98470E4B98475C
S214400F700E4B98470E4B984700BF80BD50140E400E
S214400F80FD6F4000A50C4000000E0E400D75400061
S214400F9000100E40897240006D704000C10C400049
S214400FA0F10C4000210D4000D90E4000E90E4000F3
S214400FB0C90E400080B500AF014B984700BF80BDCA
S214400FC0910D400080B500AF1F4B984702461F4B1F
S214400FD0A3FB0223DB0A18461D4B984709201D4BEE
S214400FE0984709201C4B9847022109201B4B9847DD
S214400FF009201B4B98471D20164B98471D20164B23
S214401000984701211D20154B98471D20144B9847A3
S2144010100B20104B98470B200F4B984703210B2073
S2144010200E4B98470B200E4B98471F20094B98476E
S2144010301F20094B984704211F20084B98471F2024
S214401040074B984700BF80BD7D0C40001F85EB5185
S214401050A50B4000D10A4000150B4000510B400044
S214401060990A400080B483B000AF0346FB71044B3E
S21440107001221A70012318460C37BD4680BC7047C3
S214401080E419002080B483B000AF0346FB71044BE4
S21440109000221A7000BF0C37BD4680BC704700BFA8
S2144010A0E419002080B582B000AF0346FB71054BC3
S2144010B01B78DBB2002B01D0034B984700BF0837A4
S2144010C0BD4680BDE4190020216B400080B582B04B
S2144010D000AF03460A46FB711346BB71BB79002B33
S2144010E003D01020044B984702E01020034B98474B
S2144010F000BF0837BD4680BDFD7240002D734000DE
S2144011002DE9F04387B000AFF860B960BB685B88F4
S21440111001339AB2BB685A80BB685B88012B06D005
S214401120BA68BB68043319461046564B9847564B28
S21440113098473861BB680433082219463869534BD0
S21440114098470023FB7593E0FE7DFB7DBA685821E7
S21440115001FB03F313441033D3E90001FB7DFA6827
S2144011604FF41C7E0EFB03F3134403F50273D3E9DE
S2144011700023121843EB0103B868582101FB06F11F
S21440118001441031C1E900230023BB756AE097F89B
S21440119017E0BE7DFB7DB97DBA680901582000FB8B
S2144011A003F30B4413441833D3E90001FA7D97F850
S2144011B016C0FB687B6013469B001344DB009B1AFB
S2144011C0634421331B017A681344D3E90023940C0B
S2144011D044EA83349D14021941EB0503B86836018E
S2144011E0582101FB0EF1314401441831C1E9002376
S2144011F097F817E0BE7DFB7DB97DBA6801310901DD
S214401200582000FB03F30B4413441033D3E900018A
S214401210FA7D97F816C0FB687B6013469B00134424
S214401220DB009B1A63441B017A68134403F506737C
S214401230D3E900234FEA924848EA83384FEAA34965
S21440124010EB080241EB0903B868711C0E015821E7
S21440125001FB0EF1314401441031C1E90023BB7D4E
S2144012600133BB75BB7D042B91D9FB7D0133FB75E8
S214401270FB7D032B7FF668AF00BF1C37BD46BDE83D
S214401280F08300BFCD074000B9074000396B4000EF
S2144012902DE9F0478CB000AFF860B960FB681A786B
S2144012A0BB681A70FB68181DBB68023308221946D3
S2144012B0974B9847002387F82F3018E197F82F3040
S2144012C0FA68582101FB03F313441033D3E9002393
S2144012D0D1093960396841EA43613960DB117B6086
S2144012E0FB685B889AB24FF000038A4ED7E900014C
S2144012F0B04702460B46C7E9082397F82F60864B4F
S214401300D7E90801984702460B4610461946834BD4
S21440131098470A460146824B08461146984701467A
S214401320BA6833465B0033441B0113440C331960E0
S214401330002387F82E3051E097F82F6097F82EA0BC
S21440134097F82F3097F82E10FA680901582000FBBE
S21440135003F30B4413441833D3E90001FB685B885E
S2144013609AB24FF000036B4CA04702460B4611461C
S214401370BA6833465B0033445B0053440233DB00B9
S2144013801344596097F82F6097F82EA097F82F309F
S21440139097F82E10FA6801310901582000FB03F334
S2144013A00B4413441033D3E90001FB685B889AB2C0
S2144013B04FF00003574CA04702460B461146BA680A
S2144013C033465B0033445B0053440233DB00134434
S2144013D0996097F82E30013387F82E3097F82E30E4
S2144013E0042BA9D997F82F20B96813465B001344FD
S2144013F01B010B441C33196897F82F20B868134616
S2144014005B0013441B0103441C331B6803FB01F1C0
S21440141097F82F20B86813465B0013441B0103441B
S2144014202033186897F82F20BE6813465B00134495
S2144014301B01334420331B6803FB00F30B44DA0FD5
S21440144013445B101A464FEAE273C7E90623D7E90E
S2144014500801D7E90623821A61EB0303C7E9042390
S214401460D7E90423002A73F100030BDA97F82F20FC
S214401470B96813465B0013441B010B44103300222B
S2144014801A802FE097F82F60D7E904234FEA0369C4
S21440149049EA12294FEA02681E4B1C46D7E9062342
S2144014A040464946A04702460B4611461A461A4B46
S2144014B008461146984702460B4610461946174BB3
S2144014C098470A460146164B084611469847034633
S2144014D019B2BA6833465B0033441B0113441033D9
S2144014E00A461A8097F82F30013387F82F3097F83E
S2144014F02F30032B7FF6E2AE4FF4B8720021F86827
S214401500084B984700BF3037BD46BDE8F08700BF60
S214401510396B4000798940006D834000217E400051
S21440152029894000B98E400080B483B000AF78600F
S2144015307B68072B25D801A252F823F05D154000A2
S21440154063154000691540006F1540007315400054
S214401550771540007B1540007F1540004FF4FA4356
S21440156010E04FF400430DE04FF400430AE0084B10
S21440157008E0084B06E0084B04E0074B02E0064B49
S21440158000E0002318460C37BD4680BC704700BFBD
S21440159000093D0000127A00001BB70080B500AF7E
S2144015A00620044B9847024613469B0013449B0074
S2144015B0184680BD2915400080B500AF024B9847BD
S2144015C003465B08184680BD9D15400080B485B034
S2144015D000AFF860B9607A60FB68D3F80431002B3E
S2144015E012D1FB68D3F81431002B0DD1BA68FB68D2
S2144015F0C3F80021FB687A68C3F80421FB6801221F
S214401600C3F8202101230FE0FB68D3F81431002BE8
S21440161009D1BA68FB68C3F81021FB687A68C3F83A
S2144016201421012300E0002318461437BD4680BC31
S214401630704700002DE9F04F85B000AF7860464B0C
S2144016409847B8600023FB734BE0FB7B9B007A68AF
S21440165002EB030A414B1B88DBB21846404B9847C7
S214401660034619464FEAE172BB685B889BB24FF06F
S214401670000403FB02FE01FB04F07044A1FB0334AC
S214401680021914461D0A45EA04652612AB46354B38
S2144016901B88DBB21846324B9847034619464FEA3A
S2144016A0E172BB685B883048A0FB0303DB089BB253
S2144016B09BB24FF0000403FB02FE01FB04F07044B3
S2144016C0A1FB0334021914464FEA132848EA04687B
S2144016D04FEA242943465B44CAF80030FB7B01337B
S2144016E0FB73FB7B032BB0D9BB689B881F4AA2FBCE
S2144016F003231B099AB2194B1B8813449AB2174B03
S2144017001A80BB689B88194AA2FB03231B099BB21D
S2144017101A46520013449AB2124B1B8813449AB28C
S214401720104B1A800D4B1B887F2B05D90B4B1B8803
S214401730803B9AB2094B1A800A4B1B887F2B05D9EF
S214401740084B1B88803B9AB2064B1A8000BF143762
S214401750BD46BDE8F08F00BFB9074000F61900202F
S214401760716C4000F8190020CDCCCCCC1F85EB51D5
S21440177090B583B000AF0E2200213B483B4B9847C4
S2144017801D203B4B98473B4B984701464FF48023E0
S214401790394A3A483A4CA04701234FF440120121B7
S2144017A03648384CA0473548374B98470422374987
S2144017B03248374B98473148364B984700237B6032
S2144017C008E07B68DBB219462C48334B98477B6869
S2144017D001337B607B68032BF3D92C4B1A78224B62
S2144017E01A7026482D4B984700237B6013E0274A03
S2144017F07B6813441B78002219462048284B98479C
S214401800224A7B6813441B7819461C48254B984748
S2144018107B6801337B607B68032BE8D91748224BF3
S21440182098471648214B9847034603F40003B3F500
S214401830000F00D0F5E700BF002200210F481C4BE8
S214401840984704221B490D481B4B98474FF0805140
S2144018500A481A4B9847002200210848184B9847D8
S21440186000BF0C37BD4690BDE8190020B98E400039
S214401870A9784000B915400000A8610000800340E8
S214401880153A4000993B4000313C40000C00002097
S214401890DB3A40004F3C40000D3C4000D73B400008
S2144018A0A93C40006D3C4000E33C40001B3D4000EE
S2144018B0A53A4000EC190020CD154000013D4000FF
S2144018C0773A400080B500AF0248034B984700BFC8
S2144018D080BD00BF00800340F53B400080B582B02D
S2144018E000AF1648164B9847034603F08053B3F1B3
S2144018F0805F1ED1134B0F229A81042212490F4853
S214401900124B984700237B6010E00E4A7B685B00D2
S21440191013449B88C3F30B0399B20A4A7B685B0067
S21440192013440A469A807B6801337B607B68032BAE
S214401930EBD900BF0837BD4680BD00BF00800340DE
S2144019401B3D4000E8190020EC190020CD15400052
S21440195090B585B000AFB9607A603B600346FB81C6
S214401960BB681A88FB8913449AB2BB681A80BB6866
S2144019701B887F2B05D9BB681B88803B9AB2BB6807
S2144019801A807B681C68BB681B88DBB21846164BFF
S214401990984703461B1203FB04F33A68D2E9001249
S2144019A04FEAE3745B1844EB02043A68C2E9003439
S2144019B07B681C68BB681B88DBB218460B4B984795
S2144019C003461B1203FB04F33A68D2E902124FEABD
S2144019D0E374CB1A62EB04043A68C2E9023400BFEF
S2144019E01437BD4690BD00BF916C4000716C4000FE
S2144019F090B58BB000AF78603960002387F8273009
S214401A00B4E097F827309B007A6813443B6297F817
S214401A1027304FF41C7202FB03F33A681344FB6111
S214401A20FB69B3F800329B00FA691344BB61FB695B
S214401A3003F50273D3E900123B6A1B6818463B6AFB
S214401A401B6803FB00F34FEAE3745B1844EB0204A5
S214401A50FA6902F50272C2E90034FB6903F50273C3
S214401A60D3E90012BB691B681846BB691B6803FBB9
S214401A7000F34FEAE374CB1A62EB0404FA6902F50A
S214401A800272C2E900343B6A1A68BB691B68D31A03
S214401A90FB60FB69B3F8003219463B6A1A68FB697B
S214401AA043F82120FB69B3F8003201339AB2FB6950
S214401AB0A3F80022FB69B3F800327F2B03D9FB69F9
S214401AC00022A3F80022FB6903F50473D3E9001251
S214401AD0FB68DB024FEAE3745B1844EB0204FA69E6
S214401AE002F50472C2E90034FB6903F506724FF052
S214401AF000034FF00004C2E90034214B9847786158
S214401B00012387F8263028E07B699B881D4AA2FB84
S214401B1003231B099AB297F826305B00013B9BB221
S214401B2012FB03F37B827B8A3F2B11D897F8263033
S214401B3003F598735B00FA69D11897F8263021337D
S214401B401B01FA69134407F10C02788A0E4CA04731
S214401B5097F82630013387F8263097F82630042B3E
S214401B60D2D997F82730013387F8273097F82730AF
S214401B70032B7FF646AF00BF2C37BD4690BD00BF57
S214401B80B90740001F85EB515119400090B482B010
S214401B9000AF78607A684FF000034FF00004C2E967
S214401BA000347B6803F108024FF000034FF0004416
S214401BB0C2E900347B6803F110024FF0FF336FF048
S214401BC00044C2E9003400BF0837BD4690BC7047A9
S214401BD090B583B000AF786039603B68D3E90012B7
S214401BE07B681B684FEAE3745B1844EB02043A6870
S214401BF0C2E900343B6803F108007B681B684FEA83
S214401C00E3743A680832D2E900128B4274EB020E53
S214401C1001DA0B461446C0E900343B6803F1100075
S214401C207B681B684FEAE3743A681032D2E90012C8
S214401C30994272EB040E01DA0B461446C0E90034B2
S214401C4000BF0C37BD4690BDB0B584B000AFF8605D
S214401C50B9601346FB80FB68D3E90001FB884FF070
S214401C6000040E4D1A462346A84703460C461A461D
S214401C70BB681A60BB681A1DFB680833D3E900349A
S214401C801360BB6803F10802FB681033D3E90034E5
S214401C90136000BF1037BD46B0BD00BF7989400015
S214401CA0B0B584B000AFF860B9601346FB80FB68FF
S214401CB0D3E90001FB884FF00004284D1A4623461E
S214401CC0A84703460C4619462246254B0846114669
S214401CD0984703460C4618462146224B98470A46E4
S214401CE00146214B0846114698470246BB681A6093
S214401CF0BB681D1DFB680833D3E90034184A1846F4
S214401D002146904703460C4618462146154B9847B1
S214401D100A460146144B08461146984703462B6030
S214401D20BB6803F10805FB681033D3E900340C4A5E
S214401D3018462146904703460C4618462146094B0E
S214401D4098470A460146084B0846114698470346B8
S214401D502B6000BF1037BD46B0BD00BF798940003C
S214401D606D834000217E400029894000B0B584B094
S214401D7000AFF860B9601346FB80FB68D3E900010A
S214401D80FB884FF00004294D1A462346A8470346D1
S214401D900C4619462246264B0846114698470346A7
S214401DA00C4618462146234B98470A460146224B86
S214401DB008461146984703461AB2BB681A80BB6865
S214401DC09D1CFB680833D3E90034194A184621465F
S214401DD0904703460C4618462146164B98470A46F7
S214401DE00146154B08461146984703461BB22B80C2
S214401DF0BB681D1DFB681033D3E900340C4A1846F7
S214401E002146904703460C4618462146094B9847BC
S214401E100A460146084B08461146984703461BB2F9
S214401E202B8000BF1037BD46B0BD00BF798940004B
S214401E306D834000217E40002989400080B584B0F3
S214401E4000AF78607B6800225A817B6800221A7057
S214401E507B6800229A807B680022DA800023FB8120
S214401E6046E0FA891346DB0013445B0110337A6878
S214401E7013441846224B98470023BB8127E0F98934
S214401E80BB8901331A4652001A4413011A460B46C0
S214401E90DB000B445B01134410337A681344184646
S214401EA0174B9847F989BB891A4652001A441301C2
S214401EB01A460B46DB000B445B01134458337A68E2
S214401EC0134418460E4B9847BB890133BB81BB89E8
S214401ED0042BD4D9FA891346DB0013445B0128331C
S214401EE07A6813441846064B9847FB890133FB81B2
S214401EF0FB89032BB5D900BF1037BD4680BD00BF58
S214401F008D1B400080B582B000AF78604FF40F72F2
S214401F1000217868024B984700BF0837BD4680BD11
S214401F20B98E400080B584B000AF786039603B68B9
S214401F305B8901339AB23B685A813B685B89012BC7
S214401F4006D03A683B68023319461046574B9847C6
S214401F503B681A787B681B781343DAB23B681A7082
S214401F607B68981C3B68023308221946504B9847BA
S214401F700023FB8192E0FA89796813465B0013449C
S214401F801B010B440C331968FA89786813465B00CA
S214401F9013441B0103440C331B6803FB01F3BB6073
S214401FA0FA891346DB0013445B0110333A681A443F
S214401FB007F10803114618463E4B98470023BB815D
S214401FC040E0FA89B98913465B0013445B000B4432
S214401FD00233DB007A681344181DF989BB89013344
S214401FE01A4652001A4413011A460B46DB000B44AD
S214401FF05B01134410333A68134419462D4B9847F7
S214402000FA89B98913465B0013445B000B440233DC
S214402010DB007A68134403F10800F989BB891A4645
S21440202052001A4413011A460B46DB000B445B0170
S214402030134458333A68134419461E4B9847BB8995
S2144020400133BB81BB89042BBBD9FA897968134617
S2144020505B0013441B010B441033B3F900301846A1
S214402060FA89796813465B0013441B010B4410330E
S214402070B3F9003003FB00F3BB60FA891346DB007C
S21440208013445B0128333A681A4407F108031146A3
S2144020901846084B9847FB890133FB81FB89032B85
S2144020A07FF669AF00BF1037BD4680BDCD07400004
S2144020B0396B4000D11B400080B584B000AF7860DB
S2144020C039607B681A783B681A707B68981C3B6856
S2144020D0023308221946464B98470023FB817EE090
S2144020E0FA891346DB0013445B0110337A68D01834
S2144020F0FB898C2202FB03F308333A681344191D0C
S2144021007B685B891A463B4B98470023BB814AE075
S214402110F989BB8901331A4652001A4413011A46FC
S2144021200B46DB000B445B01134410337A68D0182F
S214402130F989BA8913465B001344DB008C2202FB04
S21440214001F2134418333A68134403F108017B68DC
S2144021505B891A46284B9847F989BB891A4652002C
S2144021601A4413011A460B46DB000B445B0113442A
S21440217058337A68D018F989BB895A1C13465B00D5
S2144021801344DB008C2202FB01F2134408333A6806
S214402190134403F10C017B685B891A46164B98473B
S2144021A0BB890133BB81BB89042BB1D9FA8913465D
S2144021B0DB0013445B0128337A68D018FB898C22F5
S2144021C002FB03F310333A68134403F108017B68BB
S2144021D05B891A46094B9847FB890133FB81FB898B
S2144021E0032B7FF67DAF00BF1037BD4680BD00BFD6
S2144021F0396B4000A11C4000491C40006D1D40004A
S21440220080B483B000AFEFF310837B607B68002B15
S2144022100CBF01230023DBB23B6072B6BFF35F8F77
S214402220044B00221A703B6818460C37BD4680BCEB
S214402230704700BFFC00002080B483B000AF7860D9
S2144022407B68002B14BF01230023DBB218460C37F3
S214402250BD4680BC7047000080B582B000AF786055
S2144022607868074B98470346002B05D0054B01225C
S2144022701A70BFF35F8F62B600BF0837BD4680BD99
S21440228039224000FC00002080B582B000AF002319
S214402290BB71494B00221A70BB79484A002122F88C
S2144022A01310BA79464913469B0013445B000B440F
S2144022B0A1221A70BA79424913469B0013445B0028
S2144022C00B44013320221A70BA793D4913469B00CD
S2144022D013445B000B44023300221A80BB79002B68
S2144022E002D10023FB7102E00023FB7100BFBA79E4
S2144022F0FB7998B2324913469B0013445B000B446B
S214402300043302461A80BA792D4913469B0013447B
S2144023105B000B44063302221A80BA7928491346DA
S2144023209B0013445B000B44083300221A80BA79A2
S21440233024491346DB009B1A0B4400221A700022E5
S21440234062F03D025A70002242F001029A7000226A
S214402350DA70BA791B491346DB009B1A0B440433E8
S21440236000221A70BA7917491346DB009B1A0B44B1
S214402370053300221A70BA7912491346DB009B1ABD
S2144023800B44063308221A70BB7918460E4B984702
S214402390034683F00103DBB2002B01D0002307E0A5
S2144023A0054B1B78DBB20133DAB2034B1A700123BC
S2144023B018460837BD4680BD121A0020041A002071
S2144023C0081A0020FC1900206510400080B582B035
S2144023D000AF0023FB712D4B00221A70FB792C4A6C
S2144023E00021D154FB792B4A0021D154FB792A4A4B
S2144023F00021D154FB79294A002122F82310FB7989
S214402400264A9B00134400225A80FB79244A002126
S21440241022F81310FB791846224B9847FB79224A3C
S2144024200021D154FB79214A0021D154FB79204A1E
S214402430002122F82310FB791D4A9B0013440022FA
S2144024405A80FB791B4A002122F81310FB79184664
S214402450194B9847034683F00103DBB2002B01D0AB
S21440246000230FE0094B1B78DBB20133DAB2074B8F
S2144024701A70064B1B78DBB2012B02D10F4B0122A0
S2144024801A70012318460837BD4680BD131A00202F
S214402490341B0020381B00202C1B0020281B00204B
S2144024A0301B0020A1284000A41A00209C1A0020BF
S2144024B0981A0020A01A00207D264000141A0020FA
S2144024C080B400AF054B1B78DBB2013BDAB2034B5E
S2144024D01A7000BFBD4680BC704700BF121A00206D
S2144024E080B582B000AF0A4B1B78DBB2013BDAB254
S2144024F0074B1A70064B1B78FB71FB791846054B49
S2144025009847054B00221A7000BF0837BD4680BD6D
S214402510131A002085104000141A002080B582B09F
S21440252000AF314B98470346FB71304B1B785BB28C
S214402530002B1CDA2D4B1B7803F06003202B16D1A2
S2144025402A4B5B78212B12D1284BDB88072B01D0F6
S214402550002345E0FA791346DB009B1A244A1344CD
S214402560224A9360214B07229A81012338E01F4B71
S2144025701B785BB2002B32DB1C4B1B7803F06003EE
S214402580202B2CD1194B5B78202B02D0222B16D037
S21440259025E0164BDB88072B01D0002320E0134BA9
S2144025A0144A1A61FA791346DB009B1A104A134400
S2144025B00E4A93600D4B07229A81012310E00B4B85
S2144025C05B8803F00103002B14BF01230023DAB21B
S2144025D0FB7911461846084B9847012300E0002334
S2144025E018460837BD4680BD35264000241C0020CE
S2144025F0FC19002061264000CD10400080B400AF9A
S21440260000231846BD4680BC704780B400AF002308
S2144026101846BD4680BC704780B500AF034B1B785C
S2144026201846034B984700BF80BD00BF391B0020AB
S214402630A128400080B483B000AF084B9B88DBB233
S214402640002B02D10023FB7102E00023FB7100BF88
S214402650FB7918460C37BD4680BC7047241C0020CA
S21440266080B582B000AF044B98470346FB7100BF6D
S2144026700837BD4680BD00BF3526400090B589B0BE
S21440268002AF0346FB710023FB712F4B984738611E
S214402690FB792E4AD35CFB73FB792D4AD35CDBB2C5
S2144026A0002B0ED1FB792B4A32F813309AB2F979C7
S2144026B0FB7B294849000B4430F813309BB29A42C2
S2144026C004D23869254B9847002338E0FB79214AE5
S2144026D0002122F81310FB79FA7B002A0CBF012256
S2144026E00022D2B21146194AD154FB79184A012128
S2144026F0D1543869194B9847FB791846184B984778
S2144027000346002B03D0FB791846164B9847FB79B7
S214402710002B02D10223FB7502E00223FB7500BFAB
S214402720FA79FB7B520013449B010F4A1A44F87D0A
S2144027300E4B0093402301210D4CA04703461846FC
S2144027401C37BD4690BD00BF012240009C1A0020A9
S214402750A41A0020A01A0020981A002059224000EF
S214402760ED2A4000A5104000181A002075274000AA
S214402770854E400090B587B002AF03463960FB7186
S2144027801346BB71BB79022B02D10023FB7302E0D8
S2144027900023FB7300BFFB79002B2ED1FB7B194A2D
S2144027A0D35CDBB2002B0CBF01230023DBB2BB7330
S2144027B03B68002B0ED1FA7BBB7B520013449B0137
S2144027C0114A1A44B879114B009340230121104C0A
S2144027D0A04713E0FA7BBB7B396888B20D495200AC
S2144027E01344024621F81320FB7B0B4A0021D154A8
S2144027F0FB7B1846094B984700E000BF1437BD46A0
S21440280090BD00BF9C1A0020181A00207527400073
S214402810854E4000981A0020A41A00207D264000CD
S21440282080B584B000AF03463960FB711346BB7178
S214402830BB79812B02D10023FB7302E00023FB739C
S21440284000BFFB79002B1DD1FB7BFA7B0F498A5CCE
S214402850D2B2002A0CBF01220022D2B211460C4A44
S2144028605B000B44002122F81310FB7B094A002131
S214402870D154FB7B084A0021D154FB7B1846074BBA
S214402880984700E000BF1037BD4680BD2C1B002097
S214402890281B0020381B0020341B0020A1284000A5
S2144028A090B589B002AF0346FB710023FB71FB79FC
S2144028B0624AD35CDBB2002B40F0BA80604B98474C
S2144028C00346002B09D0FB795E4A32F813405E4B34
S2144028D0984703469C420AD1ADE0FB79594A32F804
S2144028E013405A4B984703469C4200F0A380584BEF
S2144028F098473861FB79574AD35CFB75FA79FB7D7C
S21440290055495200134431F81330002B1FD1534B16
S2144029101B8801339AB2514B1A80494B984703465D
S21440292083F00103DBB2002B03D04C4B1B88632B98
S21440293009D9434B98470346002B08D0474B1B8882
S214402940B3F5487F03D23869454B984773E0434B0D
S21440295000221A80FB79434AD35CDBB283F0010342
S214402960DBB2002B0AD0FB79FA7D002A0CBF01228D
S2144029700022D2B21146374AD15406E0FB7D002BE6
S2144029800CBF01230023DBB2FB75FB792B4A0121E8
S214402990D1543869324B9847FA79FB7D2E4952001C
S2144029A0134431F81330402B14BF01230023FB732C
S2144029B0FB7B002B16D0224B98470346002B08D0B3
S2144029C0FC79214B984703461A461E4B23F81420A1
S2144029D00DE0FC791D4B984703461A46194B23F8E1
S2144029E0142004E0FB79174A002122F81310FB79E3
S2144029F0002B02D18123BB7502E08123BB7500BF4B
S214402A00FA79FB7D520013449B01174A9C18FA79C9
S214402A10FB7D11495200134431F813301A46F97BB6
S214402A20B87D124B009313462246114CA04702E055
S214402A3000BF00E000BF1C37BD4690BD341B0020E1
S214402A40A5484000301B00206149400045494000F1
S214402A50012240002C1B0020281B00203A1B00208F
S214402A6059224000381B0020A81A00202128400088
S214402A70854E400080B586B000AF0346FB7100230C
S214402A80FB71104B98477861FB790F4A32F8133048
S214402A907B82FB79FA790D498A5CD2B211460C4AA0
S214402AA05B000B4432F813309BB21A467B8AD31A2B
S214402AB0FB607869074B9847FB6818461837BD4651
S214402AC080BD00BF01224000A01A00209C1A0020B2
S214402AD0981A00205922400080B500AF0020024BD3
S214402AE098470346184680BD752A400080B582B098
S214402AF000AF0346FB71FB791846064B98470346E2
S214402B00002B14BF01230023DBB218460837BD460E
S214402B1080BD00BF752A400080B500AF0020024B44
S214402B2098470346184680BDED2A400080B588B0D9
S214402B3000AF0346B9607A60FB73BB68FB61002355
S214402B40FB73364B98477861FB7B354A32F8133037
S214402B507B82FB7B334AD35C7B74FA7B7B7C32493B
S214402B605200134431F813309BB27A8A9A422CBFF3
S214402B70012300233B7478692C4B98473B7C002B01
S214402B8009D02B4B1B78DBB283F00103DBB2002B62
S214402B90D7D07B683DE0FA7B7B7C234952001344C8
S214402BA031F813309BB21A467B8AD31ABB61BA6996
S214402BB07B689A4201D97B68BB61F97B7A7C7B8AC9
S214402BC049000A44920113441A4A1344BA69194602
S214402BD0F869194B9847FB7BFA7B114931F812206C
S214402BE091B2BA6992B20A4491B20D4A22F81310D1
S214402BF0FA69BB691344FB617A68BB69D31A7B6088
S214402C00FB7B18460D4B98477B68002B00D098E717
S214402C10002318462037BD4680BD00BF0122400035
S214402C20A01A00209C1A0020981A00205922400022
S214402C30141A0020181A0020858D40007D2640007A
S214402C4080B582B000AF786039603A687968002015
S214402C50034B9847034618460837BD4680BD00BF1D
S214402C602D2B400080B586B000AF0346FB71002395
S214402C70FB71204B98473861FB791F4AD35CFB7346
S214402C80FA79FB7B1D495200134431F813307B61BF
S214402C907B69402B21D1FB79194AD35CDBB283F0A8
S214402CA00103DBB2002B18D0FB79164AD35CDBB2AB
S214402CB083F00103DBB2002B0FD0FB79114A0121D0
S214402CC0D154FB79FA7B002A0CBF01220022D2B2F3
S214402CD01146094AD15400237B617B69C3F1400306
S214402CE0BB603869084B9847BB6818461837BD46DE
S214402CF080BD00BF012240002C1B0020281B002066
S214402D00341B0020381B00205922400080B582B07A
S214402D1000AF0346FB71FB791846064B98470346BF
S214402D20002B14BF01230023DBB218460837BD46EC
S214402D3080BD00BF652C400080B500AF0020024B30
S214402D4098470346184680BD0D2D400080B588B094
S214402D5000AF0346B9607A60FB73BB68BB61002373
S214402D60FB73FA7B33491346DB009B1A0B4406334E
S214402D701B78092B02D17B685B007B60FB7B184687
S214402D802D4B9847034683F00103DBB2002B09D056
S214402D902A4B1B78DBB283F00103DBB2002BEDD06D
S214402DA07B6843E0264B98477861FB7B254AD35C9B
S214402DB0FB74FA7BFB7C24495200134431F81330F1
S214402DC03B823B8AC3F14003FB61FA697B689A42C7
S214402DD001D97B68FB61F97BFA7C3B8A49000A444F
S214402DE092011344194A1344FA69B9691846184BB4
S214402DF09847FA7BFB7CF96988B2398A014488B2E5
S214402E00114952001344024621F813207869114BA9
S214402E109847BA69FB691344BB617A68FB69D31A61
S214402E207B607B68002B00D0A8E70023184620373D
S214402E30BD4680BDFC1900200D2D4000141A002010
S214402E40012240002C1B0020281B0020A81A00202E
S214402E50858D40005922400080B582B000AF786032
S214402E6039603A6879680020034B9847034618460D
S214402E700837BD4680BD00BF4D2D400080B400AF32
S214402E80064B1B681B68054A12681268528892B245
S214402E9013441846BD4680BC704700BF481B002000
S214402EA080B584B000AF78600B46FB70124B9847F5
S214402EB0F8607B681B781A467B6813447B6010E09A
S214402EC07B685B78042B11D07B685B78FA789A42F3
S214402ED001D17B680CE07B681B781A467B681344FC
S214402EE07B60FA687B689A42EAD800E000BF00231D
S214402EF018461037BD4680BD7D2E400080B584B054
S214402F0000AF03460A46FB711346BB711E4B1B7847
S214402F10002B01D1002332E01C4B1B681B681B7939
S214402F20FA799A4201D3002329E0184B1B681B68A4
S214402F30174A1360174B9847F8601AE0144B1B6803
S214402F405B78042B0DD1124B1B689B78FA799A421A
S214402F5007D10F4B1B68DB78BA799A4201D101231F
S214402F600DE00B4B1B680A4A126812781344084A55
S214402F701360074B1B68FA689A42DFD8002318464E
S214402F801037BD4680BD00BF441B0020481B0020B4
S214402F904C1B00207D2E400080B584B000AF034619
S214402FA0FB71FB79002118461E4B9847034683F079
S214402FB00103DBB2002B01D000232FE01A4B1B6825
S214402FC05A68FB799B0013441B68BB60BB68DB6890
S214402FD0984703461A46FB7911461846114B9847C0
S214402FE0034683F00103DBB2002B01D0002315E03B
S214402FF00E4B1B68FB600521F8680D4B9847F86040
S214403000FB68002B05D0FB689B781846094B984711
S214403010F1E700BFBB685B68984701231846103746
S214403020BD4680BDFD2E4000481B00204C1B0020A6
S214403030A12E4000854B400080B584B000AF0346CB
S2144030400A46FB711346BB71BA79FB79114618469E
S2144030501A4B9847034683F00103DBB2002B01D09E
S214403060002327E0164B1B68FB600521F868154BCC
S2144030709847F860FB68002B11D0FB689878FB688F
S214403080D978FB689B889BB21A460F4B98470346F5
S21440309083F00103DBB2002BE7D000230AE000BF39
S2144030A00A4B1B685A68FB799B0013441B681B68D5
S2144030B09847034618461037BD4680BDFD2E400053
S2144030C04C1B0020A12E400099494000481B002080
S2144030D080B500AF014B984700BF80BDAD4740006C
S2144030E080B582B000AF0F4B1B78002B10D000236A
S2144030F0FB7106E0FB7918460B4B9847FB7901338A
S214403100FB710A4B1B681B681B79FA799A42F1D30C
S214403110044B00221A70064B01221A8000BF083763
S214403120BD4680BD441B0020992F4000481B002010
S2144031303C1B002080B582B000AF144B1B78002BA0
S2144031401FD00023FB7115E0114B1B685A68FB79B2
S2144031509B0013441B681B69002B08D00C4B1B6854
S2144031605A68FB799B0013441B681B699847FB7998
S2144031700133FB71064B1B681B681B79FA799A4230
S214403180E2D300BF0837BD4680BD00BF441B0020C9
S214403190481B002080B500AF064BDB88022B01D0D1
S2144031A0002304E002210448044B984701231846B4
S2144031B080BD00BF241C00203C1B002071494000FD
S2144031C080B500AF0B4BDB88022B01D000230EE00E
S2144031D0084B9B88DBB21846074B984703469AB283
S2144031E0064B1A8002210548054B9847012318468E
S2144031F080BD00BF241C0020F54B4000501B002023
S2144032007149400080B400AF0B4BDB88002B01D0E7
S21440321000230DE0084B5B88012B08D1074B1B8829
S21440322023F002039AB2054B1A80012300E00023E4
S2144032301846BD4680BC7047241C00203C1B00201E
S21440324080B500AF0A4BDB88002B01D000230CE092
S214403250074B5B88002B07D1054B9B88DBB2184693
S214403260044B9847034600E00023184680BD00BF45
S214403270241C0020594D400080B400AF084BDB882A
S214403280002B01D0002307E0054B5B88012B02D0C2
S21440329000BF002300E000231846BD4680BC7047B0
S2144032A0241C002080B500AF0D4BDB88002B01D0DE
S2144032B0002312E00A4B5B88002B0DD1084B9B88FD
S2144032C0DBB21846074B9847054B9B88DBB218463F
S2144032D0054B9847034600E00023184680BD00BFD4
S2144032E0241C0020DD4F4000654C400080B500AFF8
S2144032F0054B5B88DBB203F07F03DBB21846034B1B
S214403300984700BF80BD00BF241C0020B548400041
S21440331080B400AF064BDB88002B01D0002303E0CF
S214403320034B044A1A6101231846BD4680BC7047C9
S214403330241C0020ED32400080B584B000AF00234E
S214403340FB71224B5B88DBB2012B08D0022B0BD0E3
S214403350002B0ED104211E481E4B98470BE0052338
S214403360FB711D4BBB6006E01423FB711B4BBB601F
S21440337001E0002326E0FB79002B22D00023FB73DC
S2144033800DE0FB7BFA7BB9680A44127891B2144A86
S2144033905B0013440A465A80FB7B0133FB73FA7B7F
S2144033A0FB799A42EDD3FB790133DBB25B00DAB2AC
S2144033B00B4B1A700A4B1B789BB219460848054BB4
S2144033C09847012318461037BD4680BD241C002070
S2144033D0AC00002071494000B0000020B80000203A
S2144033E0D000002080B582B000AF414B5B88FB71B7
S2144033F03F4B5B881B0A9BB2DBB2013B0E2B65D86A
S21440340001A252F823F000BF453440005B34400030
S214403410B9344000CD344000CD344000CD34400077
S214403420CD344000CD344000CD344000CD34400053
S214403430CD344000CD344000CD344000CD34400043
S214403440973440002B4B1A682A4B1B681B789BB25C
S21440345019461046284B98473BE0264B1B685B7C3A
S214403460FA799A4201D300233EE0224B5A68FB7910
S214403470DB00134418681F4B5A68FB79DB00134483
S2144034801B685B889BB219461B4B9847184B9B683A
S21440349002225A701DE0174B9B68002B01D1002377
S2144034A022E0144B9A68134B9B685B889BB2194684
S2144034B01046114B98470CE0104B9847034683F054
S2144034C00103DBB2002B03D000230DE000230BE00A
S2144034D000BF074BDA88064B9B899A4203D2044BBF
S2144034E0DA88034B9A81012318460837BD4680BDCB
S2144034F0241C0020A00000207149400039334000C1
S21440350080B500AF064BDB88012B01D0002304E0DA
S21440351001210448044B98470123184680BD00BF4C
S214403520241C0020441B00207149400080B582B016
S21440353000AF274BDB88002B01D0002343E0254B10
S21440354098470346002B01D100233CE0204B5B8884
S214403550DBB2214A1268527C934201DD002332E0FE
S2144035601E4B98471A4B5B88DAB21D4B1A701C4BA1
S2144035701B78002B01D1012325E0174B5A68184BC6
S2144035801B7803F10053013BDB001344154A1360DC
S2144035900023FB710FE0FB7900211846124B984739
S2144035A0034683F00103DBB2002B01D000230AE080
S2144035B0FB790133FB710B4B1B681B681B79FA794F
S2144035C09A42E8D3012318460837BD4680BD00BF5F
S2144035D0241C002019494000A0000020E130400093
S2144035E0441B0020481B00203930400080B582B084
S2144035F000AF1E4BDB88012B01D0002332E01C4B72
S2144036001B78002B01D100232CE0184B9B88FB71C4
S214403610184B1B681B681B79FA799A4201D3002322
S21440362020E0FB7900211846134B9847034683F069
S2144036300103DBB2002B01D0002313E00D4B1B68C7
S2144036405A68FB799B0013441B683B603B68DB6809
S214403650984703461A46094B1A7001210748084BFB
S2144036609847012318460837BD4680BD241C0020D5
S214403670441B0020481B0020FD2E4000401B00201D
S2144036807149400080B582B000AF144BDB88002BF8
S21440369001D000231EE0124B1B78002B01D10023E3
S2144036A018E00E4B9B88FB710C4B5B88BB71FB791B
S2144036B018460C4B9847034683F00103DBB2002BB9
S2144036C001D0002306E0BA79FB7911461846064B2E
S2144036D09847034618460837BD4680BD241C002040
S2144036E0441B0020992F40003930400080B500AF81
S2144036F04D4B1B785BB2002B3EDA4B4BDB88002BE6
S21440370001D100238EE0484B1B7803F01F03002BAB
S21440371014D1454B5B78062B08D0082B0AD0002BDB
S21440372000D00BE0414B984703467BE0404B984720
S214403730034677E03F4B9847034673E03A4B1B7887
S21440374003F01F03012B08D1374B5B780A2B00D0C0
S21440375003E0394B9847034664E0334B1B7803F04D
S2144037601F03022B5DD1304B5B78002B00D058E016
S214403770324B9847034655E02B4B1B7803F01F030C
S214403780002B2AD1284B5B78013B082B24D801A27A
S21440379052F823F0C1374000D9374000C9374000BF
S2144037A0D9374000B9374000D9374000D9374000B4
S2144037B0D9374000D1374000214B9847034631E087
S2144037C0204B984703462DE01F4B9847034629E079
S2144037D01E4B9847034625E000BF134B1B7803F06B
S2144037E01F03012B08D1104B5B780B2B00D003E056
S2144037F0174B9847034615E00B4B1B7803F01F0307
S214403800022B0ED1084B5B78012B02D0032B04D041
S21440381007E0104B9847034604E00F4B9847034693
S21440382000E00023184680BD241C0020953140004F
S214403830E533400001354000ED354000C1314000E1
S2144038401133400005324000793240002D354000AB
S2144038508536400041324000A532400080B582B0F7
S21440386000AF204B1B78002B01D1002336E01E4BC7
S2144038709B88FB711D4B1B681B681B79FA799A4223
S21440388001D300232AE0FB7900211846184B9847BD
S214403890034683F00103DBB2002B01D000231DE07A
S2144038A0124B1B685A68FB799B0013441B683B60AD
S2144038B03B68DB68984703461A46FB79114618462C
S2144038C00B4B9847034683F00103DBB2002B01D035
S2144038D0002303E03B689B68984703461846083732
S2144038E0BD4680BD441B0020241C0020481B0020F1
S2144038F0FD2E400080B582B000AF1E4B1B78002BDB
S21440390001D1002332E01C4B9B88FB710023FB71E6
S21440391024E01A4B1B685A68FB799B0013441B68CB
S2144039203B603B68DB68984703461A46FB7911467E
S2144039301846134B9847034683F00103DBB2002B2F
S21440394001D0002312E03B689B6898470346002B53
S21440395001D001230AE0FB790133FB71074B1B685A
S2144039601B681B79FA799A42D3D300231846083746
S214403970BD4680BD441B0020241C0020481B002060
S214403980FD2E400080B500AF1E4B00229A811D4B95
S21440399000221A611B4B00225A611A4B1B785BB2FD
S2144039A0002B05DA174BDB88002B01D1002327E0DC
S2144039B0144B1B7803F06003002B06D1124B98473C
S2144039C00346002B01D001231AE00E4B1B7803F070
S2144039D01F03012B06D10D4B98470346002B01D001
S2144039E001230DE0074B1B7803F01F03022B06D183
S2144039F0074B98470346002B01D0012300E00023E5
S214403A00184680BD241C0020ED3640005D3840003E
S214403A10F538400080B487B000AFF860B9607A608F
S214403A203B60FB6801221A60FB6800225A60FB6814
S214403A3040F20222C3F82021FB680022C3F804218A
S214403A40FB680022C3F814217B685B00BA68B2FBAF
S214403A50F3F3013B7B61FB685A687B691B0299B2B2
S214403A603B680B431A43FB685A60002318461C37D2
S214403A70BD4680BC704780B483B000AF78600B46CC
S214403A80FB701346BB707B685A68F978BB78DB01DD
S214403A90DBB20B431A437B685A6000BF0C37BD4607
S214403AA080BC704780B483B000AF78600B46FB7034
S214403AB01346BB707B685A68FB785B0103F02001B5
S214403AC0BB789B0103F040030B431A437B685A6064
S214403AD000BF0C37BD4680BC704780B487B000AF8F
S214403AE0F860B9601346FB71FB6808333B61FB79AD
S214403AF0082B18D80023FB7510E03B691B68FA7D3D
S214403B00B9680A4412781146FA7D920001FA02F228
S214403B101A433B691A60FB7D0133FB75FA7DFB79DE
S214403B209A42EAD333E00023FB7510E03B691B68FA
S214403B30FA7DB9680A4412781146FA7D920001FA75
S214403B4002F21A433B691A60FB7D0133FB75FB7D2D
S214403B50072BEBD90023FB7514E03B6904333A6925
S214403B6004321268F97D08310846B968014409787C
S214403B700846F97D890000FA01F10A431A60FB7D88
S214403B800133FB75FA7DFB79083B9A42E5DB00BFC3
S214403B901C37BD4680BC704780B485B000AFF86027
S214403BA07A601A460B46FB721346BB72FB685A682D
S214403BB0BB7A1B0703F040517B681943FB7A1B0610
S214403BC003F070630B431A43FB685A6000BF143718
S214403BD0BD4680BC704780B483B000AF78607B68D9
S214403BE05B6823F400027B685A6000BF0C37BD4612
S214403BF080BC704780B483B000AF78607B68022298
S214403C001A6000BF0C37BD4680BC704780B483B096
S214403C1000AF78600B46FB70FB78012202FA03F394
S214403C201A467B681A6100BF0C37BD4680BC704799
S214403C3080B483B000AF78607B681B6C43F08072C2
S214403C407B681A6400BF0C37BD4680BC704780B4A2
S214403C5083B000AF78607B685B6843F000427B6867
S214403C605A6000BF0C37BD4680BC704780B485B0F4
S214403C7000AF78600B46FB707B68DB6CFB607B6854
S214403C80DA6CFB786FF0010101FA03F31A407B68A7
S214403C90DA647B68DA6CFB681A437B68DA6400BFD8
S214403CA01437BD4680BC704780B483B000AF7860A0
S214403CB00B46FB701346BB707B689A6CFB785B00C8
S214403CC0032101FA03F3B878F978490000FA01F1C4
S214403CD00B401A437B689A6400BF0C37BD4680BCD5
S214403CE0704780B483B000AF78607B681B6843F051
S214403CF008027B681A6000BF0C37BD4680BC704720
S214403D0080B483B000AF786039607B683A685A62A6
S214403D1000BF0C37BD4680BC704780B483B000AF50
S214403D2078607B681B6B18460C37BD4680BC704776
S214403D3080B485B000AFF860B9607A60BB68002B8D
S214403D4007D0BB681A68FB689A60BB685A68FB680D
S214403D50DA607B68002B07D07B681A68FB689A613C
S214403D607B685A68FB68DA6100BF1437BD4680BC82
S214403D70704780B483B000AF786039603A6840F2EC
S214403D80011313407A68136200BF0C37BD4680BCEF
S214403D907047000080B584B000AF786039607868BE
S214403DA02C4B9847F86078682B4B98470246FB6840
S214403DB01340FB60FB68002B3CD00023BB6034E024
S214403DC0264ABB681B0113441A683B689A4226D1B0
S214403DD0224ABB681B01134404331A68FB6813402D
S214403DE0002B1CD01D4ABB681B0113440C331B68B8
S214403DF01A49BA6812010A4410681849BA6812018A
S214403E000A440432126811469847144ABB681B019C
S214403E10134404331B68DB43FA681340FB60BB68FB
S214403E200133BB60BB68062B03D8FB68002BC7D1A9
S214403E3000E000BF0A4B1B68002B07D0094B1B68ED
S214403E40002B03D0074B1B687868984700BF103795
S214403E50BD4680BDD1724000E7724000541B002032
S214403E60F01D0020C41B002080B500AF0B21024887
S214403E70024B984700BF80BD000E0E40953D400067
S214403E8080B500AF0C210248024B984700BF80BD6A
S214403E9000100E40953D4000B0B491B000AF786041
S214403EA039601B4B07F10C041D460FCD0FC40FCDD8
S214403EB00FC495E8070084E807000023FB63FB6B0C
S214403EC09B0007F14002134453F8343C3A68B2FB77
S214403ED0F3F27B68B2FBF3F3BB63BB6BB3F5807F57
S214403EE006D9FB6B0133FB63FB6B0A2BE7D900E07B
S214403EF000BFFB6B0A2B04D8FB6B1A02BB6B134349
S214403F0001E04FF6FF7318464437BD46B0BC7047D5
S214403F107490400080B584B000AF7860396000236C
S214403F20FB603B681B68002B11D03B681A683B68F7
S214403F309B6819461046164B9847B860BB684FF6C4
S214403F40FF72934201D1BB681EE0BB68FB603B68D2
S214403F505B68002B14D03B685A683B689B681946E0
S214403F6010460B4B9847B860BB684FF6FF729342BB
S214403F7001D1BB6808E0BB681B04FA681343FB60CA
S214403F807B68FA681A60002318461037BD4680BD25
S214403F90993E400080B487B000AF78603960002317
S214403FA07B613B681B683B613B685B6803F00F03C3
S214403FB03A68927A520213433A68928A13433A68AE
S214403FC0927D120413433A68D27D520413433A68F2
S214403FD0127E920413433A68128913437B617A68CF
S214403FE03B6910335B0113447A691A603B68DA68B0
S214403FF079683B6910335B010B4404331A603B68B5
S2144040001A6979683B695B010B4403F503731A60D0
S2144040103B689B7D002B0DD03B689B8B1B041A4650
S2144040203B685B8B1A4379683B695B010B4403F53D
S21440403006731A607B689A6C4FF001113B6901FA6F
S21440404003F3DB4313407B613B689B7F1A463B6927
S2144040509A403B68DB7F19463B6901FA03F31B0431
S21440406013431A467B6913437B617B687A699A647B
S2144040707B685A6C4FF001113B6901FA03F3DB434E
S21440408013407B613B6893F820301A463B699A4060
S2144040903B6893F8213019463B6901FA03F31B0449
S2144040A013431A467B6913437B617B687A695A647B
S2144040B001223B6902FA03F3FB603B6893F8223027
S2144040C0002B06D07B681A6AFB681A437B681A6224
S2144040D006E07B681A6AFB68DB431A407B681A6214
S2144040E03B6893F82430012B09D17B689B6E0121F5
S2144040F03A6901FA02F21A437B689A6609E07B68DD
S2144041009B6E01213A6901FA02F2D2431A407B685B
S2144041109A663B6893F82530012B0AD17B689B6EE4
S21440412001213A6901FA02F212041A437B689A6640
S2144041300AE07B689B6E01213A6901FA02F212049A
S214404140D2431A407B689A660023BB603B69DB001B
S2144041503B617B68DB6EBB60FF223B6902FA03F380
S214404160DB431A46BB681340BB603B6893F823307A
S2144041701A463B6902FA03F31A46BB681343BB6010
S2144041807B68BA68DA663B681B683B610023184662
S2144041901C37BD4680BC704780B483B000AF7860A3
S2144041A0396001223B6802FA03F31A467B685A607C
S2144041B000BF0C37BD4680BC704780B483B000AFAC
S2144041C07860396001223B6802FA03F31A467B683E
S2144041D09A6000BF0C37BD4680BC704780B487B03D
S2144041E000AFF860B9607A60FB681B6A7B617B69E8
S2144041F023F470037B617B685B0503F46002BB6855
S21440420013437A6913437B61FB687A691A6200BF7D
S2144042101C37BD4680BC704780B483B000AF786022
S21440422039607B683A685A6300BF0C37BD4680BC2D
S214404230704780B487B000AFF860B9607A60FB68BA
S2144042401B6A7B617B6923F440337B617A69BB6878
S21440425013437B61FB687A691A627B6803F00F023E
S214404260FB68DA62002318461C37BD4680BC7047A0
S21440427080B483B000AF78607B681B6C18460C3700
S214404280BD4680BC704780B485B000AF786039606A
S2144042900023FB607B68AC221A603B681A683B6868
S2144042A05B68B2FBF3F31B09FB60FB68002B03D093
S2144042B0FB68B3F5803F01D301230FE07B68FA68C3
S2144042C01A623B689A687B685A607B6840F20222B2
S2144042D0C3F820217B6850221A6000231846143702
S2144042E0BD4680BC704780B483B000AF78607B68C2
S2144042F050221A6000BF0C37BD4680BC704780B461
S21440430083B000AF786039607B683A689A6000BFD7
S2144043100C37BD4680BC704780B483B000AF786031
S2144043207B685B6918460C37BD4680BC704780B4D6
S21440433083B000AF78607B684FF480721A6000BF2D
S2144043400C37BD4680BC704780B483B000AF786001
S2144043507B685B6903F40073002B14BF01230023C2
S214404360DBB218460C37BD4680BC704780B483B07D
S21440437000AF78607B685B6903F00103002B14BFD5
S21440438001230023DBB218460C37BD4680BC70477D
S21440439080B483B000AF78600B46FB707B685B6987
S2144043A003F00203002B01D1012303E0FA787B6877
S2144043B0DA61002318460C37BD4680BC704780B48F
S2144043C083B000AF786039607B685B6903F00103B7
S2144043D0002B01D1012305E07B689B69DAB23B687C
S2144043E01A70002318460C37BD4680BC7047000044
S2144043F080B483B000AF0346FB7197F90730002BBB
S2144044000BDB084997F907305B09FA7902F01F027F
S214404410012000FA02F241F8232000BF0C37BD46C7
S21440442080BC704700E100E080B483B000AF034634
S2144044303960FB7197F90730002B0ADB0D4997F975
S21440444007303A68D2B21201D2B20B4483F8002346
S2144044500AE00949FB7903F00F03043B3A68D2B2FD
S2144044601201D2B20B441A7600BF0C37BD4680BC50
S214404470704700BF00E100E000ED00E080B483B08C
S21440448000AFEFF310837B607B68002B0CBF0123EB
S2144044900023DBB23B6072B6BFF35F8F044B002253
S2144044A01A703B6818460C37BD4680BC704700BF44
S2144044B0FC00002080B483B000AF78607B68002B9F
S2144044C014BF01230023DBB218460C37BD4680BC20
S2144044D07047000080B582B000AF78607868074BC0
S2144044E098470346002B05D0054B01221A70BFF3B0
S2144044F05F8F62B600BF0837BD4680BDB5444000FA
S214404500FC00002080B584B000AF0346FB71FB7909
S2144045100A4AD35CFF2B00D1FEE7094B9847F86068
S214404520FB79064AD25C0132D1B2044AD154F868CB
S214404530044B984700BF1037BD4680BD1C1C00206A
S2144045407D444000D544400080B584B000AF03466B
S214404550FB71FB790A4AD35C002B00D1FEE7094B7E
S2144045609847F860FB79064AD25C013AD1B2044AD1
S214404570D154F868044B984700BF1037BD4680BDFD
S2144045801C1C00207D444000D544400080B582B0CD
S21440459000AF0346FB71FB7983F00103DBB2002BCF
S2144045A006D00D4B1B78002B02D002200B4B9847B1
S2144045B0FB79002B09D0084B1B7883F00103DBB254
S2144045C0002B02D00220064B9847034AFB79137013
S2144045D000BF0837BD4680BDC81B00204945400087
S2144045E00545400080B500AF634B9847034683F0CF
S2144045F00103DBB2002B0CD0604BDB6903F4807305
S214404600002B06D172B6BFF35F8F5D4B00221A7047
S214404610B1E022205B4B9847584B9B6903F40063FC
S214404620002B0CD0554BDB6903F40063002B06D0FF
S214404630524B4FF400621A62534B984799E0534BE3
S21440464098470346002B40F09180514B98470346CD
S214404650002B40F08D80494B9B6903F40053002BA0
S21440466005D0464BDB6903F40053002B17D1434B70
S2144046709B6903F40073002B05D0404BDB6903F4C1
S2144046800073002B0BD13D4B9B6903F48063002BDA
S2144046901DD03A4BDB6903F48063002B17D0374BB1
S2144046A04FF418521A62354B4FF418525A61012093
S2144046B0384B9847314B4FF480721A622F4B4FF469
S2144046C080721A612D4B4FF400621A6151E02B4BF9
S2144046D09B6903F48073002B20D0284BDB6903F4DE
S2144046E08073002B1AD0254B4FF480721A62234BEE
S2144046F04FF480725A61214B4FF400521A611F4B9F
S2144047004FF400721A611D4B4FF480621A612220EA
S214404710214B984700201F4B98472AE0174BDB69F0
S21440472003F48053002B25D0144B4FF480521A626A
S2144047301A4B98471A4B9847104A104B5B6823F021
S214404740010353600D4A0D4B5B6823F00203536030
S214404750144B9847144B9847084B4FF480721A6195
S214404760064B4FF400621A6100BF02E000BF00E053
S21440477000BF00BF00BF80BD157A40000040034028
S214404780FC000020A9784000353140009D5940008B
S2144047909D6040008D45400029794000ED5A40001C
S2144047A0E1304000F9514000A152400080B582B04F
S2144047B000AF124B984778602220114B9847114B18
S2144047C0984705212220104B984722200F4B9847A8
S2144047D00F4B98474FF480200E4B98470E4B0022C5
S2144047E01A7000200D4B98470D4B984778680D4B34
S2144047F0984700BF0837BD4680BD00BF7D44400097
S214404800A9784000A96F400029444000F143400089
S214404810455A4000E9794000C81B00200545400045
S21440482029484000D544400080B582B000AF184BC0
S214404830984778600120174B98472220164B984798
S214404840164A164B5B6F23F480735367134A134B19
S2144048505B6F43F400735367104B4FF480721A61DA
S2144048600E4B4FF400521A610C4B4FF400721A6113
S2144048700A4B4FF480621A61084B4FF400621A618B
S2144048807868074B984700BF0837BD4680BD00BFD5
S2144048907D4440008D454000A978400000400340DC
S2144048A0D544400080B400AF00231846BD4680BCC7
S2144048B07047000080B483B000AF0346FB71154AD2
S2144048C0144B5B6823F001035360124A114B9B68FC
S2144048D023F480739360FB79002B15D00D490D4B64
S2144048E09B6823F07F02FB7903F07F0313438B60C2
S2144048F0084A084B9B6843F480739360054A054B0F
S2144049005B6843F00103536000BF0C37BD4680BC74
S214404910704700BF0040034080B400AF084B5B6860
S21440492003F00103002B06D0054B9B68DBB203F077
S2144049307F03DBB200E000231846BD4680BC7047CC
S2144049400040034080B400AF044B1B689BB2C3F3E7
S2144049500A039BB21846BD4680BC704700400340E1
S21440496080B400AF00231846BD4680BC70470000A8
S21440497080B483B000AF78600B467B80054A7B6886
S2144049809360044A7B88938100BF0C37BD4680BC49
S214404990704700BF241C002080B487B000AF034699
S2144049A0FB710B46BB711346BB80FB7903F080035B
S2144049B0002B14BF01230023FB75BB7903F00303D0
S2144049C0012B0CBF01230023BB75FB7903F00F03BB
S2144049D0FB71FB79032B01D90023CAE0674AFB79B8
S2144049E00C3352F8233003F40043002B01D000234D
S2144049F0BFE0BB7D002B07D0FB79002B02D0FB79B4
S214404A00032B01D10023B4E0BA88FB79042B02D0F3
S214404A10FB79052B02D14FF4007300E040239A4205
S214404A2001DD0023A5E0FB795A1E13469B00134484
S214404A309B00534A13443B61BB88C3F3090399B2B6
S214404A403A69138A61F3090313823A69537C6FF318
S214404A50C71353743A69537C6FF345135374FB7D05
S214404A60002B04D03A69537C6FF383035374434955
S214404A70424B9A6AFB79012000FA03F313438B6298
S214404A8000BF3E4B9A6AFB79012101FA03F31340BB
S214404A90002BF6D03949394B9A6AFB79012000FA47
S214404AA003F3DB4313408B62344AFB790C3352F8F2
S214404AB02330FB60FB6843F04F03FB60FB6823F446
S214404AC0074323F08003FB60FB7D002B0DD0BB79B2
S214404AD01B0203F4407343F4806303F4E06343F43F
S214404AE0004248F28073134008E0BB791B0203F48F
S214404AF0407343F4004248F280731340FA6813430D
S214404B00FB601E49FB79FA680C3341F8232000BF4E
S214404B101A4AFB790C3352F82320FB7D002B0AD02F
S214404B20BB791B0203F4407343F4806303F4E063F1
S214404B3043F4004305E0BB791B0203F4407343F49F
S214404B4000431A40FB7D002B0AD0BB791B0203F4BE
S214404B50407343F4806303F4E06343F4004305E0AA
S214404B60BB791B0203F4407343F400439A42CFD10F
S214404B70012318461C37BD4680BC704700400340A2
S214404B80D01B002080B584B000AF0346FB71FB7994
S214404B9003F00F03FB73FB7B032B22D8134AFB7BEC
S214404BA00C3352F82330BB60BB6843F04F03BB6006
S214404BB0BB6823F40043BB600C49FB7BBA680C33EC
S214404BC041F8232000BF094AFB7B0C3352F82330C0
S214404BD003F40043002BF6D1FB791846044B984764
S214404BE000E000BF1037BD4680BD00BF0040034018
S214404BF0315B400080B485B000AF0346FB71FB7963
S214404C0003F00F03FB73FB7B5A1E13469B001344B3
S214404C109B00124A1344BB60FB7B032B01D9002345
S214404C2017E0BB685B7C03F02003DBB2002B0AD1A5
S214404C300B4AFB7903F00F030C3352F8233003F092
S214404C402803002B01D0012300E0002303F00103DA
S214404C50DBB218461437BD4680BC7047D01B0020D8
S214404C600040034080B586B000AF0346FB71FB7939
S214404C7003F08003002B14BF01230023FB75FB7950
S214404C8003F00F03BB75BB7D5A1E13469B001344AF
S214404C909B002D4A13443B61BB7D032B01D9002367
S214404CA04DE02A4B9847F860FB7D002B1FD0284AE2
S214404CB0BB7D0C3352F8233003F01003002B06D193
S214404CC03B695B7CC3F38103DBB2012B0FDD3A69A2
S214404CD0537C43F0200353741D4ABB7D012101FAE7
S214404CE003F31361F8681B4B9847012327E0184AE3
S214404CF0BB7D0C3352F82330BB60BB6843F04F0398
S214404D00BB60BB6843F02003BB601149BB7DBA68FB
S214404D100C3341F8232000BF0D4ABB7D0C3352F8BC
S214404D20233003F02003202BF6D1094ABB7D012116
S214404D3001FA03F31361F868064B984701231846B7
S214404D401837BD4680BD00BFD01B00207D444000C4
S214404D5000400340D544400080B586B000AF0346CF
S214404D60FB71FB7903F00F03FB71FB79032B01D931
S214404D7000237FE0FB795A1E13469B0013449B009A
S214404D803E4A13447B617A69537C6FF345135374F0
S214404D903B4AFB790C3352F8233003F02003002BB8
S214404DA067D0374AFB790C3352F823303B613B6976
S214404DB043F04F033B613B6923F020033B6130499E
S214404DC0FB793A690C3341F8232000BF2C4AFB7923
S214404DD00C3352F8233003F02003002BF6D1284939
S214404DE0274B9A6AFB79012000FA03F313438B6240
S214404DF000BF234B9A6AFB79012101FA03F3134063
S214404E00002BF6D01E491E4B9A6AFB79012000FA09
S214404E1003F3DB4313408B62194AFB790C3352F899
S214404E202330FB60FB6843F04F03FB60FB6823F0D6
S214404E300803FB601249FB79FA680C3341F82320DB
S214404E4000BF0F4AFB790C3352F8233003F00803B7
S214404E50002BF6D17B695B7C03F01003DBB2002BA2
S214404E6007D07A69537C6FF3041353747B691B68CD
S214404E709847012318461837BD4680BDD01B0020F2
S214404E800040034080B588B000AFBA607B60034600
S214404E90FB730B46BB73FB7B03F08003002B14BFF6
S214404EA001230023FB77FB7B03F00F03FB73FB7BA5
S214404EB0032B01D9002383E0FB7B5A1E13469B003D
S214404EC013449B00404A1344BB61404AFB7B0C336F
S214404ED052F8233003F40043002B0FD0BB695B7CB1
S214404EE003F02003DBB2002B08D1384AFB7B0C339F
S214404EF052F8233003F02003002B01D000235FE05C
S214404F00334B98477861BB695B7C03F01003DBB298
S214404F10002B04D078692F4B9847002350E0BA699D
S214404F20537C43F01003537478692A4B9847BB6907
S214404F30BA685A60BB697A689A60BB690022DA60D0
S214404F40BB69BA6A1A60BB7B002B02D17B68002B18
S214404F5001D1012300E00023DBB203F00103D9B204
S214404F60BA69537C61F386135374BA69537C6FF302
S214404F70C7135374164B98477861144AFB7B01213C
S214404F8001FA03F31361FB7F002B15D00F4AFB7B1E
S214404F900C3352F8233003F01103002B0CD1FB7B6B
S214404FA0012118460C4B98470346002B04D0FB7B48
S214404FB000211846084B98477869064B98470123C6
S214404FC018462037BD4680BDD01B00200040034019
S214404FD07D444000D5444000895E400080B588B09E
S214404FE000AF0346FB71FB7903F08003002B14BF30
S214404FF001230023FB77FB7903F00F03FB71FB795A
S214405000032B00F2E980764B9847B861754AFB79E6
S214405010012101FA03F35361B869734B9847FB7F4C
S214405020002B00F0AE806F4AFB790C3352F82330E9
S21440503003F01003002B73D0FB79002B52D0FB7982
S214405040032B4FD0674AFB790C3352F823307B61F1
S2144050507B6943F04F037B617B6923F010037B61E0
S2144050606049FB797A690C3341F8232000BF5D4ADA
S214405070FB790C3352F8233003F01003002BF6D1A3
S21440508000BF584AFB790C3352F8233003F0100324
S214405090002BF6D1534AFB790C3352F823303B6150
S2144050A03B6943F04F033B613B6943F010033B6170
S2144050B04C49FB793A690C3341F8232000BF494AF2
S2144050C0FB790C3352F8233003F01003102BF6D143
S2144050D000BF444AFB790C3352F8233003F01003E8
S2144050E0002BF6D03F4AFB790C3352F82330FB6056
S2144050F0FB6843F04F03FB60FB6823F01003FB6044
S2144051003849FB79FA680C3341F8232000BF354A0A
S214405110FB790C3352F8233003F01003002BF6D102
S214405120304AFB790C3352F82330BB60BB6843F0FF
S2144051304F03BB60BB6823F00103BB602949FB7982
S214405140BA680C3341F8232000BF264AFB790C335B
S21440515052F8233003F00103002BF6D1FB795A1E98
S214405160224913469B0013449B000B4403F1100254
S21440517053786FF3830353700CE0FB7918461C4B4F
S2144051809847184AFB790C3352F8233003F0420311
S214405190002BF2D11349134B9A6AFB79012000FA8F
S2144051A003F313438B6200BF0E4B9A6AFB790121CF
S2144051B001FA03F31340002BF6D00A49094B9A6ACA
S2144051C0FB79012000FA03F3DB4313408B62FB7943
S2144051D01846084B984700E000BF2037BD4680BDC4
S2144051E07D44400000400340D5444000D01B002092
S2144051F0E15B4000315B400080B584B000AF254A9B
S214405200244B9B6843F480739360224A214B9B68EF
S21440521023F07F0393601F4B1B6BBB60BB6843F060
S2144052204F03BB60BB6823F4074323F08003BB6097
S214405230BB6843F40043BB60164ABB68136300BFB9
S214405240144B1B6B03F40043B3F5004FF8D1114BDE
S2144052501B6B7B607B6843F04F037B607B6843F44B
S21440526000437B600B4A7B68136300BF094B1B6B94
S21440527003F40043B3F5004FF8D1074B9847F86066
S214405280044B01221A61F868044B984700BF103758
S214405290BD4680BD004003407D444000D5444000AC
S2144052A080B400AF074B00221A61064B00225A61B9
S2144052B0044B00229A81044B00221A7000BFBD4660
S2144052C080BC7047241C0020C91B002080B586B0D7
S2144052D000AF634B1B78002B03D0624B9847624B62
S2144052E09847624B1B6B1B0CC3F30A03082B17D063
S2144052F05E4B1B6B3B613B6943F04F033B613B6935
S21440530023F004033B61594A3B69136300BF574B84
S2144053101B6B03F00403002BF9D1554B98479BE0D9
S2144053200023FB7509E0FB7D524A13444F4A126D39
S214405330D2B21A70FB7D0133FB75FB7D072BF2D989
S2144053404C4B5A884B4B5A804A4B9A88494B9A80CA
S214405350484BDA88474BDA80474B9847034683F0FA
S2144053600103DBB2002B17D0404B1B6BFB60FB6886
S21440537043F04F03FB60FB6823F00403FB603B4AAB
S214405380FB68136300BF394B1B6B03F00403002B11
S214405390F9D1374B98475FE0364B1B785BB2002B12
S2144053A035DA324B1B6BBB60BB6843F04F03BB60C8
S2144053B0BB6843F08003BB602C4ABB68136300BFE6
S2144053C02A4B1B6B03F08003802BF9D1274B1B6BBA
S2144053D07B607B6843F04F037B607B6823F004036D
S2144053E07B60224A7B68136300BF204B1B6B03F035
S2144053F00403002BF9D1214B00221A80204B0022B7
S2144054001A80174B02221A701E4B984724E0174BFF
S2144054101B6B3B603B6843F04F033B603B6823F0AD
S21440542004033B60114A3B68136300BF0F4B1B6B82
S21440543003F00403002BF9D10E4BDB88002B02D17E
S214405440114B984708E00D4B00221A800C4B002267
S2144054501A80034B01221A701837BD4680BD00BF24
S214405460C91B002081594000A15240000040034023
S214405470D9584000241C002085394000CA1B002013
S214405480CC1B00208D5440002159400080B588B088
S21440549000AF714B1B78032B19D1704B1B6B3B61D4
S2144054A03B6943F04F033B613B6923F001033B619B
S2144054B06A4A3B69136300BF684B1B6B03F00103EA
S2144054C0002BF9D1664B9847664B9847C1E0664B30
S2144054D09A89664B1B88D31AFB83FB8B002B3CD1E7
S2144054E0634B1A88614B1B8813449AB2604B1A80F0
S2144054F05D4BDA885E4B1B889A4203D05D4B1B7827
S214405500002B17D05C4B9847544B1B6BFB60FB68DB
S21440551043F04F03FB60FB6823F00103FB604F4AF8
S214405520FB68136300BF4D4B1B6B03F00103002B5E
S214405530F9D18EE04C4B5B69002B0ED04A4B5B6931
S2144055409847034683F00103DBB2002B05D1474B57
S21440555000221A80444B9B89FB83FB8B3F2B05D94B
S2144055604023FB83434B00221A7002E0414B01224A
S2144055701A703D4B9B683D4A12881344BB613F4BB3
S21440558098477861354B1B6B03F00203002B1BD00A
S21440559078693B4B9847304B04221A702F4B1B6B55
S2144055A0BB60BB6843F04F03BB60BB6823F001039E
S2144055B0BB602A4ABB68136300BF284B1B6B03F0D3
S2144055C00103002BF9D144E000237B7708E0234910
S2144055D0BB695A1CBA611B780B657B7F01337B77AE
S2144055E07B7F9BB2FA8B9A42F1D8204B1A88FB8B72
S2144055F013449AB21D4B1A80184B1B6B7B607B681A
S21440560043F04F037B607B6843F010037B60134A94
S2144056107B68136300BF114B1B6B03F01003102B0A
S214405620F9D10E4B1B6B3B603B6843F04F033B602E
S2144056303B6823F001033B60084A3B68136300BFA6
S214405640064B1B6B03F00103002BF9D178690C4B1A
S21440565098472037BD4680BDC91B00200040034008
S21440566081594000A1524000241C0020CC1B002041
S214405670CA1B00200C1C0020695940007D44400095
S214405680D544400080B588B000AF8A4B1B78012BCC
S21440569024D0884B1B78022B03D0864B1B78042BD8
S2144056A002D1854B984701E0844B9847844B1B6B4F
S2144056B07B617B6943F04F037B617B6923F0020388
S2144056C07B617F4A7B69136300BF7D4B1B6B03F096
S2144056D00203002BF9D17B4B9847E7E0784B1B6BD6
S2144056E01B0C9BB2C3F30A03BB83774B9B891A46BA
S2144056F0764B1B881946BB8B0B449A4205DA724B95
S2144057009A89724B1B88D31ABB836F4B9B686F4A30
S21440571012881344BB610023FB7709E0BB695A1C1F
S214405720BA61674A126DD2B21A70FB7F0133FB77BB
S214405730FB7F9BB2BA8B9A42F0D8644B1A88BB8BDD
S21440574013449AB2614B1A80BB8B402B0AD15E4BF6
S214405750DB881A465E4B1B8819465C4B1B880B44FD
S2144057609A4240DC594B1A88574B9A81564B5B6994
S214405770002B20D0544B5B699847034683F00103C7
S214405780DBB2002B17D04D4B98474D4B1B6B3B6104
S2144057903B6943F04F033B613B6923F002033B61A7
S2144057A0474A3B69136300BF454B1B6B03F002033C
S2144057B0002BF9D17AE0424B1B6BFB60FB6843F051
S2144057C04F03FB60FB6823F00203FB603C4AFB6828
S2144057D0136300BF3A4B1B6B03F00203002BF9D157
S2144057E03C4B984762E0384B9A89384B1B889A4224
S2144057F047D1354B5B69002B17D1304B9847304B20
S2144058001B6BBB60BB6843F04F03BB60BB6823F0B9
S2144058100203BB602A4ABB68136300BF284B1B6B5E
S21440582003F00203002BF9D140E0274B5B69984711
S214405830034683F00103DBB2002B17D01F4B98477B
S2144058401F4B1B6B7B607B6843F04F037B607B6822
S21440585023F002037B601A4A7B68136300BF184B31
S2144058601B6B03F00203002BF9D11FE0184B1A887C
S214405870164B1B8813449AB2154B1A80134B0022C2
S2144058801A800F4B1B6B3B603B6843F04F033B60FB
S2144058903B6823F002033B60094A3B68136300BF42
S2144058A0074B1B6B03F00203002BF9D12037BD4694
S2144058B080BD00BFC91B002081594000D958400018
S2144058C000400340A1524000241C0020CC1B002076
