S00E000061726D2D66772E73726563CC
S214400000F84D0020213D40001D3D40001D3D400074
S2144000101D3D40001D3D40001D3D400000000000CD
S2144000200000000000000000000000001D3D4000F1
S2144000301D3D4000000000001D3D4000313F400097
S2144000401D3D40001D3D40001D3D40001D3D400003
S2144000501D3D40001D3D40001D3D4000000000008D
S2144000601D3D4000AD3F400000000000A11E400086
S214400070B11E4000000000001D3D40001D3D4000F8
S21440008000000000000000001D3D40001D3D4000F7
S2144000901D3D40001D3D40001D3D40001D3D4000B3
S2144000A01D3D40001D3D40000000000000000000D7
S2144000B0000000004D3F40001D3D4000653F4000B1
S2144000C01D3D40001D3D40001526400010B5054C26
S2144000D0237833B9044B13B10448AFF300800123AF
S2144000E0237010BD38050020000000003C5440003E
S2144000F00C4B43B10C480D4910B5AFF300800C488B
S214400100036823B910BD0A48036833B97047094BE2
S214400110002BF7D0BDE810401847064B002BF5D013
S214400120184700BF000000003C5440003C0500203B
S2144001303C5440000000000013B50446074B012025
S2144001409847227C637CA17B04F112000090013228
S2144001502068034CD2B2A04702B010BD59054000FB
S214400160D935400013B50446074B00209847227CFB
S214400170637CA17B04F11200009001322068034C9E
S214400180D2B2A04702B010BD59054000D935400054
S2144001901FB5437C042B04460FD001238DF80F3047
S2144001A0227CA17B0DF10F030093013220680B4C9B
S2144001B00123D2B2A04704B010BD00238DF80F3003
S2144001C0017D437D01EB0321C37C807C00EB032053
S2144001D089B280B2024B9847E2E700BFD93540006B
S2144001E03905400073B504461F4B204E9847227C85
S2144001F0A17B00900132054601232068D2B2B04769
S214400200227CA17B2068AB1C01320093D2B208232B
S214400210B047227CA17B206805F10C030132009395
S214400220D2B28C23B047227CA17B206805F198038C
S21440023001320093D2B28C23B047227CA17B206847
S21440024005F5927301320093D2B28C23B047227CDC
S214400250A17B206805F5D875013200958C23D2B273
S214400260B04702B070BD00BFA9054000D935400078
S2144002701FB504AC012304F8013D027C817B009449
S2144002801A44D2B20068024CA04704B010BD00BF6A
S214400290D9354000004B18477102400013B5074B54
S2144002A004469847227CA17B009001322068044C8B
S2144002B00823D2B2A04702B010BD00BFBD05400023
S2144002C0D93540001FB50446807C002364288DF84D
S2144002D00F300FD901238DF80F30227CA17B0DF112
S2144002E00F03009301322068044C0123D2B2A0478A
S2144002F004B010BD024B9847EFE700BFD935400029
S2144003001906400030B589B001238DF80830022325
S2144003108DF8093053238DF80A3065238DF80B305D
S214400320702331228DF80C3020238DF80D308DF857
S2144003300E208DF810308DF8142032238DF81620BC
S2144003408DF81C203321027C8DF80F108DF811306B
S2144003508DF8133000218DF81A308DF81D30372473
S21440036002AB8DF815108DF817408DF81E103A2404
S214400370817B0093013230258DF818408DF81B4064
S2144003801723D2B20068044C8DF812508DF81950DD
S214400390A04709B030BD00BFD935400013B5027C38
S2144003A0437C817B00F1120400940132D2B2006893
S2144003B0014CA04702B010BDD935400013B500F13E
S2144003C01003817B00930F2201230068014CA04755
S2144003D002B010BDD935400038B510220F4D104838
S2144003E00021A8474FF41C6200210E48A8470E4B38
S2144003F00E4800241C605C604FF438722146A847C3
S214400400CC2221460A48A8470A480B4B98470B4B34
S2144004100B4898470B4B1C6038BD00BF1D50400032
S214400420D412002008090020CC12002058050020D5
S21440043038080020E8120020E90E4000590F40001E
S21440044078170020C812002010B51548154B98475D
S214400450154B164912489847154B1A78154B1A8073
S2144004605A80154B5A88B2F5A06F144A0FD1012115
S214400470117011784FF4B87202FB01314B88B3F516
S214400480A06F0BD209480E4BBDE810401847B3F892
S2144004907211B1F5A06FECD10021E9E710BD00BFA5
S2144004A0D41200201D0B4000790D400008090020A2
S2144004B00A000020C81200205805002054050020DD
S2144004C07909400010B5134B1B780BB3124843888C
S2144004D0B3F5A06F13D11149114B984711490F48F6
S2144004E0114B98470F4C63890F2B11D120460F4B69
S2144004F00F49984720460F4BBDE810401847B0F8C4
S2144005007231B3F5A06FEDD1044900F5B870E3E75A
S21440051010BD00BFCC12002058050020380800202F
S214400520250A4000E8120020690F400009104000EC
S21440053078170020E90E4000044B4FF41C625880A8
S21440054099800348034B0021184700BFCC12002077
S214400550080900201D5040002DE9F0410D4B0E4C7F
S2144005600E4F0F4E054698470E4B17201D704DB147
S214400570A0470120B8471D20B04701203346BDE8BC
S214400580F0411847B0472846B8471D20A0470120ED
S2144005902346F4E7D9034000B53940002907400018
S2144005A0CF394000CC120020004870477817002012
S2144005B0014B1878704700BFCC12002000487047A7
S2144005C0CC12002010B5114B8C889A8894421EBFDE
S2144005D0027842F0010202705A884C8894421EBF4C
S2144005E0027842F0020202701A780C7894421EBFDB
S2144005F0027842F0040202709B798A799A421EBFC2
S214400600037843F00803037010BD00BFCC120020EF
S21440061000487047C8120020014B1870704700BF52
S2144006200A0000202DE9F043314A324C1368324E1E
S214400630DFF8F09043F0200385B013604FF0006180
S2144006400220A0474FF000611E20A0474FF0805187
S2144006502520A0474FF000610020A047274B284C9C
S2144006601F20984730460221A04730460021A04729
S214400670244B0193244B254C0393002501A9304677
S214400680234B029598470B2363606423012723611D
S2144006904FF002080523214630466383A383258115
S2144006A0E560A57284F82270A775A577E57784F88B
S2144006B0205084F82150C4F80080C8472146304670
S2144006C02560C8473A464FF400313046114B9847AC
S2144006D03A4629463046104B9847414630460F4BDF
S2144006E09847294630460E4B984705B0BDE8F083FC
S2144006F014030E40E939400000000240593C4000D7
S2144007003720400040420F00000E2707B419002053
S2144007100D1F400059204000412040005520400019
S2144007202D204000511F4000704700002DE9FF413A
S214400730384B394E394D3A4C3A4FDFF818814FF422
S21440074000425A60384B98470B20B0470C20B047C1
S2144007504FF020524FF0FF312846B8474FF0205216
S2144007604FF0FF312046B847284600224FF0FF3171
S214400770C047204600224FF0FF31C047284600229F
S2144007802A4DDFF8D4804FF0FF31A847002220469C
S2144007904FF0FF31A847264D4FF040511720A8474D
S2144007A01720C0474FF040511020A8471020C047A0
S2144007B04FF060511D20A847DFF8A0801D20C0479D
S2144007C04FF060510120A8470120C047194B0193C4
S2144007D0194B02934FF000624FF40C630C212046F5
S2144007E00393A4F50064B8470920B04701A9204602
S2144007F0124B98472046124B984701212046114BF2
S2144008009847114B9847114B9847114B984704B05F
S214400810BDE8F08150140E40593C4000000E0E409A
S21440082000100E40993A400065384000C5384000F8
S214400830E9394000000E27071C4E0E00712040008C
S214400840A5204000AB204000B10B400025064000EC
S214400850AD1840009F394000CF394000B5394000C0
S2144008602DE9F041DFF838800A4E03241020C047B7
S2144008701720C047084D094F3046A8471020B847B4
S2144008801720B847013C3046A84714F0FF04EDD186
S214400890BDE8F0818AB2200001000020CF39400038
S2144008A0B5394000224B44F63D125A60214AF021A9
S2144008B082F8231000229A6007221A600B444FF4F5
S2144008C00072C3F88020BFF34F8FBFF36F8F202195
S2144008D0C3F8802183F809131A604FF00052C3F81A
S2144008E08020BFF34F8FBFF36F8F1021C3F8802156
S2144008F083F81D131A604FF40062C3F88020BFF3DC
S2144009004F8FBFF36F8F3021C3F8802183F80B13CE
S2144009101A604FF00042C3F88020BFF34F8FBFF3FA
S2144009206F8F4021C3F8802183F81F131A607047E9
S21440093010E000E000ED00E0014B01201870704729
S214400940DC190020014B00221A707047DC19002089
S214400950024B1B780BB1024B18477047DC1900203E
S214400960AD364000102009B1014B1847014BFCE75B
S214400970B5394000CF3940002DE9F0474B88013368
S2144009809BB2012B04460D464B8001F1040A03D06E
S21440099051462846204B9847204B984751460822B8
S2144009A01F4B9847294604F5047005F5B07C50E97E
S2144009B00245D1E9042312196B41C1E9042301F130
S2144009C0500E05460C462B686A684FEA934848EA3C
S2144009D082384FEAA249D4E9062312EB080243EBD9
S2144009E00903C4E90623AB68EA689E0C46EA8236E9
S2144009F09714D4E9082392197B41C4E9082310349C
S214400A00744505F11005DED15831614500F51C707E
S214400A10CDD1BDE8F08700BFC5054000BD0540000C
S214400A20ED3640002DE9F04F054610F8043B354FB3
S214400A30DFF8E4A085B00C46082201F8023B324BB2
S214400A40984705F5B0732E460393306971696A88F6
S214400A50C009002340EA4160C911B8472B4BCDE995
S214400A6000019847D0472A4B9847B146E0604FF080
S214400A7000086A88D9E906010023B84704EB080B4A
S214400A800023CBF81400D9E908016A88B84708F172
S214400A900808B8F1280FCBF8180009F11009E8D17A
S214400AA0236AE2695B43DDE9008902FB02325210A9
S214400AB0B8EB02084FEAE27369EB0309B8F1000F9E
S214400AC079F1000110DA00232382039B58369E42B8
S214400AD004F13004B9D10F4B4FF4B87200212846C8
S214400AE005B0BDE8F04F18474FEA09614FEA086085
S214400AF041EA1821B847054B9847D047044B9847DA
S214400B002082E2E70D4B4000ED36400001454000B4
S214400B10BD4A40001D504000B53F40002DE9F84F0B
S214400B201F4B204E204D80469847A8F1040A814628
S214400B3008F10C083446DFF874B02878D847B9F87E
S214400B40023083FB0001070A307847EA0167D8473E
S214400B50B9F802300A22B3FBF2F383FB0001030A22
S214400B6043EA01631F444AF8047FC245E3D1322278
S214400B70B9F80430B3FBF2F32A8831881A4492B2AB
S214400B8003EB43037F2A0B449BB22A8084BF803A00
S214400B902A807F2B338084BF803B2380BDE8F88F3C
S214400BA0BD054000E0190020DE190020A1374000B6
S214400BB02DE9F0410E220021384B3948394C3A4D48
S214400BC098473A4B1D2098474FF48023384A394976
S214400BD03948A047012319464FF440123648374C4F
S214400BE0A0473548364B9847042236493248364B5C
S214400BF098473148354B98470024E1B22E48013497
S214400C00A847042CF9D12F4D254B2B48304F314E59
S214400C102C46033514F801291A702F4B98470022AA
S214400C2061782548B84714F8011F2348B047AC42BE
S214400C30F5D12148294B204C294D98471E48A847B6
S214400C400302FBD50022274B1B4811469847D4F891
S214400C500431BBB9D4F81431A3B9234BC4F80031DE
S214400C600423C4F804310123C4F820314FF08051E6
S214400C7011481E4B9847002211460F481C4BBDE8B2
S214400C80F04118470C4BD3F81421002AEED1164AEF
S214400C90C3F810210422C3F81421E7E71D50400092
S214400CA0E2190020D91C4000B11D4000593C4000CC
S214400CB000A86100000E270700800340871D400003
S214400CC0BB1D40000B0000202F1D4000C51D4000EE
S214400CD0E91D4000CF1D4000A11D4000F91D400009
S214400CE0071E4000191D4000E6190020031E400064
S214400CF00B1D40000148024B184700BF00800340D0
S214400D00AB1D400010B5174C174B20469847C30004
S214400D101BD5164B0F229A81D4F80421B2B9D4F8C9
S214400D2014219AB90433C4F800310423C4F80431BA
S214400D300123C4F820310E4B03F108015A88C2F350
S214400D400B0223F8022F8B42F8D110BD054BD3F887
S214400D501421002AEFD1074AC3F810210422C3F811
S214400D601421E8E700800340071E4000E2190020F7
S214400D70E4190020E61900202DE9F74F8A46A0F135
S214400D80040B01F262244FF00009A4F15A06D6E99A
S214400D900001DBF8042034F8625C5243801841EBD3
S214400DA0E2719C22C6E9000102FB09F215445AF89A
S214400DB025707F43C01B61EBE771C6E900015AF816
S214400DC025005BF8041FA1EB000834F8620C0244CF
S214400DD0A4F152054AF8221034F8622C013292B23D
S214400DE07F2A88BF002224F8622CD5E900014FEA0A
S214400DF0C822801841EBE271C5E90001A4F14A021D
S214400E0000210020C2E90001234A9047A4F142078E
S214400E100090254601263221009B9888B0FBF1F0D1
S214400E2010FB06F080B23F2823D8B5F800E01B4BF5
S214400E300191704480B27F2888BF80382880287807
S214400E409847D7E90023001208FB00F0121843EB3E
S214400E50E073C7E90023124B28789847D7E9022366
S214400E60001208FB00F0121A63EBE073C7E9022396
S214400E7001990236B6B2092E05F1020507F11007B0
S214400E80CAD109F10109B9F1040F04F51C747FF4C5
S214400E907CAF03B0BDE8F08FBD054000AD374000E5
S214400EA0A137400030B5D1E900230468121943EB5E
S214400EB0E473C1E90023D1E902450268D31794429E
S214400EC075EB030EBCBF14461D46C1E90245D1E989
S214400ED004450268D317A24273EB0500BCBF144614
S214400EE01D46C1E9044530BD00232DE9F04343814A
S214400EF003708380C38000F590624FF000084FF087
S214400F00000900264FF000474FF0FF346FF00045D1
S214400F10C0E90489C0E90667C0E9084500F1F00168
S214400F200346C3E91089C3E91267C3E91445C3E918
S214400F301689C3E91867C3E91A4530339942F0D198
S214400F40C0E90A89C0E90C67C0E90E4500F5907013
S214400F508242DDD1BDE8F0834FF40F720021014B91
S214400F60184700BF1D5040002DE9F74F4B8901330D
S214400F709BB2012B06460C464B8101F1020503D07D
S214400F80294620461D4B98473046237810F8022BBA
S214400F90DFF87090134304F8103B29460822184B9C
S214400FA0984706F11405C846D43655F8083C2146FD
S214400FB05B4301A80193C84704F1300A05F1280BAA
S214400FC02F4651463846C0470AF11801381D0837A3
S214400FD0C047BB450AF1300AF3D135F9043C04F169
S214400FE018015B4301A830350193C047AE4204F573
S214400FF09074DAD103B0BDE8F08F00BFC50540005D
S214401000ED364000A50E40002DE9F04F824610F820
S214401010023B85B00C46082201F8023B3D4B984700
S214401020002355460193BAF80A203B4E3B4F002317
S214401030D5E90401B0473A4B3A4E9847B847B047CF
S214401040E060374BD5E906019847B847B04720617E
S214401050334BD5E908019847B847B04705F1F00348
S21440106060610393A146A846AB460296BAF80A20AA
S214401070294EDBE910010023B047C9F82000D8F814
S2144010804830C9F82430D8F85030C9F82830DBE961
S2144010901601BAF80A200023B047C9F82C00D8F841
S2144010A06030C9F83030D8F86830C9F83430039B1F
S2144010B008F1300843450BF1300B09F11809D5D13A
S2144010C0BAF80A20D5E90A010023B047144B9847DE
S2144010D0B847029B98472083D5E90C01104B9847A8
S2144010E0B847029B98476083D5E90E010C4B98475A
S2144010F0B847029B9847019BA0838C33B3F50C7F7F
S21440110005F5907504F18C0401938CD105B0BDE8CB
S214401110F08F00BFED3640000D4B4000B53F40001D
S21440112001454000BD4A400082B0EFF31083B3FA59
S21440113083F35B09019372B6BFF35F8F024B0022C5
S2144011401A70019802B07047F7000020024A1378E0
S214401150013BDBB213707047FB190020002070473C
S214401160002070477047000008B5064A1378013BD8
S214401170DBB213701078044B9847044B00221A7069
S21440118008BD00BFFC19002045094000F2190020A8
S21440119028B1034B01221A70BFF35F8F62B67047C7
S2144011A0F700002010B50F4B0F4C00202070188021
S2144011B00E4BA1221A7020225A7002229880DA80A2
S2144011C0588018810A4B4FF4E1321A600822187191
S2144011D058719A71074B984718B123780133DBB2A0
S2144011E0237010BD8A1A0020FB1900201C1B00200B
S2144011F0F4190020390940002DE9F04F364B85B0F0
S2144012001A780393002A5AD1344D354FA8473C8864
S21440121018B3344B9847844251D0334B334EDFF8A3
S214401220E880DFF8E8A09847314B1C78E4B2834664
S21440123036F814209946CAB9B8F800200132A8F802
S2144012400020A84758B9B8F80020632A07D858465F
S214401250534605B0BDE8F04F1847264BDAE7A84797
S21440126020B1B8F80020B2F5487FF0D3224B1B7867
S2144012700022A8F800202BBBB4FA84F35B0989F857
S2144012800030039A012358461370D04736F814307E
S214401290402B14BF4FF001084FF0000818D0A84765
S2144012A0A0B1104B98473880144A0092144A36F83A
S2144012B0143002EB841241468120124CA04705B000
S2144012C0BDE8F08FB4FA84F46409DAE7094BE9E73D
S2144012D000233B80E8E700BF181B0020A52E4000F7
S2144012E0161B0020092F400029114000101B00202B
S2144012F0141B0020F92E40008C1A002019134000C1
S214401300901A0020B5314000F0190020911140009D
S214401310004B1847F911400068B9074B074A1B783D
S214401320B3FA83F35B0922F81300054B1870054B9C
S2144013301870054B18477047141B0020101B0020E0
S2144013408C1A0020181B0020F911400008B5154BD8
S2144013501A7812F0800F02F060020CD0202A11D1C9
S2144013605A78212A0ED1DA88072A0BD10E4999607D
S2144013709A81012008BD202A04D15A78202A03D019
S214401380222A07D0002008BDDA88072AFAD1074962
S2144013901961EBE79978064B01F001010020984768
S2144013A0E7E700BF041C0020F41900206511400048
S2144013B06509400010B5084B9847084B084A1988FD
S2144013C0084B1B78DBB289B232F81340064B98477D
S2144013D0A4B2601A10BD00BF29114000861A002032
S2144013E0801A0020841A0020911140000020014BF2
S2144013F0184700BFB513400008B5034B9847003068
S21440140018BF012008BD00BFB5134000F7B51B4B01
S2144014101B4F1C4E98473C7833781B498446E4B2B1
S21440142003F0FF0553B9DFF87CE0184BBEF8002008
S21440143033F8143092B29BB29A4204D26046884740
S214401440002003B0F0BDB4FA84F35B09AEF8005058
S2144014503B7001233370884728460D4B984710B1A0
S21440146028460C4B98470C4A0C4B009302EB8412D0
S214401470402301210A4C0220A047E2E72911400000
S214401480841A0020881A002091114000801A0020FB
S214401490F913400051094000001A00202D15400065
S2144014A0B5314000861A002038B5134B134D002442
S2144014B02C701C70124B1C70124B1C70124B1C80F4
S2144014C05C80124B1C80124B9847124B1C70124B80
S2144014D01C70124B1C805C80114B1C80114B984733
S2144014E048B12B780133DBB22B702B78DBB2012B63
S2144014F004BF0D4A137038BD181B0020FC1900208D
S2144015008C1A0020141B0020101B0020161B0020E5
S214401510F9114000881A0020841A0020801A002002
S214401520861A00200D144000F219002013B5144608
S21440153078B90E4B1A78B2FA82F2520959B90C4968
S2144015400C4B009301EB82122046402301210A4CAB
S214401550A04702B010BD094B89B223F81210084BC1
S2144015601870084B02B0BDE810401847841A002097
S214401570001A00202D154000B5314000801A00208A
S214401580881A00200D1440000020014B184700BF69
S214401590F91340002DE9F84FDFF888801B4FDFF83D
S2144015A088900E461546C047398899F800A0DFF85F
S2144015B07CB0174B5FFA8AFA89B23BF81A409847D4
S2144015C0A4B2A14206D3134B1B78002BEBD128467E
S2144015D0BDE8F88F3BF81A400F4BA4B2641AAC42F1
S2144015E028BF2C4601EB8A11194430460B4B224645
S2144015F098473B8814FA83F39BB23B802D1B084BDD
S21440160026449847002DCED1E1E700BF861A002039
S21440161091114000F2190020001A0020E94E4000C7
S2144016200D14400029114000841A0020801A002022
S2144016300A46024B01460020184700BF9515400059
S2144016400F4B70B598470F4A0F491378DBB231F805
S214401650131040290ED10D4C24785CB90C4C2578DB
S21440166005F0FF0635B9B3FA83F301215B09217013
S21440167013703146074B9847C1F1400070BD00BF1C
S21440168029114000141B0020101B0020181B0020AE
S2144016908C1A00209111400008B5034B9847003043
S2144016A018BF012008BD00BF411640000020014B76
S2144016B0184700BF991640002DE9F84F1A4BDFF83F
S2144016C084B09B79092B08BF52000E461446002072
S2144016D0164B984730B9164B1B78002BF7D120464F
S2144016E0BDE8F88F134BDFF8609098479BF8007082
S2144016F0FFB2824639F817800F48C8F14005A54228
S21440170028BF254608EB871331462A4618440B4B1C
S2144017109847A84450460A4B29F817809847641BB8
S2144017202E44D4D1DBE700BFF419002099164000C0
S214401730F219002029114000901A0020E94E40007E
S21440174091114000141B0020101B00200A46024B3B
S21440175001460020184700BFB9164000024B987853
S214401760024B00F07F001847041C0020A92E4000C2
S21440177070B5134B1B780BB9002070BD114B1B681E
S2144017801B681A798242F7D90F4A13605D88002495
S2144017901D449D4203D8002CEED01360ECE75E78E3
S2144017A0042E09D19E78864206D1DE788E4203D139
S2144017B004B11360012070BD1C7823440124E8E77F
S2144017C0301B0020341B0020381B0020084B1B68B1
S2144017D01B685A881A4403781844904201D3002064
S2144017E004E04378042BFAD0052BF4D1704700BFB1
S2144017F0341B00202DE9F0410E4B0546984768B152
S2144018000D4B0E4F1C680E4E2046B847044640B15E
S2144018108288C1788078B0470028F5D10020BDE89E
S214401820F081084B1B685B6853F82530BDE8F041F3
S2144018301B68184771174000381B0020CD17400022
S214401840192F4000341B00202DE9F0410021124C96
S2144018500546A04718B900252846BDE8F0810F4B3D
S2144018601B685B6853F82560F3689847014628462E
S214401870A04705460028EED0094BDFF82C801C68B0
S214401880084F2046C047044610B18078B847F8E76E
S21440189073689847E0E700BF71174000341B00208C
S2144018A0381B0020E12F4000CD174000004B184762
S2144018B0212E4000F8B50B4C227852B10A4E0B4F01
S2144018C0002533681B681B79E8B2834205F10105A1
S2144018D005D800232370064B01221A80F8BDB8476E
S2144018E0EFE700BF301B0020341B002049184000A3
S2144018F0261B002038B50A4B1B783BB1094D002407
S2144019002A6813681979E3B2994200D838BD5268FC
S21440191052F823301B6903B198470134F0E700BF03
S214401920301B0020341B00202DE9F0419C4C002346
S214401930A3812361636123785AB2002A05DAE188DD
S21440194019B900252846BDE8F08113F060011CD186
S214401950002A80F2C380E588BDB113F01F0340F033
S21440196085806378062B09D0082B78D06BB9022D7A
S21440197011D18C4829468C4B984752E063881D0A03
S214401980022D3BD02AD8012D32D0237803F01F03F6
S214401990012B00F06781237803F01F03022BD0D180
S2144019A0824B1B78002BCCD0814FDFF81882002565
S2144019B03B681A681279ECB2A242C2D95B6853F807
S2144019C02460F368984701462046C0470028B8D0B0
S2144019D0B368984701350028EAD022E0032D22D08C
S2144019E00F2DD2D1734B98680028D4D0418802E09E
S2144019F0704B186801786C4B98470DE06D4A11683B
S214401A00497CDBB29942C6D9526852F83300664BDD
S214401A1041889847A3685D70E388A2899A4288BF48
S214401A20A38101258EE7DBB2012B00F0408113D362
S214401A30022BAAD160481421604B02461E4612F87B
S214401A40015B23F8025F151AEDB28D42F7D34900C9
S214401A50023131705948CEE704215948CBE7012D71
S214401A6099D152482946504B98476BE7012B23D1D2
S214401A7063780A2B89D1012D40F0F4804B4B1B78BC
S214401A80002B00F0EF804A4B26791F683B681B7995
S214401A90B34240F2E78030464A4B98470546002816
S214401AA03FF473AF7B6853F82630DB689847464B65
S214401AB0012118701846D6E7022B7FF466AF63788C
S214401AC0002B7FF462AF022D7FF465AF3F4B207949
S214401AD098473F4B2946188018464CE713F01F039B
S214401AE040F080806378013B082B3FF64EAF01A262
S214401AF052F823F0271B40008B1940008B194000FA
S214401B008B194000191B40008B1940008B19400070
S214401B108B194000431B4000E388002B7FF43BAF0B
S214401B202C4B23617DE7E388002B7FF434AF658838
S214401B30012D7FF430AF1B4A138823F00203138035
S214401B4000E7E588002D7FF426AF234B9847002812
S214401B503FF41BAF174EA27833685B7C9A423FF740
S214401B6014AF1E4B9847A378104A1370002B3FF4CF
S214401B7058AF71680E4A1A4F03F10053013B01EB10
S214401B80C3031360164633681B681B79E8B283426A
S214401B907FF647AF0021B84701350028F3D1F4E679
S214401BA0041C0020261B00200D2F4000301B002068
S214401BB0341B002038000020E2000020AC0000204B
S214401BC0D8000020711740002C1B00203130400008
S214401BD0281B00205D174000E12E4000B51840004D
S214401BE0F5174000012B1AD163780B2B7FF4CDAE4E
S214401BF0E388002B36D12F4B1B78002B32D025792B
S214401C002D4B66882846984700283FF4BEAEF1B272
S214401C1028462A4B984700287FF403AFB5E6022BA8
S214401C207FF4B3AE6378012B10D0032B7FF4ADAEB8
S214401C30E388002B7FF4AFAE6388002B7FF4ABAE17
S214401C4020791F4B984720791E4B09E0E388002BEC
S214401C507FF4A1AE6388002B7FF49DAE20791A4BAB
S214401C609847D8E7134B1B78002B3FF494AE174B9E
S214401C7025791E6833681B79AB427FF68CAE00210F
S214401C802846134FB84700283FF485AE736853F88C
S214401C902560F368984701462846B84700283FF431
S214401CA07AAEB368984700287FF4BBAE73E605214A
S214401CB00848C1E6301B002049184000F517400090
S214401CC0A93240006D30400005314000341B0020F2
S214401CD071174000DC00002030B50124046040F25B
S214401CE0022500244460C0F82051C0F80441C0F8E2
S214401CF0144145685200B1FBF2F2013A12022B43FE
S214401D0092B21A434260204630BD4368D201D2B2F6
S214401D1019430A43426070474368920102F040020A
S214401D2049011A4301F020010A4342607047082ADD
S214401D3070B50CD80023DCB2A24200D870BDCC5C93
S214401D4085689E00B4402C4384600133F3E74D1E03
S214401D50002415F8013F8668A34004343343202C02
S214401D608360F6D10025083AEBB2934205F10105AF
S214401D7000DB70BDCC18C668247A9B0004FA03F3D7
S214401D803343C360F0E710B50906446801F070615C
S214401D9021430A43190701F040511143416010BDE9
S214401DA0436823F400034360704702230360704790
S214401DB0012303FA01F101617047036C43F080731D
S214401DC003647047436843F0004343607047C26C07
S214401DD06FF0010310B5C46C03FA01F12140C164F1
S214401DE0C36C1A43C26410BD836C490002F0030200
S214401DF08A401A4382647047036843F008030360CE
S214401E00704741627047006B704719B10B6883603A
S214401E104B68C3601AB1136883615368C3617047E7
S214401E2021F0FE01C905C90D016270472DE9F04158
S214401E30164B06460F469847154B0546304698477C
S214401E40054004D1134B1B68B3B9BDE8F081124C72
S214401E5004F160082368BB4208D16168294205D076
S214401E60E36838469847636825EA03054445E9D061
S214401E701034002DEED1E5E7084B1B681BB1304609
S214401E80BDE8F0411847BDE8F08100BFAD394000DD
S214401E90B1394000D01D00203C1B0020AC1B002068
S214401EA00B210148014B1847000E0E402D1E4000E6
S214401EB00C210148014B184700100E402D1E4000D3
S214401EC0F0B5114D06460F460FCD8DB001AC0FC490
S214401ED00FCD0FC495E80700002384E8070001AA49
S214401EE052F82300B7FBF0F0B0FBF6F0B0F5807F79
S214401EF006D901330B2BF3D14FF6FF700DB0F0BD72
S214401F0040EA0320FAE700BFD851400070B50C689D
S214401F1006460D4644B120460C4B896898474FF616
S214401F20FF73984204460CD0686840B1074BA968D6
S214401F3098474FF6FF73984205D044EA0044346011
S214401F400024204670BD0446FBE700BFC11E40008B
S214401F504B688A8A03F00F0313430A8913438A7A2D
S214401F6043EA42238A7D43EA0243CA7D70B543EA88
S214401F7042430C680A7E43EA824300EB4412C2F8AE
S214401F800032CB68C2F804320B69C2F80C328B7D43
S214401F901BB1D1F81A30C2F81832CA7F856C02FAE3
S214401FA004F64FF001138A7FA340DB43A2401D4056
S214401FB042EA06422A438264426C134091F821204A
S214401FC002FA04F591F82020A24042EA0542134363
S214401FD0436491F822200123A3401AB3026A1A43AD
S214401FE0026291F82420012A826E0CBF1A439A435B
S214401FF0826691F82520012A4FEA0342836E0BBF82
S2144020001A43934382668366FF22E300C46E9A4077
S21440201024EA020491F8232002FA03F32343C3661A
S214402020002070BD026A22EA0302D9E7012303FAC0
S21440203001F141607047012303FA01F18160704766
S214402040036A520502F4600223F470030A431A43FB
S2144020500262704741637047036A23F44033194372
S21440206002F00F020162C26200207047006C7047A7
S214402070AC2310B503604A680B68B3FBF2F31B0948
S2144020805C1E4FF6FE7294420AD803628B68436029
S21440209040F20223C0F8203150230360002010BDD8
S2144020A0012010BD5023036070478160704740692F
S2144020B070474FF48073036070474069C0F3402018
S2144020C07047406900F00100704743699B0746BF70
S2144020D0C1610020012070474369DB0743BF836925
S2144020E00B7000200120704782B0EFF31083B3FAE4
S2144020F083F35B09019372B6BFF35F8F024B0022F6
S2144021001A70019802B07047F7000020034A002377
S214402110136153619381024A13707047041C002078
S214402120B61B00200A4B05221A700A4B82B01A6B67
S2144021300192019A42F04F020192019A42F0200227
S2144021400192019A1A631A6B9206FCD502B0704748
S214402150B61B0020004003400A4B03221A700A4B6D
S21440216082B01A6B0192019A42F04F020192019A94
S21440217042F010020192019A1A631A6BD206FCD5FD
S21440218002B07047B61B002000400340024B1B695C
S21440219003B11847704700BF041C002073B5830086
S2144021A003F1402303F54033421E1C6B1D6B14F0B5
S2144021B0020F264C2CD015F0400506D1142101FB09
S2144021C002414E7C65F383064E74142101FB0241A6
S2144021D0497C11F00C0F196B23D10091009941F006
S2144021E04F010091009921F0020100910099196376
S2144021F0196B8907FCD448B1032807D0142303FB86
S21440220002420121537C61F38303537402B070BDD4
S214402210142101FB024101264D7C66F383054D7473
S214402220D3E70191019941F04F010191019921F0C5
S2144022304001019101991963196B11F04001FBD1DE
S214402240142303FB0242537CDDE700BFB81B00208B
S2144022502DE9F7435B4E431E142202FB0362577C74
S214402260C7F3810748B1032814BF02220122BA42AD
S21440227005DC012003B0BDE8F0830122F7E7142215
S21440228002FB0362D468D2F808E0744504D3527C5B
S21440229012F0400200F09480142505FB0368AEEB74
S2144022A0040ED8F8042002EB040CB8F81020C2F351
S2144022B00902964538BF724605FB03651444EC6038
S2144022C04FEA800404F1402434BF4FF0010E4FF033
S2144022D0000E0CF1080502F1080904F54034A9EB9C
S2144022E00508E044B8F1070F26D822F007046444F6
S2144022F002F00702344D224400F1140C94423DD1C2
S214402300142202FB03620137547C67F3830454743F
S214402310C9BBBEF1000F4BD1142202FB0363D96840
S2144023209A689142A5D3587C10F04000A1D15A7CBF
S21440233042F080025A749DE715F8088CC4F8508025
S21440234015F8078CC4F8508015F8068CC4F85080F1
S21440235015F8058CC4F8508015F8048CC4F85080E5
S21440236015F8038CC4F8508015F8028CC4F85080D9
S21440237015F8018CC4F850800835B0E714F8018B86
S21440238045F82C80BAE7800000F1402000F5403048
S214402390026B0192019A42F04F020192019A42F07A
S2144023A010020192019A0263026BD206FCD5B0E796
S2144023B0142202FB0362517C6FF386115174ABE723
S2144023C0104657E7B81B00200040034028B1034B97
S2144023D001221A70BFF35F8F62B67047F700002085
S2144023E010B5074C235CFF2B014600D1FEE7054B9A
S2144023F09847635C01336354034BBDE8104018476D
S214402400FE1B0020E9204000CD23400010B5074CBD
S214402410235C014603B9FEE7054B9847635C013BE6
S2144024206354044BBDE81040184700BFFE1B002015
S214402430E9204000CD23400038B5074C05462378B8
S21440244028B913B1054B02209847257038BD002B9C
S214402450FBD10220024BF7E7B11B00200D244000C1
S214402460E12340002DE9F041504F3B78032B86B0E6
S21440247016D14F4B1A6B0192019A42F04F020192CD
S214402480019A22F001020192019A1A631A6BD1074F
S214402490FCD4484B9847484B984706B0BDE8F08177
S2144024A0464E474D3388AC89E41AA4B22CBB454A05
S2144024B011880B449BB21380EA889A4202D0424B62
S2144024C01B7893B104233B70394B1A6B0292029AE5
S2144024D042F04F020292029A22F001020292029ABF
S2144024E01A631A6BD207FCD4D7E76B69002B41D02E
S2144024F0984700283ED03480AC893F2C3AD9324B9E
S21440250000221A704024314BAD68B6F800809847D8
S21440251027490B6B9B07864630D405EB08031846C5
S214402520C21AD2B2A2423DD3444434800B6B0493C9
S214402530049B43F04F030493049B43F0100304931F
S214402540049B0B631A4B1A6BD206FCD51A6B05928A
S214402550059A42F04F020592059A22F00102059232
S214402560059A1A63124A136BDB07FCD47046184B65
S214402570984792E7144B01221A70C4E7144B9847C9
S21440258004233B700B6B0393039B43F04F0303936F
S214402590039B23F001030393039B0B630B6BD8074A
S2144025A0FCD47AE710F8012B0A65B9E7B61B002081
S2144025B0004003408D2140000D214000B21B00200A
S2144025C0041C0020B41B0020B01B0020E920400063
S2144025D0CD23400030B4437CDC060D4615D5046858
S2144025E06FF30413437484B1094902F10C0351F8A4
S2144025F02330590505F1FF3348BF42F08002816819
S21440260058425841234630BC184730BC704700BF3C
S214402610004003402DE9F04F8F4B9BB0984760B980
S2144026208E4BDB6913F4807307D172B6BFF35F8FAE
S2144026308B4A13701BB0BDE8F08F8A4B2220984718
S214402640864A936913F4006F134608D0D16909058A
S21440265005D54FF400631362834B9847EAE7DA697F
S214402660D20740F16E811A6B570740F183807F4D49
S2144026702B781BB17E4B98477E4B9847774C236B05
S214402680C3F30A43082B11D0236B0393039B43F0F9
S2144026904F030393039B23F004030393039B23639B
S2144026A0236B5E07FCD4744B9847C3E7734E0023F6
S2144026B03746226D9A550133082BFAD1704B98470E
S2144026C080B9236B0493049B644A43F04F030493FE
S2144026D0049B23F004030493049B2363136B5D075E
S2144026E0FCD4E0E796F90030002B236B27DA0593FD
S2144026F0059B43F04F030593059B43F080030593EA
S214402700059B2363554B1A6B1406FCD51A6B069231
S214402710069A42F04F020692069A22F00402069269
S214402720069A1A634D4A136B13F00403FBD1554ABD
S2144027301380554A138002232B70544BB4E70793FB
S214402740079B464A43F04F030793079B23F0040337
S2144027500793079B2363136B13F00403FBD1FA889C
S2144027600AB94B4BA0E7474A1380474A13800123D8
S2144027702B705FE71A6BD007DFD41A6B910740F1D6
S214402780CC803A4A1278012A19D0022A01D0042A6B
S21440279013D1374B9847314B1A6B0892089A42F040
S2144027A04F020892089A22F002020892089A1A6388
S2144027B01A6B9207FCD42F4B76E72F4BEAE7324D45
S2144027C01A6B2E482B888189244FC2F30A429C18E4
S2144027D0A142B8BFCA1A81681944B8BF92B20E4621
S2144027E0741AE4B2944222D313449BB2402A2B80FC
S2144027F005D1244EC18832881A4491424ADC8381EE
S2144028004369164CBBB19847A8B91B4B9847236BF6
S2144028100993099B43F04F030993099B23F0020356
S2144028200993099B2363236B9F07FCD402E73C6D07
S21440283006F8014BD4E7236B0A930A9B074A43F0FA
S2144028404F030A930A9B23F002030A930A9B2363CF
S214402850136B9E07FCD484E70D3D400000400340C8
S214402860F7000020593C4000F5184000B61B0020F9
S2144028708D2140000D21400025214000041C0020F1
S21440288029194000B41B0020B21B002065244000DC
S2144028905921400082899A422ED14369A14C8BB976
S2144028A0A14B9847236B0B930B9B43F04F030B9323
S2144028B00B9B23F002030B930B9B2363236B9D0719
S2144028C0FCD4B7E6984788B9974B9847236B0C9348
S2144028D00C9B43F04F030C930C9B23F002030C938A
S2144028E00C9B2363236B9807FCD4A3E633882A8883
S2144028F01344338000232B808A4B1A6B0D920D9A1B
S21440290042F04F020D920D9A22F002020D920D9A5D
S2144029101A631A6B9107FCD48CE61A6B120710D513
S2144029201A6B0292029A42F04F020292029A22F0E8
S21440293008020292029A1A637A4A136B1F07FCD463
S21440294078E67848794E012201211423846901FAF9
S21440295002F814EA080FD5B200F07B81940004F127
S214402960402404F5403403FB0267D4F830E01EF000
S214402970420F02F1FF39A7F1140742D003FB096367
S214402980226BB3F810B0C2F30A4ACBF3090BBAF184
S214402990000F34D0D8689B684FF0140E0EFB096EBB
S2144029A01B1A5345DEF8042088BF53460244184499
S2144029B08CBF00210121CEF80C0013449A421AD154
S2144029C028465B4B01919847019911B9D3457FF64C
S2144029D031AE216B11F020017FF42CAE514BC3F881
S2144029E01480142303FB09662A46F368B36038460E
S2144029F0504B98471EE6206D02F8010BDEE7514625
S214402A00DEE7D4F830E01EF0010F00F0078103FB4C
S214402A10096303F1100E9EF80120C2F381010331D1
S214402A2061F383028EF801205A7C12F0200146D0D2
S214402A3012F00C0F236B1DD00E930E9B43F04F03EA
S214402A400E930E9B43F010030E930E9B2363236B53
S214402A50DE06FCD5236B0F930F9B43F04F030F937B
S214402A600F9B23F001030F930F9B2363236BDD071C
S214402A70FCD4DFE51093109B43F04F031093109B5C
S214402A8023F001031093109B2363236BD807FCD4D9
S214402A90236B1193119B43F04F031193119B43F00B
S214402AA020031193119B2363236B9906FCD51423B3
S214402AB003FB0966737C6FF345137374BAE512061D
S214402AC00DD59EF8012061F3C7128EF80120DA6812
S214402AD09A60C0F814802A463846164B9847142306
S214402AE003FB0963D9689A68914229D35B7C13F04B
S214402AF04C0F25D1104B98470A4BC3F814800F4B08
S214402B009847236B1293129B43F04F031293129BEA
S214402B1023F001031293129B2363236BDB07FCD441
S214402B2088E500BF0040034025214000B81B002038
S214402B309D214000D5254000E9204000CD2340009F
S214402B40032D56D0142303FB096909F1100A9AF89D
S214402B50013013F00C0F22D0236B1393139B43F0DA
S214402B604F031393139B43F010031393139B23635A
S214402B70236BDF06FCD5236B1493149B43F04F0363
S214402B801493149B23F001031493149B2363216B2B
S214402B9011F00101FBD128467C4B98474AE50121BC
S214402BA028467A4EB047014680B99AF8013060F31D
S214402BB0C7138AF80130D9F80C30C9F80830744B7E
S214402BC02A46C3F814803846724B9847236B1593B1
S214402BD0159B43F04F031593159B23F00103159364
S214402BE0159B2363216B11F00101FBD12846B047AA
S214402BF020E5664B012128469847654BDA6B1692CE
S214402C00169A42F04F021692169A22F00102169237
S214402C10169ADA63DA6BD607FCD40BE5256B2D07DC
S214402C2017D5236B1793179B43F04F031793179BA8
S214402C3023F008031793179B2363236B1F07FCD4CB
S214402C40236B03F4E063B3F5807F3FF4F3AC236B70
S214402C50F0E40132042A7FF479AE4D4B9A6992042F
S214402C6002D5DA6996040CD49A69950502D5DB69D3
S214402C709C0506D4464B9A69500512D5DA6951052B
S214402C800FD5434C4FF41853236201206361424BE7
S214402C9098474FF48073236223614FF400632361A7
S214402CA0C8E49A69D20516D5DA69D70513D54FF424
S214402CB080721A625A614FF400521A614FF40072E1
S214402CC01A614FF480621A612220344B98470020E4
S214402CD0314B9847AEE42E4CE369DE047FF5AAAC50
S214402CE04FF480530122236211462A4D2C48A847B0
S214402CF0022201212B48A847032201212A48A8473F
S214402D002A4B9847636823F001036360636823F0A7
S214402D1002036360A36843F48073A360A36823F050
S214402D207F03A360236B1893189B43F04F031893BD
S214402D30189B23F4074323F080031893189B43F40F
S214402D4000431893189B2363236B1D04FCD5236B09
S214402D501993199B0E4943F04F031993199B43F45B
S214402D6000431993199B23630B6B1804FCD5104B37
S214402D70984701230B610F4B98470F4B98474FF4EA
S214402D8080730B614FF400630B6153E451224000A3
S214402D9000400340D525400039244000993C40007F
S214402DA0B81B0020CC1B0020E01B0020B5184000BC
S214402DB0E9204000CD2340000D21400010B5134BC4
S214402DC09847134B044601209847124B22209847B9
S214402DD0114B5A6F22F480725A675A6F42F400724F
S214402DE05A674FF480721A614FF400521A614FF4DA
S214402DF000721A614FF480621A614FF400621A61E1
S214402E002046064BBDE81040184700BFE92040006A
S214402E1039244000593C400000400340CD23400048
S214402E2070B5164B9847164B044622209847154BCC
S214402E309847154B1548502283F8222304225A609F
S214402E401425002305FB03020133517C01F0830166
S214402E506FF3C711032B5174F4D14FF480200C4B01
S214402E6098470C4B002018700B4B98470B4B9847D5
S214402E7020460B4BBDE87040184700BFE920400095
S214402E80593C40001938400000E100E0B81B0020E3
S214402E90F93C4000B11B0020E1234000BD2D40001E
S214402EA0CD234000002070470C4B5A6822F00102A8
S214402EB05A609A6822F480729A6070B19A6800F0FC
S214402EC07F0022F07F02104398609A6842F4807236
S214402ED09A605A6842F001025A60704700400340C8
S214402EE0044B586810F001001CBF986800F07F0043
S214402EF0704700BF00400340024B1868C0F30A000A
S214402F00704700BF0040034000207047014B986068
S214402F1099817047041C0020F7B500F00F05032D7B
S214402F2058D8AC0004F1402404F54034236B13F425
S214402F3000434FD101F00306012E03D1002D49D0A6
S214402F40032D47D0402A45DC46B2234814276B1E43
S214402F5007FB030303F110001F8A62F309071F8271
S214402F605B7C03F07F036FF34513002E4370BEBFB8
S214402F70DBB26FF383034370184B01209A6AA84074
S214402F8002439A629A6A1042FCD09D6A25EA000083
S214402F909862236B0193019B43F04F030193019B7F
S214402FA023F4074323F0800301930902019B01F4B5
S214402FB04071002EB4BF41F4044141F400410B433C
S214402FC00193019B2363236B31EA0303FBD101206A
S214402FD003B0F0BD0020FBE7B81B002000400340D4
S214402FE000F00F02032A13B51BD8930003F14023C9
S214402FF003F54033196B0191019941F04F0101915E
S214403000019921F40041019101991963196B090452
S214403010FCD4054B501E142404FB00300121034B06
S214403020984702B010BD00BFB81B0020D525400011
S21440303000F00F00032813D80A4A431E142101FB50
S21440304003235B7C9B0609D40C30074B53F8203097
S21440305013F0280F14BF012000207047012070474E
S21440306000207047B81B00200040034013B500F016
S2144030700F01032904463BD81E4B9847240622D509
S2144030801D4C01F10C024B1E54F822201B4C12F032
S214403090100F07D1142202FB0342527CC2F3810276
S2144030A0012A10DD142202FB03435A7C42F0200220
S2144030B05A740124104B04FA01F11961104B9847D9
S2144030C0204602B010BD8B0003F1402303F5403389
S2144030D01A6B0192019A42F04F020192019A42F015
S2144030E020020192019A1A631A6B9206FCD5E0E719
S2144030F00020E6E7E920400000400340B81B0020DF
S214403100CD23400073B500F00F04032C4BD827495D
S214403110651E142303FB05135A7C6FF345125A743D
S214403120A30003F1402303F540331A6B920602D402
S214403130012002B070BD1A6B0092009A42F04F0216
S2144031400092009A22F020020092009A1A631A6BAC
S2144031509606FCD4164A0120966AA040064396621C
S214403160946A2042FCD0946A24EA000090621A6B6B
S2144031700192019A42F04F020192019A22F008020F
S2144031800192019A1A63186B10F00800FBD11422C2
S2144031906A438B185C7CE506CAD560F304145C74FD
S2144031A08B589847C4E70020C3E700BFB81B0020F1
S2144031B0004003402DE9F04F00F00F0685B0032E87
S2144031C082460192009324D8B40004F1402404F5CA
S2144031D04034206B10F4004058D0751E2D4F4FF0F1
S2144031E0140808FB05F807EB080B9BF8119019F03C
S2144031F020000ED1226B12F0200947D1264A0392B6
S21440320090479BF811E0254A1EF01003029302D027
S214403210904700203AE09BF811E04EF0100E8BF8F5
S21440322011E09047019BCBF80430009BCBF8083068
S214403230029BCBF80C300E9B47F8083019B9009B20
S214403240B3FA83F14909142303FB05756B7C61F3DC
S21440325086136FF3C7136B74039B98470121104B7B
S21440326001FA06F21AF0800F07461A610AD0246B5C
S21440327014F0110406D130460A4DA84710B1214635
S2144032803046A8473846054B9847012005B0BDE86C
S214403290F08F00BFB81B0020E9204000CD2340003F
S2144032A000400340512240002DE9FF4100F00F044A
S2144032B0032C06463ED8444B984701254349444B89
S2144032C0A5404D619847300677D5A30003F14023CB
S2144032D003F540331A6BD2062FD41A6B0392039A27
S2144032E042F04F020392039A22F001020392039A9D
S2144032F01A631A6B12F00102FBD13649631E142082
S21440330000FB0313597C62F3830159742F4B9A6A6E
S2144033102A439A629A6A1542FCD09A6A22EA0505BE
S2144033209D622C4B601E2246142404FB0030012173
S214403330294B984704B0BDE8F0817CB91A6B0292DD
S214403340029A42F04F020292029A22F01002029231
S214403350029A1A631A6BD206FCD4BEE7032CEDD051
S2144033601A6B0092009A42F04F020092009A22F0A6
S21440337010020092009A1A631A6BD706FCD41A6B96
S214403380D606FCD41A6B0192019A42F04F02019283
S214403390019A42F010020192019A1A631A6BD00603
S2144033A0FCD51A6BD106FCD5C8E72046C04756F870
S2144033B0273013F0420FF8D1A8E70E4604F10C0769
S2144033C0DFF81880F3E700BFE920400000400340E4
S2144033D0CD234000B81B0020D52540009D2140004D
S2144033E0037C023B1C2B24D8DFE803F00F23112379
S2144033F02323232323232323232313231523172382
S21440340019231B231D231F2321000B4B18470B4B4F
S214403410FCE70B4BFAE70B4BF8E70B4BF6E70B4B8F
S214403420F4E70B4BF2E70B4BF0E70B4BEEE70B4B9F
S214403430ECE70B4BEAE700BF050340009D03400066
S214403440390140006501400091014000E50140001F
S21440345095024000710240009D024000C5024000B7
S214403460BD03400070B50A4E0A4C0B48942588228E
S2144034700021A0472A4600213046A047074B33602C
S2144034802A46234600210648BDE87040184700BF3C
S214403490201C00201D504000481D002000080E4003
S2144034A0B41C002038B5424C424B20689847E02870
S2144034B00BD1414B8822002104F10C009847002391
S2144034C02371A36020683D4B9847A36840F2FF7283
S2144034D00133934205BF00232371A360A360237981
S2144034E023B1237B3C2B1CBF002323712379012B64
S2144034F004D9637B042B1CBF002323712379022B42
S21440350006D9A37BEE2B03D0AA2B1CBF0023237126
S2144035102379032B06D9E37B772B03D0AA2B1CBF3A
S214403520002323712379072B0FD9617C08319942F8
S2144035300BD1234B1B7843B92248234B984705466B
S21440354018B91B48214B98472571214CA36840F277
S214403550FF720133934205BF00232371A360A3602B
S214403560237983B1A28940F23C439A4209D1A37B96
S214403570EE2B01D0AA2B04D1E37B772B03D0AA2BCA
S21440358001D0002323712379072B0FD9617C0831A2
S21440359099420BD10A4B1B7843B90E480A4B9847C1
S2144035A0054618B90A48094B9847257138BD00BFEB
S2144035B0201C0020AF2040001D504000B32040009B
S2144035C0F41B00202C1C002085374000E1334000CF
S2144035D0B41C0020C01C00202DE9F8431F4F204C8F
S2144035E01D4601233B703C23237004236370AEB218
S2144035F07723A370E1702271A11D3246194B657185
S2144036008046089898476179174B06312046984778
S21440361063199871000AD871B8F1000F14D00736B4
S214403620651EDFF854903444104EA54203D1002363
S2144036303B70BDE8F8834046B0470028FBD015F8FD
S214403640011F4046C847F0E7094C0835A047002808
S214403650FCD02946074B02489847E8E7F41B002071
S214403660481D0020ED36400085374000BB20400016
S214403670AD1640004D174000CB20400010B5084C1A
S214403680084B2068984750B12179074B20680C3189
S214403690214498472379013323710023A36010BD4A
S2144036A0201C0020C3204000D920400038B50A4BDB
S2144036B0984780B1094C0A4B0A4D984723792860B1
S2144036C00C330146E018084B984723792A68134480
S2144036D023710023A36038BD89154000B41C002028
S2144036E0ED1340001C1C002031164000013A431EDA
S2144036F001391044834200D1704713F8012F01F876
S214403700012FF7E72DE9F74F1B4E1C4F1C4D96F83F
S21440371000A03B78019500242C6080464AF2010BBD
S214403720A8EB0005A94208D824B13B70019B86F857
S21440373000A01D6003B0BDE8F08F18F8013B0925D6
S21440374001244FF0080A013D15F0FF05E8D0B2F815
S21440375000C003F001094FEA5C0E0CF0010CCC45AA
S214403760A2F800E018BF8EEA0B0E4FEA530318BFCC
S214403770A2F800E0E7E700BFFC1B0020F51B002096
S214403780F81B002007B502AA002322F8023D034B8F
S2144037909847BDF8060003B05DF804FB05374000C7
S2144037A0014B53F820007047045240005F28CCBFBE
S2144037B060382030014B53F82000704704524000D8
S2144037C00138062818D8DFE800F00407090C0E1068
S2144037D014000020094B18470120FBE70020084B47
S2144037E0F9E71020FBE72020F9E73E210020054BB3
S2144037F018473E210120FAE7704700BF613B400072
S214403800813B4000C53B400010B5024CA047002815
S214403810FCD010BD0D3C400010B50620094B0A4CAC
S21440382098470A4B98470A4B98470A4B0A4ADA6227
S214403830A0470028FCD0094B01209847084BBDE81C
S21440384010401847C1374000493C40000938400006
S2144038503D3C400000040E40023F0F00D93C400073
S214403860ED3C400070B50D480D4C0E4DA04706206F
S2144038700D4B98470D4B98470D4B98470D4B0E4AAE
S2144038809A62A8470028FCD00C4B102098470C4B57
S214403890984723460148BDE870401847000E270762
S2144038A0693E40002D3C4000C1374000093840008A
S2144038B01D3C400000040E40013F13201D3B4000CD
S2144038C0A13D40000AB14166704701667047B1F1BC
S2144038D0C05F10B542642ED007D8B1F1006F14D047
S2144038E0B1F1805F1ED039B910BDB1F1205F0BD069
S2144038F004D8B1F1005F27D0426005E0B1F1405FE7
S21440390002D0B1F1605FF7D110BD016F046FD343B1
S2144039102140194001671C46436F416F0B402340CE
S2144039204367E9E7036F13430367436F416F0B40F9
S21440393023EA0203F4E7036F016F0B4023EA020316
S2144039400367436F1343EBE7036F1343F8E7D3076D
S21440395041644CBF4166016612F00A0F14BF016213
S2144039604162930704D5C0F88010416101607047FA
S214403970130748BFC0F88410F7E710B5029C4164AF
S2144039803CB141663BB101653AB1016301610160FA
S21440399010BD0166F6E74165F6E74163F6E712B10A
S2144039A0C0F894107047C0F890107047C06C7047CD
S2144039B0806C7047430903F5001303F207735B02FC
S2144039C000F01F00012202FA00F018637047430916
S2144039D003F5001303F207735B0200F01F00012299
S2144039E002FA00F058637047F7B545090E4605F5EC
S2144039F0001501F0F04105F20775B1F1005F4FEA9E
S214403A00452509D018D8B1F1805F05D0B1F1C05F27
S214403A1002D0B1F1006F18D100F01F04012707FA59
S214403A2004F422462846194B9847F6074CBF6C6666
S214403A302C66384603B0F0BDB1F1405F11D0B1F10D
S214403A40605F0ED0B1F1205F01D00027F1E700F0B3
S214403A501F010127324607FA01F128460C4B9847CA
S214403A60E7E706F06052012700F01F0102F14840E8
S214403A7006EA0703424200934241C6F380032846C3
S214403A8007FA01F1034DA847D3E700BFCF384000FF
S214403A904F3940007B394000F7B502F0F045B5F1AC
S214403AA0005F06460C46174609D013D8B5F1805F2E
S214403AB005D0B5F1C05F02D0B5F1006F13D12246F4
S214403AC02946134B9847F8074CBF74663466012066
S214403AD003B0F0BDB5F1405F0AD0B5F1605F07D0E6
S214403AE0B5F1205F01D00020F2E70A4B9847EEE799
S214403AF007F0605202F1484107F001034A42009342
S214403B004A41C7F3800321463046034CA047DEE7D0
S214403B10CF3840004F3940007B3940000F4B1A6B7E
S214403B2022F070021043186340F60102996E0807AF
S214403B300CD51A6B22F0030242F002021A6340F6DA
S214403B400102996E090705D500207047013AEDD16C
S214403B5001207047013AF4D1FAE700BF00040E4056
S214403B60054A012801BF936843F0254343F4801378
S214403B709360024B1360704710140E40080000A577
S214403B800F4B196A41F45C1141F0080119629A6EB4
S214403B909103FCD51A6A22F45C1222F0700242F4B9
S214403BA05C12104318629A6E9203FCD51A6A22F091
S214403BB09B7222F4803242F45C121A62704700BF55
S214403BC000040E400E4A136A28B10E4919400E4BA7
S214403BD00B431362704723F45C1323F0030309027C
S214403BE043F45C1389B243F001030B431362936EB4
S214403BF0DB07FCD5136A43F09B7343F48033E8E756
S214403C0000040E40FCFFC8FE02003701024B986ECF
S214403C1000F48030704700BF00040E40024B4FF067
S214403C2000529A62704700BF00040E40024B986EE6
S214403C3000F00200704700BF00040E40014B002217
S214403C40DA62704700040E40024B986E00F00400A3
S214403C50704700BF00040E40222818D81F280D4A7F
S214403C604FF0010308D8916903FA00F030EA0103E7
S214403C7000D01061002070472038D2F8081103FAAF
S214403C8000F030EA0103F5D0C2F80001F2E7012067
S214403C90704700BF00040E40222818D81F280D4A3F
S214403CA04FF0010308D8916903FA00F030EA0103A7
S214403CB000D15061002070472038D2F8081103FA2E
S214403CC000F030EA0103F5D1C2F80401F2E7012022
S214403CD0704700BF00040E40000200F47060024BC4
S214403CE040F001009863704700040E40014B80226C
S214403CF01A60704700040E40034B1A6FC0F3120060
S214403D0010431867704700BF00040E40024B1878F7
S214403D1080F00100704700BFFD1B0020FEE700005A
S214403D2008B5164A164B934216D91649043B8A42A2
S214403D300DD300BF144B154A002193421AD3144B9F
S214403D40144A9A60144B9847144B9847FEE753F82A
S214403D50040F42F8040BEAE7EBD20A48191F821A0E
S214403D600A44C3F10403801ADA42E2D052F8041936
S214403D701150F9E743F8041BDFE700BF00000020BE
S214403D803C5440003405002038050020F81D002033
S214403D9000ED00E000004000994E4000CD3E40005F
S214403DA010B52B4A136B03F00303012B294B0FD09E
S214403DB004D3116ACC012CD5274946E027494969E6
S214403DC008064CBF4FF400414FF4FA4119600DE02D
S214403DD0116AC90101D52049F8E721491960116ADD
S214403DE001F07001102912D02029F4D0116B01F097
S214403DF0700170291BBF116B1A681A68C1F3021153
S214403E0012BFCA400321B2FBF1F21A6010BD154939
S214403E10DCE713491960116A01F07001102913D0CC
S214403E202029C9D0116B01F0030102290BBF946A07
S214403E30D46A906AD06A1968C4F30A4404FB011134
S214403E40C0B2B1FBF0F1C1E706491960EAE700BF2E
S214403E5000040E40F8000020001BB70010140E406F
S214403E6000093D0000127A000E4B98420E4B03D8D4
S214403E704FF080621A6070470C4A904201D80C4A54
S214403E80F8E70C4A904201D80B4AF3E70B4A9042B7
S214403E9001D80B4AEEE70B4A904294BF4FF00422FB
S214403EA0094AE7E7FF2C3101000A0E40FF5962023B
S214403EB000010004FF86930300020004FFB3C4041D
S214403EC000030004FFE0F5050005000408B50D4BAF
S214403ED00D4E0E4D0E4C98470E4B98470E4B98473E
S214403EE00E4B98470E4B9847B0472846A0470D4B79
S214403EF0172098472846A04717200B4B98470B4B50
S214403F009847F1E72D074000A5344000136541006F
S214403F100100002065344000D9034000610840009D
S214403F20A5084000B5394000CF394000C5044000E0
S214403F3010B5044B984718B1034BBDE810401847DE
S214403F4010BD00BFB1054000F50C400010B5034B56
S214403F509847034BBDE81040184700BF050D40008A
S214403F604904400007B50B4B0B48984783070ED5CE
S214403F700A4B984702230090019369460848094B2C
S214403F80002298474FF480710548074B984703B086
S214403F905DF804FB6D204000000002401106400022
S214403FA0000102400B1E4000211E4000004B1847F7
S214403FB07D3640002DE9F04F8BB004460D4600F0AC
S214403FC057F8294B93F900A0BAF1FF3F06460F4633
S214403FD012D022462B462046294600F059FD8346FD
S214403FE050B94FF000084FF0000942464B46204675
S214403FF0294600F025FD20B9304639460BB0BDE8CD
S214404000F08F1A4BCDF820B00122CDE90445CDE91A
S21440401002458DE80C00BAF1000F17D042464B46D9
S2144040204046494600F0C4FBBAF1020FCDE906010E
S2144040300ED100F02BFF21230360089B73B9DDE906
S2144040400667304639460BB0BDE8F08FCDE90689A5
S214404050684600F0C9F80028EFD1EAE700F016FFFE
S214404060089B0360EBE700BFFC00002004544000C0
S2144040702DE9F8435B4F8F4305460C4600F092808F
S21440408000290B4602466FDD0F157BD0A7F2FF379F
S214404090C3F31303F80743F480135CD403EBD271E5
S2144040A000260B447F105200B64616204FF40011EF
S2144040B00EEB01049C424FEAD2754FEA420203DC03
S2144040C01B1B04EB010E0E44013805EB43034FEA7D
S2144040D05101EDD1844620244FF0004109E020D024
S2144040E003EBD275013C4FEA51012B444FEA4202A2
S2144040F020D0734501EB0C05F1DD002D05EB010CDE
S21440410009DBF0469542A3EB0E0300D9013B521B58
S2144041100844C646E4E7BCF1000FF2DB0EF10108A6
S214404120F0E79542DCD8002D05EB010C44DB9846C1
S2144041300023ECE7134313D14008731003F17F5379
S21440414003F50013F20703EB075948BF40F0004061
S2144041504946BDE8F8835B0003EBD27352009DE707
S214404160411C2DD00130E7E7064621F000473E438C
S214404170EFD069BB0F46D30A153F5205002BFAD045
S214404180DE0220D4002400E004465B00DD0204F199
S2144041900100F9D5C0F1200122FA01F10B433F1B83
S2144041A0824073E702460B4600F0D8F92A4623467B
S2144041B000F022F8BDE8F883BCF1000FAEDAB6E7AF
S2144041C001362046B9E7002020214FF0FF34E3E7D0
S2144041D002460B4600F00EF802460B4600F0E8FAA0
S2144041E0B7E700BF0000F07F0020704781F0004135
S2144041F002E000BF83F0004330B54FEA41044FEA87
S214404200430594EA050F08BF90EA020F1FBF54EA21
S214404210000C55EA020C7FEA645C7FEA655C00F0BD
S214404220E2804FEA5454D4EB5555B8BF6D420CDD8E
S2144042302C4480EA020281EA030382EA000083EA11
S214404240010180EA020281EA0303362D88BF30BDB1
S21440425011F0004F4FEA01314FF4801C4CEA113107
S21440426002D0404261EB410113F0004F4FEA033366
S2144042704CEA133302D0524263EB430394EA050FF1
S21440428000F0A780A4F10104D5F1200E0DDB02FA60
S2144042900EFC22FA05F2801841F1000103FA0EF2F4
S2144042A0801843FA05F359410EE0A5F120050EF1BA
S2144042B0200E012A03FA0EFC28BF4CF0020C43FAEB
S2144042C005F3C01851EBE37101F0004507D54FF0F8
S2144042D0000EDCF1000C7EEB00006EEB0101B1F548
S2144042E0801F1BD3B1F5001F0CD349085FEA30008E
S2144042F04FEA3C0C04F101044FEA445212F5800F99
S21440430080F09A80BCF1004F08BF5FEA500C50F135
S214404310000041EB045141EA050130BD5FEA4C0C18
S214404320404141EB010111F4801FA4F10104E9D1A1
S21440433091F0000F04BF01460020B1FA81F308BF98
S2144043402033A3F10B03B3F120020CDA0C3208DD64
S21440435002F1140CC2F10C0201FA0CF021FA02F13F
S2144043600CE002F11402D8BFC2F1200C01FA02F1AF
S21440437020FA0CFCDCBF41EA0C019040E41AA2BFD4
S21440438001EB0451294330BD6FEA04041F3C1CDA9C
S2144043900C340EDC04F11404C4F1200220FA04F0BC
S2144043A001FA02F340EA030021FA04F345EA030166
S2144043B030BDC4F10C04C4F1200220FA02F001FA28
S2144043C004F340EA0300294630BD21FA04F02946AA
S2144043D030BD94F0000F83F4801306BF81F4801143
S2144043E00134013D4EE77FEA645C18BF7FEA655CB6
S2144043F029D094EA050F08BF90EA020F05D054EA88
S214404400000C04BF1946104630BD91EA030F1EBF8C
S2144044100021002030BD5FEA545C05D14000494190
S21440442028BF41F0004130BD14F580043CBF01F583
S214404430801130BD01F0004545F0FE4141F4700169
S2144044404FF0000030BD7FEA645C1ABF1946104644
S2144044507FEA655C1CBF0B46024650EA013406BF45
S21440446052EA033591EA030F41F4002130BD00BF04
S21440447090F0000F04BF0021704730B54FF48064C1
S21440448004F132044FF000054FF0000150E700BF42
S21440449090F0000F04BF0021704730B54FF48064A1
S2144044A004F1320410F0004548BF40424FF000018E
S2144044B03EE700BF42004FEAE2014FEA31014FEAD1
S2144044C002701FBF12F07F4393F07F4F81F0605120
S2144044D0704792F0000F14BF93F07F4F704730B58F
S2144044E04FF4607401F0004521F0004120E700BF22
S2144044F050EA010208BF704730B54FF000050AE0A9
S21440450050EA010208BF704730B511F0004502D5A9
S214404510404261EB41014FF4806404F132045FEAAB
S214404520915C3FF4DCAE4FF003025FEADC0C18BF50
S21440453003325FEADC0C18BF033202EBDC02C2F146
S214404540200300FA03FC20FA02F001FA03FE40EAD8
S2144045500E0021FA02F11444C1E600BF70B54FF0D8
S214404560FF0C4CF4E06C1CEA11541DBF1CEA1355BA
S21440457094EA0C0F95EA0C0F00F0DEF82C4481EA22
S214404580030621EA4C5123EA4C5350EA013518BF42
S21440459052EA033541F4801143F4801338D0A0FB2F
S2144045A002CE4FF00005E1FB02E506F00042E0FBDC
S2144045B003E54FF00006E1FB03569CF0000F18BFE2
S2144045C04EF0010EA4F1FF04B6F5007F64F540748A
S2144045D004D25FEA4E0E6D4146EB060642EAC6211D
S2144045E041EA55514FEAC52040EA5E504FEACE2E8A
S2144045F0B4F1FD0C88BFBCF5E06F1ED8BEF1004F8D
S21440460008BF5FEA500E50F1000041EB045170BD08
S21440461006F0004646EA010140EA020081EA03014C
S214404620B4EB5C04C2BFD4EB0C0541EA045170BD48
S21440463041F480114FF0000E013C00F3AB8014F1C2
S214404640360FDEBF002001F0004170BDC4F100040B
S214404650203C35DA0C341BDC04F11404C4F120058C
S21440466000FA05F320FA04F001FA05F240EA0200E7
S21440467001F0004221F0004110EBD37021FA04F61D
S21440468042EB06015EEA430E08BF20EAD37070BDD7
S214404690C4F10C04C4F1200500FA04F320FA05F036
S2144046A001FA04F240EA020001F0004110EBD37038
S2144046B041F100015EEA430E08BF20EAD37070BDA8
S2144046C0C4F1200500FA05F24EEA020E20FA04F381
S2144046D001FA05F243EA020321FA04F001F0004130
S2144046E021FA04F220EA020000EBD3705EEA430EA1
S2144046F008BF20EAD37070BD94F0000F0FD101F0D0
S2144047000046400041EB010111F4801F08BF013C08
S214404710F7D041EA060195F0000F18BF704703F046
S2144047200046520043EB030313F4801F08BF013DCD
S214404730F7D043EA0603704794EA0C0F0CEA135589
S21440474018BF95EA0C0F0CD050EA410618BF52EA43
S2144047504306D1D181EA030101F000414FF0000049
S21440476070BD50EA410606BF1046194652EA430657
S21440477019D094EA0C0F02D150EA013613D195EACB
S2144047800C0F05D152EA03361CBF104619460AD113
S21440479081EA030101F0004141F0FE4141F470011D
S2144047A04FF0000070BD41F0FE4141F4780170BD0D
S2144047B070B54FF0FF0C4CF4E06C1CEA11541DBF72
S2144047C01CEA135594EA0C0F95EA0C0F00F0A7F874
S2144047D0A4EB050481EA030E52EA03354FEA0131A1
S2144047E000F088804FEA03334FF0805545EA1313B4
S2144047F043EA12634FEA022245EA111545EA10657C
S2144048004FEA00260EF000419D4208BF964244F112
S214404810FD0404F5407402D25B084FEA3202B61A31
S21440482065EB03055B084FEA32024FF480104FF405
S214404830002CB6EB020E75EB030E22BFB61A754679
S21440484040EA0C005B084FEA3202B6EB020E75EB0C
S214404850030E22BFB61A754640EA5C005B084FEA74
S2144048603202B6EB020E75EB030E22BFB61A754641
S21440487040EA9C005B084FEA3202B6EB020E75EB4C
S214404880030E22BFB61A754640EADC0055EA060E0D
S21440489018D04FEA051545EA16754FEA06164FEA50
S2144048A0C30343EA52734FEAC2025FEA1C1CC0D1FC
S2144048B011F4801F0BD141EA00014FF000004FF089
S2144048C0004CB6E711F4801F04BF01430020B4F14A
S2144048D0FD0C88BFBCF5E06F3FF6AFAEB5EB030C02
S2144048E004BFB6EB020C5FEA500C50F1000041EBFF
S2144048F0045170BD0EF0004E4EEA113114EB5C04CC
S214404900C2BFD4EB0C0541EA045170BD41F480119E
S2144049104FF0000E013C90E645EA060E8DE60CEAA6
S214404920135594EA0C0F08BF95EA0C0F3FF43BAFC3
S21440493094EA0C0F0AD150EA01347FF434AF95EA7A
S2144049400C0F7FF425AF104619462CE795EA0C0F5E
S21440495006D152EA03353FF4FDAE1046194622E72B
S21440496050EA410618BF52EA43067FF4C5AE50EA05
S21440497041047FF40DAF52EA43057FF4EBAE12E7F5
S2144049804FF0FF3C06E000BF4FF0010C02E000BFD6
S2144049904FF0010C4DF804CD4FEA410C7FEA6C5CB9
S2144049A04FEA430C18BF7FEA6C5C1BD001B050EA5C
S2144049B0410C0CBF52EA430C91EA030F02BF90EA47
S2144049C0020F0020704710F1000F91EA030F58BF06
S2144049D0994208BF90422CBFD8176FEAE37040F068
S2144049E0010070474FEA410C7FEA6C5C02D150EA06
S2144049F0013C07D14FEA430C7FEA6C5CD6D152EAC1
S214404A00033CD3D05DF8040B704700BF8446104685
S214404A1062468C461946634600E000BF01B5FFF784
S214404A20B7FF002848BF10F1000F01BD4DF808ED54
S214404A30FFF7F4FF0CBF012000205DF808FB00BF25
S214404A404DF808EDFFF7EAFF34BF012000205DF87F
S214404A5008FB00BF4DF808EDFFF7E0FF94BF0120CC
S214404A6000205DF808FB00BF4DF808EDFFF7CEFFCD
S214404A7094BF012000205DF808FB00BF4DF808ED0C
S214404A80FFF7C4FF34BF012000205DF808FB00BFDD
S214404A904FEA410C7FEA6C5C02D150EA013C0AD1F5
S214404AA04FEA430C7FEA6C5C02D152EA033C02D1E7
S214404AB04FF0000070474FF0010070474FEA410248
S214404AC012F5001215D211D56FF47873B3EB62521B
S214404AD012D94FEAC12343F0004343EA505311F042
S214404AE0004F23FA02F018BF404270474FF00000D4
S214404AF0704750EA013005D111F0004008BF6FF012
S214404B00004070474FF00000704700BF7BB972B955
S214404B100029BEBF00204FF0004106E008BF002835
S214404B201CBF6FF000414FF0FF3000F0ADB9ADF163
S214404B30080C6DE904CE002909DB002B1ADB00F0D7
S214404B4035F8DDF804E0DDE9022304B07047404262
S214404B5061EB4101002B1BDB00F028F8DDF804E098
S214404B60DDE9022304B0404261EB4101524263EB6F
S214404B7043037047524263EB430300F017F8DDF8F7
S214404B8004E0DDE9022304B0404261EB4101704796
S214404B90524263EB430300F009F8DDF804E0DDE938
S214404BA0022304B0524263EB430370472DE9F047BB
S214404BB08C460D460446089E002B51D18A42174625
S214404BC06DD9B2FA82FEBEF1000F0BD0CEF1200CAA
S214404BD001FA0EF520FA0CFC02FA0EF74CEA050C28
S214404BE000FA0EF44FEA174A250CBCFBFAF81FFAF7
S214404BF087F90AFB18CC45EA0C4508FB09F3AB429B
S214404C000AD9ED1908F1FF3280F02381AB4240F219
S214404C102081A8F102083D44ED1AA4B2B5FBFAF093
S214404C200AFB105544EA054400FB09F9A14509D999
S214404C30E41900F1FF3380F00A81A14540F2078174
S214404C4002383C44A4EB090440EA08400021002E08
S214404C5061D024FA0EF4002334607360BDE8F08718
S214404C608B4207D9002E54D0002186E82100084602
S214404C70BDE8F087B3FA83F1002940F08E80AB425E
S214404C8002D3824200F2FA80841A65EB03050120C3
S214404C90AC46002E3FD086E81010BDE8F08712B92B
S214404CA00127B7FBF2F7B7FA87FEBEF1000F34D103
S214404CB0EB1B3A0C1FFA87FC0121B3FBF2F8250CDC
S214404CC002FB183345EA03450CFB08F3AB4207D911
S214404CD0ED1908F1FF3002D2AB4200F2D180804697
S214404CE0ED1AA3B2B5FBF2F002FB105543EA0544B9
S214404CF00CFB00FCA44507D9E41900F1FF3302D2AF
S214404D00A44500F2B8801846A4EB0C0440EA0840DC
S214404D109DE731463046BDE8F087CEF1200405FADF
S214404D200EF307FA0EF720FA04F83A0C25FA04F4C4
S214404D3048EA0308B4FBF2F14FEA184502FB114477
S214404D401FFA87FC45EA044501FB0CF3AB4200FA28
S214404D500EF409D9ED1901F1FF3080F08A80AB429C
S214404D6040F2878002393D44EB1A1FFA88F5B3FBC0
S214404D70F2F002FB103345EA034500FB0CF3AB426E
S214404D8007D9ED1900F1FF386FD2AB426DD9023822
S214404D903D44EB1A40EA01418FE7C1F1200722FA71
S214404DA007F88B4005FA01F448EA030320FA07FEA9
S214404DB04FEA134CFD404EEA040EB5FBFCF94FEAB1
S214404DC01E440CFB19551FFA83F844EA054509FBB7
S214404DD008F4AC4202FA01F200FA01FA08D9ED18DA
S214404DE009F1FF3043D2AC4241D9A9F102091D4432
S214404DF02D1B1FFA8EFEB5FBFCF00CFB10554EEA41
S214404E00054400FB08F8A04507D9E41800F1FF3533
S214404E1029D2A04527D902381C4440EA0940A4EBD1
S214404E200804A0FB02894C45C6464D4615D312D011
S214404E3056B1BAEB0E0364EB050404FA07F7CB4011
S214404E401F43CC40376074600021BDE8F0871846A9
S214404E50F8E69046E0E6C245EAD2B8EB020E69EBC9
S214404E6003050138E4E72846D7E7404691E7814600
S214404E70BEE7014678E702383C4445E7084608E77F
S214404E80A8F102083D442BE7704700BF014B186865
S214404E90704700BF0001002070B50F4E0F4D761BC7
S214404EA0B61018BF002405D0013455F8043B984787
S214404EB0A642F9D10A4E0B4D761B00F0A9FAB61061
S214404EC018BF002406D0013455F8043B9847A64244
S214404ED0F9D170BD70BD00BF1C5440001C5440004A
S214404EE0245440001C544000844641EA000313F01A
S214404EF003036DD1403A41D351F8043B40F8043B9C
S214404F0051F8043B40F8043B51F8043B40F8043B5E
S214404F1051F8043B40F8043B51F8043B40F8043B4E
S214404F2051F8043B40F8043B51F8043B40F8043B3E
S214404F3051F8043B40F8043B51F8043B40F8043B2E
S214404F4051F8043B40F8043B51F8043B40F8043B1E
S214404F5051F8043B40F8043B51F8043B40F8043B0E
S214404F6051F8043B40F8043B51F8043B40F8043BFE
S214404F7051F8043B40F8043B403ABDD2303211D39E
S214404F8051F8043B40F8043B51F8043B40F8043BDE
S214404F9051F8043B40F8043B51F8043B40F8043BCE
S214404FA0103AEDD20C3205D351F8043B40F8043B9E
S214404FB0043AF9D2043208D0D2071CBF11F8013B9C
S214404FC000F8013B01D30B8803806046704700BF62
S214404FD0082A13D38B078DD010F003038AD0C3F171
S214404FE00403D21ADB071CBF11F8013B00F8013B53
S214404FF080D331F8023B20F8023B7BE7043AD9D312
S214405000013A11F8013B00F8013BF9D20B780370E6
S2144050104B7843708B7883706046704770B48607D1
S21440502046D0541E002A41D0CAB2034602E014F1CC
S214405030FF343BD303F8012B9D07F8D1032C2ED920
S214405040CDB245EA05250F2C45EA054519D903F1A9
S21440505010022646103E0F2E42F8105C42F80C5CBA
S21440506042F8085C42F8045C02F11002F2D8A4F15F
S214405070100222F00F0204F00F041032032C1344E7
S2144050800DD91E462246043A032A46F8045BFAD84F
S214405090221F22F003020432134404F003042CB10E
S2144050A0C9B21C4403F8011B9C42FBD170BC70473C
S2144050B014460346C2E700BF024B13B1024800F055
S2144050C005B8704700000000D95040000023014654
S2144050D01A46184600F01EB838B50A4C0A4D641BEE
S2144050E0A4100AD004F18043013B05EB8305013C44
S2144050F055F804399847002CF9D1BDE8384000F0FF
S21440510091B900BF3454400030544000704700BF4F
S214405110704700BF2DE9F8432C4D06462868984650
S2144051200F469146FFF7F2FF294B1C68D4F84831EA
S214405130002B3ED05A681F2A1CDC02F1010E76B1C5
S21440514003EB82010124C1F88890D3F8880194408B
S2144051502043022EC3F88801C1F8088123D00232CA
S214405160C3F804E0286843F82270FFF7D1FF002018
S214405170BDE8F883174B0BB34FF4C870AFF300800D
S2144051800346D8B1D4F848210260002141600A465F
S214405190C4F848014FF0010EC0F88811C0F88C11D1
S2144051A0002EDCD0CCE7D3F88C110C43C3F88C41EE
S2144051B0D5E704F5A673C4F84831BBE72868FFF77F
S2144051C0A7FF4FF0FF30BDE8F88300BF3005002052
S2144051D00C544000000000000100000002000000E7
S2144051E0040000000800000010000000200000003E
S2144051F040000000800000000001000000020000A7
S2144052000004000000000000FBC800007A91010086
S21440521002590200171F03003FE3030001A50400E4
S214405220E6630500781F060044D70600D78A0700C5
S214405230C33908009DE30800FB87090079260A0069
S214405240B4BE0A004F500B00EFDA0B00405E0C0075
S214405250F0D90C00B34D0D0041B90D00591C0E009D
S214405260BD760E0035C80E0090100F00A04F0F0000
S2144052703F850F004BB10F00AAD30F0046EC0F003E
S21440528010FB0F000000100010FB0F0046EC0F0054
S214405290AAD30F004BB10F003F850F00A04F0F0061
S2144052A090100F0035C80E00BD760E00591C0E003B
S2144052B041B90D00B34D0D00F0D90C00405E0C0016
S2144052C0EFDA0B004F500B00B4BE0A0079260A00F6
S2144052D0FB8709009DE30800C3390800D78A07000A
S2144052E044D70600781F0600E663050001A50400C3
S2144052F03FE30300171F0300025902007A910100A2
S214405300FBC80000000000000437FFFF856EFEFF6C
S214405310FDA6FDFFE8E0FCFFC01CFCFFFE5AFBFFBD
S214405320199CFAFF87E0F9FFBB28F9FF2875F8FFBC
S2144053303CC6F7FF621CF7FF0478F6FF86D9F5FFF8
S2144053404B41F5FFB0AFF4FF1025F4FFBFA1F3FFCC
S2144053500F26F3FF4CB2F2FFBE46F2FFA6E3F1FF84
S2144053604289F1FFCA37F1FF6FEFF0FF5FB0F0FF01
S214405370C07AF0FFB44EF0FF552CF0FFB913F0FFA3
S214405380EF04F0FF0000F0FFEF04F0FFB913F0FF6A
S214405390552CF0FFB44EF0FFC07AF0FF5FB0F0FF40
S2144053A06FEFF0FFCA37F1FF4289F1FFA6E3F1FF46
S2144053B0BE46F2FF4CB2F2FF0F26F3FFBFA1F3FF4B
S2144053C01025F4FFB0AFF4FF4B41F5FF86D9F5FF4B
S2144053D00478F6FF621CF7FF3CC6F7FF2875F8FF17
S2144053E0BB28F9FF87E0F9FF199CFAFFFE5AFBFF3E
S2144053F0C01CFCFFE8E0FCFFFDA6FDFF856EFEFF3F
S2144054000437FFFF7371727400000000080100202B
S214405410F8B500BFF8BC08BC9E467047B95040007F
S214405420F1004000F8B500BFF8BC08BC9E46704787
S208405430CD00400026
S20C40543478F7FF7F010000003D
S21440543CBFF35F8F0138FBD1704764030902080045
S21440544CA51140004D1140004D1340006111400025
S21440545C00000000A9144000691140005D11400096
S21440546C61114000111340009000002044000020C1
S21440547C000000004C000020A4000020090243005D
S21440548C020100C03209040000010202010005249A
S21440549C0010010424020205240600010524010321
S2144054AC010705830340001009040100020A0000AE
S2144054BC000705810240000007050202400000007C
S2144054CC1201000202000040EB030424000101021A
S2144054DC0001000010000020240000200003000003
S2144054EC000000000000000000000000000000006B
S2144054FC000000000000000000000000000000005B
S21440550C00000000000000000403090441746D65AF
S21440551C6C00434443205669727475616C20434F4B
S21440552C4D20506F7274000100093D0001000000D0
S21440553C080100200000000000000000F4030020DA
S21440554C5C040020C40400200000000000000000A2
S21440555C00000000000000000000000000000000FA
S21440556C00000000000000000000000000000000EA
S21440557C00000000000000000000000000000000DA
S21440558C00000000000000000000000000000000CA
S21440559C00000000000000000000000000000000BA
S2144055AC00000000000000000000000000000000AA
S2144055BC000000000000000000000000000000009A
S2144055CC000000000000000000000000000000008A
S2144055DC000000000000000000000000000000007A
S2144055EC01000000000000000E33CDAB34126DE617
S2144055FCECDE05000B000000000000000000000080
S21440560C0000000000000000000000000000000049
S21440561C0000000000000000000000000000000039
S21440562C0000000000000000000000000000000029
S21440563C0000000000000000000000000000000019
S20840596CD41D0020E1
S804403D215D
