:020000040040BA
:1000000040500020DD514000D9514000D9514000FE
:10001000D9514000D9514000D951400000000000A2
:10002000000000000000000000000000D951400066
:10003000D951400000000000D9514000097E400025
:100040002D7E4000D9514000D9514000D951400087
:10005000D9514000D9514000D95140000000000062
:10006000157E4000217E400000000000614C4000F1
:10007000754C400000000000D9514000D9514000AB
:100080000000000000000000D9514000D95140009C
:10009000D9514000D9514000D9514000D9514000B8
:1000A000D9514000D951400000000000000000007C
:1000B00000000000D9514000D9514000D951400002
:1000C000D9514000D9514000D951400010B5054CDC
:1000D000237833B9044B13B10448AFF300800123F4
:1000E000237010BD700A0020000000006CF6400074
:1000F0000C4B43B10C480D4910B5AFF300800C48D0
:10010000036823B910BD0A48036833B97047094B27
:10011000002BF7D0BDE810401847064B002BF5D058
:10012000184700BF000000006CF64000740A002071
:100130006CF640000000000010B584B00446437C1B
:10014000102B0FD001238DF80F30227C0132A17BC0
:1001500020680DF10F0300930123D2B2044CA04795
:1001600004B010BD1230034B98478DF80F00ECE738
:10017000F12F4000F50E400010B584B00446417CDC
:100180001230084B984704AB03F8010D227C013272
:10019000A17B206800930123D2B2034CA04704B096
:1001A00010BD00BF490F4000F12F400010B584B0D2
:1001B0000446437C102B0FD001238DF80F30227C96
:1001C0000132A17B20680DF10F0300930123D2B20D
:1001D000044CA04704B010BD1230034B98478DF873
:1001E0000F00ECE7F12F4000710F400008B5437C91
:1001F000022B00D008BD0A4B1B8813F0010FF9D069
:10020000827C084B1A70C27C5A70054A138823F00E
:1002100001031B041B0C1380034B9847EAE700BF44
:10022000541E0020E80B0020F530400010B582B0CD
:1002300004462120154B9847637C022B04D02120D3
:10024000134B984702B010BD124B1B8813F0020FDE
:10025000F5D0E27CA37C03EB02239BB2ADF8063021
:10026000BDF806100B4A13880B439BB2138013880A
:1002700023F002031B041B0C1380BDF8060080B2A0
:10028000054B9847054B9847D9E700BF8B4940007D
:10029000A5494000541E0020991F4000F530400041
:1002A00008B5036923F07F4323F0FF03B3F5807F94
:1002B00000D008BD074B1B8813F0040FF9D0054A86
:1002C000138823F004031B041B0C1380024B984774
:1002D000EFE700BF541E0020F530400008B5036969
:1002E00023F07F4323F0FF03B3F5807F00D008BDE8
:1002F000074B1B8813F0080FF9D0054A138823F029
:1003000008031B041B0C1380024B9847EFE700BF48
:10031000541E0020F530400008B5036923F07F43E8
:1003200023F0FF03B3F5807F00D008BD074B1B8887
:1003300013F0100FF9D0054A138823F010031B04A3
:100340001B0C1380024B9847EFE700BF541E0020A0
:10035000F530400008B5214B1B8813F0200F39D031
:100360001F4B198859B9036923F07F4323F0FF031A
:10037000B3F5807F2ED10122194B1A802AE04B1E43
:100380009BB2092B07D90B2911D1437C012B21D119
:10039000FF2383740FE00139427C124B03EBC11140
:1003A0001230114B98470E4A1388013313800C4BBF
:1003B0001B880C2B0ED1094A138823F020031B0441
:1003C0001B0C1380094A137843F0010313700022B9
:1003D000034B1A80064B984708BD00BF541E0020EF
:1003E0008E0A00203018002029314000F01C002027
:1003F000F530400008B5214B1B8813F0400F39D071
:100400001F4B198859B9036923F07F4323F0FF0379
:10041000B3F5807F2ED10122194B1A802AE04B1EA2
:100420009BB2092B07D90B2911D1437C012B21D178
:10043000FF2383740FE00139427C124B03EBC1119F
:100440001230114B98470E4A1388013313800C4B1E
:100450001B880C2B0ED1094A138823F040031B0480
:100460001B0C1380094A137843F002031370002217
:10047000034B1A80064B984708BD00BF541E00204E
:10048000900A00200013002029314000F01C0020B9
:10049000F530400008B5254B1B8813F4807F05D04C
:1004A000234B1B88A3B9437C062B02D0214B9847D2
:1004B00008BD062220491230204B9847204A137865
:1004C00043F0080313701A4A138801331380EDE7D1
:1004D0005A1E92B2B2F5806F02D2427C122A16D016
:1004E00040F201429342E1D1036923F07F4323F0BC
:1004F000FF03B3F5807FD9D100220D4B1A800B4A40
:10050000138823F480731B041B0C1380CEE70D4962
:1005100010440A4B98470A4A137843F010031370AB
:10052000034A138801331380C0E700BF541E002024
:100530008C0A0020F5304000F41C002029314000D6
:10054000F01C0020EC12002008B5437C182B00D0D2
:1005500008BD0C4B1B8813F4007FF9D018220A4900
:1005600012300A4B9847074A138823F400731B0480
:100570001B0C1380064A137843F004031370054BD9
:100580009847E5E7541E0020181800202931400044
:10059000F01C0020F530400010B588B002238DF823
:1005A000083003238DF8093053238DF80A30652372
:1005B0008DF80B3070238DF80C3020228DF80D2033
:1005C00031238DF80E3033218DF80F108DF8102067
:1005D00032228DF8112030248DF812408DF813202E
:1005E0008DF8143000228DF815208DF81630372143
:1005F0008DF817103A218DF818108DF819308DF8F4
:100600001A408DF81B1035238DF81C3034238DF8DB
:100610001D308DF81E20027C0132817B006802AB08
:1006200000931723D2B2024CA04708B010BD00BF00
:10063000F12F400010B582B0437C027C0132817BF7
:10064000044654F8120B0094D2B2024CA04702B0F8
:1006500010BD00BFF12F400010B582B0027C013206
:10066000817B0068034B00931023D2B2024CA04759
:1006700002B010BDA01D0020F12F400070B584B065
:100680000546012604AC04F8016D064B98472A7C08
:100690003244A97B286800943346D2B2024CA0476A
:1006A00004B070BD59364000F12F4000817B3329E2
:1006B0000BD010B582B0034653F8100B0093012302
:1006C0000F22024CA04702B010BD7047F12F40002E
:1006D000F0B583B00646104C104F2346221FA4F1FC
:1006E000080138460E4DA847A4F11805A4F10C03E3
:1006F0000093A4F11003A4F1140229463846094CD2
:10070000A047327C0132B17B306800951C23D2B205
:10071000054CA04703B0F0BD000F002060140E4050
:10072000174F400005504000F12F4000F0B585B054
:100730000446437C1C2B0FD001238DF80F30227C04
:100740000132A17B20680DF10F0300930123D2B287
:10075000114CA04705B0F0BD104D1C2229461230A7
:100760000F4B98470F4EAB696A69296930460E4FA7
:10077000B847AB686A682968E868009030460B4D56
:10078000A8470B4A13889BB243F00403138000234D
:100790008DF80F30D3E700BFF12F4000E80E0020A6
:1007A0002931400060140E40714F400079504000E4
:1007B000541E002030B583B00446104D8022002125
:1007C00028460F4B98470F4B1868294641F8030BF2
:1007D000627C04F112000C4B984729460B480C4BE5
:1007E00098470C4B1870227C0132A17B2068009343
:1007F0000123D2B2084CA04703B030BD700F0020D7
:1008000069964000E8D4400029314000040F0020E0
:10081000B97340006C0F0020F12F4000437C03B1FE
:100820007047F0B583B00446134D202200212846BE
:10083000124B984729461248124B9847124B187092
:1008400058B1114D0123227C0132A17B2068009513
:10085000D2B20E4CA04703B0F0BD0D4E80273A46F1
:1008600000213046054B98473B463246294604480E
:10087000084EB0472023E6E74C0F00206996400061
:10088000040F0020397440006C0F0020F12F40004D
:10089000700F0020C5214000437CBBB910B582B069
:1008A0000B4A127882B10A490133DBB2CA5C002AD2
:1008B000FAD1027C0132817B0068054C0094D2B2EF
:1008C000044CA04702B010BD1346F2E7704700BFCA
:1008D000700F0020F12F4000437C03B1704710B52A
:1008E00082B0027C0132817B0068044B00930423B8
:1008F000D2B2034CA04702B010BD00BF340F00209D
:10090000F12F400030B583B00446114D8022002104
:100910002846104B9847104B1868294641F8030B9E
:10092000627C04F112000D4B9847012229460C48C5
:100930000C4B98470C4B1870227C0132A17B20682D
:1009400000930123D2B2094CA04703B030BD00BFD1
:10095000700F002069964000E8D440002931400023
:10096000280F0020796C40006C0F0020F12F400010
:10097000437C042B00D070472DE9F04184B004463D
:10098000042202A91230144EB0470299C1EB411162
:10099000DFF8588089004046104B9847104F387058
:1009A000104D03AB7C2229464046DFF84480C04707
:1009B0003870043D0422294603A8B047039B043342
:1009C000227C0132A17B20680095DBB2D2B2064CBA
:1009D000A04704B0BDE8F081293140005D724000BD
:1009E0006C0F0020740F0020F12F4000280F002012
:1009F000116E400010B584B00446437C7BB1FF23E8
:100A00008DF80F30227C0132A17B20680DF10F039D
:100A100000930123D2B2064CA04704B010BD054894
:100A2000054B9847054B18708DF80F00EAE700BF9B
:100A3000F12F4000280F0020457240006C0F00206D
:100A400010B584B004461230074B984704AB03F846
:100A5000010D227C0132A17B206800930123D2B2D8
:100A6000024CA04704B010BD59214000F12F4000B6
:100A700010B584B00446094B98470290084B98473C
:100A80000390227C0132A17B206802AB00930823F3
:100A9000D2B2044CA04704B010BD00BFE920400012
:100AA00015214000F12F400030B585B00446437C4D
:100AB000442B0FD001238DF80F30227C0132A17B13
:100AC00020680DF10F0300930123D2B20F4CA04711
:100AD00005B030BD0E4D4422294612300D4B9847CB
:100AE00028460D4B98470D4A13889BB243F00803E4
:100AF00013800B4B1B7813F0200F03D100238DF8CC
:100B00000F30DAE7074B9847F8E700BFF12F4000B6
:100B1000940A002029314000F1274000541E002093
:100B2000C81C0020011E400010B582B0027C0132BA
:100B3000817B0068034B00934423D2B2024CA04750
:100B400002B010BDB01D0020F12F400010B584B0E0
:100B50000446437C7BB101238DF80F30227C0132A7
:100B6000A17B20680DF10F0300930123D2B20C4C3E
:100B7000A04704B010BD0B4B98470B4A13889BB29B
:100B800043F008031380094B1B7813F0200F03D1A7
:100B900000238DF80F30E1E7054B9847F8E700BFD9
:100BA000F12F40007D274000541E0020C81C00206B
:100BB000011E400030B585B00446437C602B0FD049
:100BC00001238DF80F30227C0132A17B20680DF1CA
:100BD0000F0300930123D2B20F4CA04705B030BDE4
:100BE0000E4D6022294612300D4B984728460D4B7A
:100BF00098470D4A13889BB243F0100313800B4BA8
:100C00001B7813F0200F03D100238DF80F30DAE7A3
:100C1000074B9847F8E700BFF12F4000D80A0020A3
:100C20002931400039284000541E0020C81C0020F3
:100C3000CD1E400010B582B0027C0132817B00687D
:100C4000034B00936023D2B2024CA04702B010BD08
:100C5000F41D0020F12F400010B584B00446437C01
:100C60007BB101238DF80F30227C0132A17B2068FB
:100C70000DF10F0300930123D2B20C4CA04704B036
:100C800010BD0B4B98470B4A13889BB243F01003DF
:100C90001380094B1B7813F0200F03D100238DF82C
:100CA0000F30E1E7054B9847F8E700BFF12F400010
:100CB00005284000541E0020C81C0020CD1E400006
:100CC0002DE9F041144C25686168294400231A4637
:100CD00001392846114EB04706466168B1F5803F9C
:100CE0000ED30024DFF83C800B4F2846C047064354
:100CF00005F580350134E4B27968B4EB114FF4D3D3
:100D0000054B1868441E00231A462144044CA04792
:100D10003043BDE8F08100BF00100020AD2A400044
:100D2000452A40005529400000B583B002AA00239F
:100D300022F8023D0146044B1868044B9847BDF861
:100D4000060003B05DF804FB001000209531400060
:100D500008B90020704710B50C46034B9847A042D5
:100D600014BF0020012010BD290D40002DE9F843DB
:100D70000D4616461A4BDC6804FB00F4194B196843
:100D800021442846184B984710B90020BDE8F88345
:100D900071B6144F3868204406F1FF3800231A4614
:100DA00000EB0801DFF84C90C84781463868002303
:100DB0003246294620440D4DA84749EA00093868C3
:100DC000204400231A4600EB0801094CA04761B6F5
:100DD00059EA000314BF01200020BDE8F88300BFDA
:100DE000F00F002000100020D59440007929400029
:100DF000452A4000AD2A400070B582B04AF6AA23C9
:100E0000ADF80030ADF80200019171B60F4C2168C9
:100E10006368194400231A460139A0680C4DA8479D
:100E20000546002308226946A0680A4EB0470543DC
:100E300021686368194400231A460139A068064CEA
:100E4000A04761B6284302B070BD00BF001000206B
:100E5000AD2A400079294000452A4000234B1B68F9
:100E6000C3F30323073B072B38D8DFE803F004372D
:100E7000171F3727372F1E4B4FF482021A604FF48B
:100E800080325A601A4A136851680B44A3F1080172
:100E90009160991FD160043B13617047144B4FF46C
:100EA00084021A604FF400325A60EBE7104B4FF4A3
:100EB00088021A604FF480225A60E3E70C4B4FF42B
:100EC00090021A604FF400225A60DBE7084B4FF49F
:100ED000A0021A604FF480125A60D3E7044B4FF41B
:100EE00082021A604FF480325A60CBE740070E400E
:100EF0000010002010B500220E4B1A700E4C10226C
:100F000021460E4B98470E4B5B68A3F50053626871
:100F10009A4201D9032010BDE3687E2B01D9052038
:100F200010BD084B984708B1062010BD0122014BA7
:100F30001A7010BD380B0020F00F0020293140003E
:100F400000100020C10C400008B5074B1B780BB9FE
:100F5000022008BD8A1E92B2811C0088034B98476C
:100F6000002818BF032008BD380B00206D0D40007D
:100F700010B5102201460E480E4B984708B10220CA
:100F800010BD0B4B198958680B4B984708B90320C3
:100F900010BD074B59681889084B984708B10420C1
:100FA00010BD0024064B1C70064B9847204610BD10
:100FB000F00F002049314000510D4000F90D400074
:100FC000380B00205936400010B5064C4FF40D7216
:100FD00000212046044B984721460020034B9847A8
:100FE00010BD00BF1410002069964000516C4000F5
:100FF0002DE9F04F83B0841EA1F1020AA2F1020B89
:10100000861D00F10409184DB4F90200B04636F906
:10101000023B03FB03F300FB0030A847134B984748
:10102000134FB8472AF8020F34F9020FA847CDE949
:101030000001B8F90000A847DDE90023DFF834809B
:10104000C04707A3D3E90023DFF82C80C047B84787
:101050002BF8020F4C45D7D103B0BDE8F08F00BF8D
:10106000F8C1631ADCA5AC4055884000557E4000AD
:10107000818E4000517E40002189400070B50D46B0
:10108000134CB0F90000A0472946124B984706467A
:10109000114DA847A04701463046104B9847104BCA
:1010A000984700220F4B104CA047104B984700B2B6
:1010B00080EAE074A4EBE0743046A847234602B20D
:1010C0000B490C480C4CA047013018BF012070BDE3
:1010D000E59040008D9140002D944000798F4000B4
:1010E0007988400000408F4021894000818E400077
:1010F00028D6400048120020A57940002DE9F04193
:1011000006460D463D4CB0F90000A04729463C4B31
:10111000984780463B4FB847A047014640463A4B68
:1011200098473A4B98470022394B3A4CA0473A4BE4
:10113000984700B280EAE074A4EBE0744046B847F8
:10114000234602B235493648364CA047B0F1FF3F3E
:101150004DD02A4CB6F90200A0472946284B9847A3
:101160008046B847A04701464046274B9847274B43
:1011700098470022264B274CA047274B984700B2A0
:1011800080EAE074A4EBE0744046B847234602B21C
:1011900022492348234CA047B0F1FF3F2AD0174CE7
:1011A000B6F90400A0472946154B98470646B847AC
:1011B000A04701463046144B9847144B98470022ED
:1011C000134B144CA047144B984700B280EAE074CC
:1011D000A4EBE0743046B847234602B20F491048EA
:1011E000104CA047013018BF0120BDE8F08100205D
:1011F000BDE8F0810020BDE8F08100BFE59040002F
:101200008D9140002D944000798F400079884000F6
:1012100000408F4021894000818E400030D6400040
:1012200048120020A579400010B504232E4A2F490A
:101230002F48304CA047B0F1FF3F42D00323022299
:101240002D492B48A047B0F1FF3F3CD02B4B1A78DB
:101250005B782B492648A047B0F1FF3F35D02449A1
:101260002848294B9847B0F1FF3F30D02049274804
:10127000254B9847B0F1FF3F2BD01D492448224B06
:101280009847B0F1FF3F26D0194922481E4B984796
:10129000B0F1FF3F21D016491F481B4B9847B0F1D2
:1012A000FF3F1CD012491D48174B9847B0F1FF3F34
:1012B00017D00F491A48144B9847013018BF012026
:1012C00010BD002010BD002010BD002010BD00206A
:1012D00010BD002010BD002010BD002010BD00205A
:1012E00010BD002010BD00BF10D5400020D540002B
:1012F00048120020A579400038D54000E80B0020B6
:1013000050D5400068D540007579400080D5400038
:1013100094D54000A4D54000B4D54000D4D54000B9
:10132000FCD54000000000002DE9F04F8FB00646CC
:101330008946524BD3F820A0D3F82480504C002586
:1013400000950BAB0CAA0DA920464E4FB84708AB31
:1013500009AA0AA920464C4CA0474C4C8022294699
:1013600020464B4B9847BDF934204A4920464A4F06
:10137000B8472046494DA847BDF930204849201DAF
:10138000B8472046A847BDF92C20464904F10D0076
:10139000B8472046A847B9F1000F5AD1BDF93030FF
:1013A000BDF93420BDF92C1000913F4904F114001F
:1013B000B847002300930BAB0CAA0DA93048314C61
:1013C000A047122231493948394B9847002840F04C
:1013D000B581364B9B68002B33D1364B9847364945
:1013E0003248364B9847B0F1FF3F00F0AB812F49B0
:1013F0003348344B9847B0F1FF3F00F0A581B9F175
:10140000000F32D1294930482E4B9847B0F1FF3FA9
:1014100000F09C81BDF93030BDF93420BDF92C10AD
:1014200000912A492148254CA047B0F1FF3F00F028
:101430008F811E492648234B9847B0F1FF3F00F0AB
:1014400089811A48C168234B984700284AD0002058
:1014500075E1BDF93030BDF93420BDF92C10009193
:101460001D491E480C4CA047A3E710491C48154BCA
:101470009847B0F1FF3FCDD1002060E1B01D0020C2
:1014800060140E4005504000174F40006C120020C1
:1014900069964000B4D84000059740000D774000A1
:1014A000B8D84000C4D84000D0D84000481200202E
:1014B000796C40002912400020D94000A5794000F5
:1014C00030D940007579400038D9400050D94000EB
:1014D00068D940005D724000F8D8400080120020BA
:1014E00044D94000BDF92430BDF92820BDF92010B1
:1014F00000919F499F48A04CA047B0F1FF3F00F0EA
:101500002B81B388F288718800919C499948A04743
:10151000B0F1FF3F00F02281328999499548A047F8
:10152000B0F1FF3F00F01C81B6F90A00954B9847D7
:10153000954C8DA3D3E90023A047944B98470746C9
:10154000934DA847934B984701463846924B98478E
:10155000924B98470022924BA047924B984700B27B
:1015600080EAE074A4EBE0743846A847234602B250
:101570008D498048804CA047B0F1FF3F00F02681A4
:101580005046804B984700224FF07C537E4CA0473A
:101590007E4B98478146854906F10C00844CA04754
:1015A0004FF06E5106F11200A04706F15A0406F5FD
:1015B000BD7B7F4FB2464946A4F14200B847A4F133
:1015C0003C057C4E02AA05A92846B047494605A815
:1015D000B8474FF0725102A8B8470C35A542F1D177
:1015E00075492046B84748345C45E4D14046654BD0
:1015F000984700224FF07C53634DA847634B9847B0
:1016000080460AF29A2B6A4F4146A4F14200B8473D
:10161000A4F13C05674E02AA05A92846B0474146F9
:1016200005A8B8474FF0725102A8B8470C35A5423B
:10163000F1D161492046B84748345C45E4D156466B
:101640005E4C41464846A0474FF08D41A0470746B3
:1016500002AA05A90AF55E70DFF858A1D0474946ED
:1016600005A8534CA0474FF07255294602A8A04741
:1016700002AA05A906F56170D047494605A8A0470A
:10168000294602A8A04702AA05A906F56470D0471A
:10169000494605A8A047294602A8A04702AA05A9CD
:1016A00006F56770D047414605A8A047294602A81D
:1016B000A04702AA05A906F56A70D047414605A8C9
:1016C000A047294602A8A04702AA05A906F56D7001
:1016D000D047414605A8A047294602A8A047364D55
:1016E000294606F57970A047294606F2EA30A04758
:1016F00006F5816406F58A662D4DDFF8BC80394613
:101700002046A8473946A01DA847394604F10C00D9
:10171000A847414604F11200A8471834B442EED15C
:1017200014492748274B9847B0F1FF3F50D0114844
:10173000254B9847B0FA80F0400900E000200FB038
:10174000BDE8F08F0020FAE70020F8E70020F6E778
:101750000020F4E70020F2E70020F0E70020EEE7A9
:101760000020ECE7AFF300804F1BE8B4814E7B3FD5
:1017700044ED400048120020A579400054ED40009F
:1017800064ED40005588400021894000D18E400022
:101790002D944000E5904000798F4000798840000A
:1017A00000408F40818E400030D640000E74DA3BFE
:1017B000FD104000F10F40000000C83C8D9140003A
:1017C00050D8400075794000457240000020B6E7CF
:1017D0000020B4E7000000002DE9F04F89B0064674
:1017E000A74BD3F820B0D3F824A00027009705AB6F
:1017F00006AA07A9A348DFF82893C847A24C80226D
:1018000039462046A14B9847BDF91C20A0492046E7
:10181000A04DA8472046DFF80C83C047BDF918202B
:101820009D49201DA8472046C047BDF914209B496B
:1018300004F10D00A8472046C047BDF91830BDF996
:101840001C20318A0391718A0291B18A0191BDF9FC
:1018500014100091924904F11400A847009705ABB9
:1018600006AA07A98748C8470A2221468D488E4BF9
:10187000984718B1002009B0BDE8F08F8B4B98470E
:101880008B4988488B4B9847B0F1FF3F00F0988117
:1018900084498948894B9847B0F1FF3F00F0928115
:1018A000738823F40063202B00F0528120D8042B8E
:1018B00000F03A810DD8012B3FD0022B40F070810F
:1018C00078497F487D4B9847B0F1FF3F3DD10020DC
:1018D000D1E7082B00F03281102B40F06181714973
:1018E0007848764B9847B0F1FF3F2ED10020C2E7F1
:1018F000B3F5807F00F040810ED8402B00F032819C
:10190000802B40F04D8167496F486C4B9847B0F190
:10191000FF3F1AD10020AEE7B3F5007F00F036811B
:10192000B3F5806F40F03C815E496848634B98474F
:10193000B0F1FF3F09D100209DE75A4964485F4B51
:101940009847B0F1FF3F00F03F817068614B9847C6
:10195000614C49A3D3E90023A047604B9847074651
:101960005F4DA8475F4B9847014638465E4B984706
:101970005E4B984700225E4BA0475E4B984700B2F3
:1019800080EAE074A4EBE0743846A847234602B22C
:1019900059494448474CA047B0F1FF3F00F0168139
:1019A00040495648454B9847B0F1FF3F00F0108141
:1019B0005846534B984700224FF07C53464CA04763
:1019C000464B98470446014606F108004D4B9847A0
:1019D00034494D48394B9847B0F1FF3F00F0FA8049
:1019E000214606F10A00474B98472E494748334B9A
:1019F0009847B0F1FF3F00F0EF805046404B9847CA
:101A000000224FF07C53344CA047344B984701469A
:101A100006F10C003B4B984722493D48274B98471D
:101A2000B0F1FF3F00F0DA80BDF91830BDF91C209D
:101A3000BDF91410009137491A481E4CA047B0F167
:101A4000FF3F00F0CD80738AB28A318A009132491B
:101A50001448A047B0F1FF3F00F0C480738813F42E
:101A6000006F40F0A7800F482C4B9847B0FA80F0E9
:101A7000400900E7AFF30080F8BA40D813A23C3E1B
:101A8000B01D002060140E406C12002069964000CA
:101A9000B4D8400005974000B8D84000C4D84000F2
:101AA000DCD6400048120020796C4000291240002A
:101AB0000CD74000A579400030D94000757940002E
:101AC0002CD7400060D7400098D74000C8D74000CE
:101AD0001CD740003588400021894000D18E40004D
:101AE0002D944000E5904000798F400079884000B7
:101AF00000408F40818E4000E0D74000F8D7400082
:101B0000558840007D10400008D840001CD8400097
:101B100030D8400034D8400054D8400045724000CE
:101B2000055040000D7740002F493048304B984712
:101B3000B0F1FF3F7FF409AF00209CE62A492D4811
:101B40002B4B9847B0F1FF3F7FF4FFAE002092E6A9
:101B500025492948264B9847B0F1FF3F7FF4F5AE61
:101B6000002088E620492548214B9847B0F1FF3FE7
:101B70007FF4EBAE00207EE61B4921481C4B9847C2
:101B8000B0F1FF3F7FF4E1AE002074E616491D4836
:101B9000174B9847B0F1FF3F7FF4D7AE00206AE6BD
:101BA00011491948124B9847B0F1FF3F7FF4CDAE71
:101BB000002060E6802215491548164B984752E7E9
:101BC000002058E6002056E6002054E6002052E6A9
:101BD000002050E600204EE600204CE600204AE6B9
:101BE000002048E6002046E6481200203CD740008E
:101BF000757940004CD7400074D7400088D740002A
:101C0000A8D74000B8D74000D8D740009817002088
:101C10006C120020293140002DE9F84F04460D4692
:101C2000122267496748684B984710B10020BDE809
:101C3000F88F6448C168654B9847002840F0AB8036
:101C400085B1B5F9002062495E48624B9847B0F112
:101C5000FF3F00F0AC8001245F4EDFF8A0A1DFF869
:101C600064B15BE022885D4956485A4B9847B0F111
:101C7000FF3F00F09380628859495248554B98477E
:101C8000B0F1FF3F00F08D80A388012B11D04D49AA
:101C90005448554B9847B0F1FF3F00F085804949C3
:101CA0005248514B9847B0F1FF3F6CD10020BDE83E
:101CB000F88F44494E484C4B9847B0F1FF3FEED166
:101CC0000020BDE8F88F87EAE77EAEEBE77E726A18
:101CD00002FB0EF242F3CF32736A642000FB03F37F
:101CE000D9174FEAEE7903FB09FC0EFB01CCA3FBED
:101CF0000E016144C00B40EA41406FF0630303FBF7
:101D00000203002F2DDB51465846324FB847B0F141
:101D1000FF3F4FD00134A4B2092C2DD035F9027FFA
:101D2000042CD0D887EAE77EAEEBE77E326A02FB6E
:101D30000EF242F3CF32336A642000FB03F3D9176B
:101D40004FEAEE7903FB09FC0EFB01CCA3FB0E016D
:101D50006144C00B40EA41406FF0630303FB0203A0
:101D6000CFE75242514658461A4FB847B0F1FF3FAD
:101D7000D0D10020BDE8F88F12491E481A4B984771
:101D8000B0F1FF3F19D00F481B4B9847B0FA80F0D5
:101D90004009BDE8F88F0020BDE8F88F0020BDE8BD
:101DA000F88F0020BDE8F88F0020BDE8F88F0020F4
:101DB000BDE8F88F0020BDE8F88F0020BDE8F88F5F
:101DC0009817002048120020796C40005D72400096
:101DD000CCD64000A5794000B01D00203CD6400084
:101DE00050D6400078D640007579400090D640002B
:101DF00064D6400050D8400045724000D0D6400024
:101E00002DE9F0410A220E490E480F4B9847A0B920
:101E10000E4C04F144080E4F0A4E0E4D54F8042F98
:101E200039463046A8474445F8D106480A4B9847FA
:101E3000B0FA80F04009BDE8F0810020BDE8F081F3
:101E400000D5400048120020796C4000AC1D0020F5
:101E50004CD54000A579400045724000F0B585B0F2
:101E6000012212491248134B9847D8B9124C04F179
:101E70004407002635460195029503950C4A0C212E
:101E800001A80E4B98470A2101A80D4B98470670F0
:101E9000214601A80B4B98470434BC42EBD10120EA
:101EA00005B0F0BD084B9847FAE700BF00D54000E9
:101EB00048120020796C4000B01D0020FD784000E1
:101EC0006132400095324000011E40002DE9F04192
:101ED0000A220E490E480F4B9847A0B90E4C04F148
:101EE00060080E4F0A4E0E4D54F8042F3946304606
:101EF000A8474445F8D106480A4B9847B0FA80F005
:101F00004009BDE8F0810020BDE8F081ECD440003C
:101F100048120020796C4000F01D00204CD5400094
:101F2000A579400045724000F0B585B00122124904
:101F30001248134B9847D8B9124C04F16007002699
:101F400035460195029503950C4A0C2101A80E4BCC
:101F500098470A2101A80D4B98470670214601A811
:101F60000B4B98470434BC42EBD1012005B0F0BDC7
:101F7000084B9847FAE700BFECD440004812002015
:101F8000796C4000F41D0020FD7840006132400073
:101F900095324000CD1E40002DE9F04788B08246C2
:101FA0003D4E05AB06AA07A930463C4CA04700278A
:101FB000009702AB03AA04A93046DFF82491C84772
:101FC000374C802239462046364B9847BDF91020C1
:101FD00035492046354DA8472046DFF80881C047DF
:101FE000BDF90C203249201DA8472046C047BDF945
:101FF0000820304904F10D00A8472046C047BDF92C
:102000000C30BDF91020BDF9081000912A4904F1E7
:102010001400A847009702AB03AA04A93046C8479A
:10202000122221462548264B984718B1002008B0B7
:10203000BDE8F0872148C168224B984708B10020CD
:10204000F5E7BDF91830BDF91C20BDF91410009159
:102050001D491A481D4CA047B0F1FF3F15D052460C
:102060001B491648A047B0F1FF3F10D0194B1A7812
:1020700019491248A047B0F1FF3F0AD00F48174B4B
:102080009847B0FA80F04009D1E70020CFE7002060
:10209000CDE70020CBE700BF60140E40174F400093
:1020A0006C12002069964000B4D8400005974000AB
:1020B000B8D84000C4D8400074D840003C0B002081
:1020C000796C40005D72400094D84000A5794000D2
:1020D000A4D84000C81C0020ACD840004572400085
:1020E000055040000D77400030B40949C869C30D60
:1020F0004202B2F5806243F1FF338878A2FB0045CB
:1021000000FB0355200D40EA053030BC704700BF8E
:102110001410002010B582B00B4C02AA42F8084DF2
:1021200001A90A480A4B98470A4B1870A078019AEF
:10213000A2FB0023580240EAD250C2F3CB2242EA6B
:10214000003002B010BD00BF14100020E8D44000E1
:10215000057540006C0F002070B505468021114BBD
:102160009847114B1B780BB1022070BD04460F4EEF
:102170008022002130460E4B98470E4B186831469E
:1021800041F8030BA2B228460B4B98470B49304647
:102190000B4B984718B90334034B1C7070BD0120DA
:1021A00070BD00BF21324000390B0020FC1C002014
:1021B00069964000E8D44000293140007C1D002091
:1021C000B174400070B5058C4FF6FF74A54213D072
:1021D000C1690D8875B16BB100263446955501343F
:1021E000E4B22646C56935F814500DB1A342F5D8BE
:1021F000204670BD0024FBE7154601F109060D21BC
:102200003046044B9847044682B229463046024B7A
:102210009847EDE721324000293140002DE9F84F81
:102220000446FF230370234E4FF0000AD146DFF827
:102230009C80214F86F8089031462048C0470028EE
:1022400035D1337A13F0200FF4D113F0100F2ED0C4
:102250001B4D4FF0800B5A4651462846194B984764
:102260005B462A4631461548DFF864B0D8473870D7
:102270002A782E2ADED0144B83F800A023789A42C5
:10228000D8D8DFF850B00BE00F4A13780133DBB237
:10229000137013F0800FCDD1EA5CE35C9A42C9D889
:1022A0009A42F1D23A7821462846D847ECE7BDE871
:1022B000F88F00BF7C1D0020610B0020CC1C00208B
:1022C0006C12002069964000600B002039744000B9
:1022D000C52140002931400030B583B0044680223A
:1022E0000021284B9847284B186820602146274832
:1022F000274B984710B1002003B030BD8021204605
:10230000244B98478DF807009DF807002044224B86
:10231000984721461D481E4B984708B10020EBE71F
:10232000802120461B4DA8478DF807009DF80730F7
:10233000DBB22F22E2549DF8070001302044164BF7
:10234000984780212046A8478DF807009DF8073060
:10235000234413F8013CFF2B03D09DF80700C0B2C3
:10236000CAE79DF807302344002203F8012C9DF8AA
:1023700007301C4404F8022C9DF807000238C0B254
:10238000BAE700BF69964000E8D44000CC1C0020AA
:10239000B9734000213240001D22400010B5084BA7
:1023A00098470446074B9847074BDB6A201A984228
:1023B00000DC10BD0548064B9847064B1870F8E73F
:1023C000E920400015214000B01D0020FC1C002029
:1023D000D9224000390B00202DE9F843254D8022F9
:1023E00000212846244B9847244C2278294624482B
:1023F000244B98472278244B1A700A242E46DFF883
:10240000A080224F3046C047387000282FD00728C0
:102410002AD131461E481F4B984728BB1E491C48ED
:102420001E4B984700BB1C4919481C4B9847D8B90C
:1024300019491748194B9847B0B9134D2A782F23DB
:10244000B3540132D2B22A70C2F18003DBB23244FB
:1024500011490F48DFF84C90C8472B781844287072
:10246000013C14F0FF04CDD10022044B1A70BDE8EA
:10247000F88300BF640B002069964000390B0020F0
:10248000FC1C002029314000E40B00206C0F0020D0
:10249000CC1C0020B97340007C1D00203974400022
:1024A0000D764000C521400008B50020644B9847D8
:1024B000644B1870644B1B7813F0010F49D0624BCA
:1024C0001B7813F0020F07D1002845D15E4A13781C
:1024D00043F0020313703FE05B4B1B7813F0040FD3
:1024E00010D0594B1B7813F0080F14D0564B1B78A3
:1024F00013F0100F18D030BB534A137843F0200369
:10250000137029E0514B984730BB4F4A137843F082
:102510000403137020E04E4B9847E8B14A4A137801
:1025200043F00803137017E04A4B9847A0B1464A9E
:10253000137843F010031370474A13889BB243F09B
:102540001803138008E0404A137803F00103137066
:1025500002E000223C4B1A703B4B1B7813F0200F1B
:102560004FF0100014BF3D4B3D4B9847364B1B7846
:1025700013F0200F21D03B4B1B7813F0010F1DD11E
:10258000384B1B7813F0020F24D1364B1B7813F015
:10259000040F2BD1334B1B7813F0080F31D1314B83
:1025A0001B7813F0100F38D12F4B1B78002B40D124
:1025B0002E4B1B6813F4803F3ED108BD00212C48F0
:1025C0002C4B98470028EFD0264A137803F0FE03DF
:1025D0001370E9E701212848264B98470028E3D0EB
:1025E000204A137803F0FD031370DDE72348244BE2
:1025F00098470028D8D01B4A137803F0FB031370C8
:10260000D2E700211F48204B98470028CCD0154A1C
:10261000137803F0F7031370C6E71C4900201A4B28
:1026200098470028C0D00F4A137803F0EF031370C7
:10263000BAE7174B984708BD164B9847BDE700BF50
:102640002D4140009C1D0020C81C0020C90F4000E7
:102650005D1E4000291F4000541E00208B49400091
:10266000A5494000F01C0020390B0020B01D0020BF
:1026700030180020291340000013002018180020F3
:10268000D9174000F41C0020191C4000EC12002057
:10269000D92340009D23400070B51D4B98471D4C29
:1026A0004FF020524FF0FF3120461B4DA8471B4EE4
:1026B0004FF020524FF0FF313046A84700224FF034
:1026C000FF312046164DA84700224FF0FF3130461B
:1026D000A84700224FF0FF312046124DA8470022A4
:1026E0004FF0FF313046A847012211462046A84747
:1026F0000D4B984704F5C26420460C4B98470021C7
:1027000020460B4B98474FF4F0620A4B5A6070BD5D
:102710002D364000000E0E40E14A400000100E40F1
:102720003548400041494000B14E40000529400075
:102730002B29400000040E4008B54FF480320121DF
:102740000748084B98470020074B9847074B984786
:102750000020074B9847074B9847074B984708BD01
:1027600010140E404F294000894C4000914D40000C
:10277000FD4D40003D4E4000DD4E4000144B154ADB
:102780001A6040F2FF725A60134A9A60134ADA6084
:10279000A2F5A202A2F52E721A6100225A61104A15
:1027A0009A61104ADA614FF4C8721A625A629A62E8
:1027B0004FF40052DA620C4A1A630C4A5A634FF023
:1027C00010629A633422DA6330221A64704700BFC1
:1027D000B01D002021010100B0710B00988E28006F
:1027E000007701000089FEFF1FF46C17567DAE0FC5
:1027F00008B544220149024B984708BDB01D00208E
:102800002931400010B40023094A4FF4004409481C
:1028100099B2032994BF42F8230042F8234003F100
:102820000C0142F8210001330C2BF1D110BC704790
:10283000F41D00200080FFFF08B560220149024B13
:10284000984708BDF41D00202931400070B544228E
:1028500000210F480F4CA047602200210E48A047DE
:1028600000230E4A13700E4A13800E4E04250E4CA0
:1028700029463046A0470028FAD10C4B98470C4B0C
:1028800098470123054A1370054A138070BD00BFA5
:10289000B01D002069964000F41D0020C81C0020D7
:1028A000541E0020A01D0020152B40007D27400055
:1028B0000528400038B5A1F10E03012B02D84FF0D6
:1028C000FF3038BDEFF3108472B6BFF35F8F002581
:1028D0000A4B1D70120222F07F4222F0FF0242F0EA
:1028E000B442C9B21143064B9847002CE9D10122EA
:1028F000024B1A70BFF35F8F62B638BDB80000207C
:102900006D000020836823F07F4323F4005343F0DD
:10291000254343F4005383607047436823F00F035B
:1029200001F00F010B4343607047436823F4E063F9
:1029300001F4E0610B4343607047436823F4805324
:1029400043607047436843F40053436070470A4351
:102950000261704708B5A0F58002C2F34F22112131
:102960000348044B9847002818BF102008BD00BF3B
:10297000000A0E40B52840002DE9F04F85B00091C7
:102980000393A0F58003C3F34F2AC0F308079346CF
:10299000002A4DD0DFF8A89009F5FE7511E0019AE4
:1029A00001212448244B984700283ED1009B234412
:1029B00000930AF1010A1FFA8AFA0027BBEB040B05
:1029C00032D0C7F5007302931C465B4528BF5C46B6
:1029D000CDF804A00AF500534FEA43283A46414691
:1029E0004846164EB0472246009909EB0700B0470B
:1029F0003819029A121B04EB080192B23944484478
:102A0000B047A9F10403A8F1040253F8041F42F8E7
:102A1000041FAB42F9D1039B002BC0D0019A0321C4
:102A20000448054B9847BFE7584605B0BDE8F08F0E
:102A30001046FAE7000A0E40B528400035954000E0
:102A4000EC0B00202DE9F04120F4FF5020F01F0096
:102A500021F4FF5121F01F0101F5FF541F3402B191
:102A6000106003B11C60A0F58004640AA4B20C4D90
:102A70000D44C5F34F25A54210D9DFF82C80082757
:102A8000084E224639464046B047034618B910342E
:102A9000A4B2AC42F5D31846BDE8F0810023FAE7B2
:102AA000FF1FC0FFB5284000000A0E402DE9F0418D
:102AB00020F4FF5020F01F0021F4FF5121F01F01EE
:102AC00001F5FF541F3402B1106003B11C60A0F582
:102AD0008004640AA4B20C4D0D44C5F34F25A542F1
:102AE00010D9DFF82C800927084E22463946404687
:102AF000B047034618B91034A4B2AC42F5D3184617
:102B0000BDE8F0810023FAE7FF1FC0FFB5284000B1
:102B1000000A0E4070B586B004460E4604230093AA
:102B200002AB0F220E210D480D4DA84718B11025FC
:102B3000284606B070BD0546042E28BF042656B1AF
:102B400002AA234604EB860152F8040B43F8040B57
:102B50008B42F9D1ECE73546EAE700BF000A0E40A8
:102B60000100002008B5C37B332B00F0AC80AA2BFA
:102B700000F0AE80EE2B00F0AB80037C023B9E2B7E
:102B800000F20E81DFE813F0A9000C01AC000C018B
:102B9000AF000C01B2000C010C010C010C010C0186
:102BA0000C010C010C01E8000C010C010C01EB0004
:102BB0000C010C010C010C010C010C010C010C01AD
:102BC0000C010C01B5000C01B8000C01BB000C019C
:102BD000BE000C01C1000C01C4000C010C010C0171
:102BE0000C010C010C01F1000C010C010C010C0199
:102BF0000C01F4000C010C010C010C010C010C0186
:102C00000C010C01CA000C01C7000C010C010C01E5
:102C10000C010C010C010C010C010C010C010C014C
:102C20000C010C010C01EE000C010C010C010C015B
:102C30000C010C010C010C010C010C010C010C012C
:102C40000C010C01CD000C01D0000C01D3000C01D3
:102C5000D6000C01D9000C01DC000C01DF000C01D6
:102C6000E2000C010C01F7000C01FA000C010C0150
:102C70000C010C010C01FD000C0100010C010C0108
:102C80000C010C0103010C0106010C0109010C01EE
:102C90000C010C010C010C010C010C010C010C01CC
:102CA0000C010C010C010C010C010C010C010C01BC
:102CB0000C010C010C010C010C010C010C010C01AC
:102CC0000C010C01E50001463748384B984708BD18
:102CD00001463748354B984708BD364B984708BDE5
:102CE000354B984708BD354B984708BD344B98473E
:102CF00008BD344B984708BD334B984708BD334B4C
:102D0000984708BD324B984708BD324B984708BDDD
:102D1000314B984708BD314B984708BD304B984719
:102D200008BD304B984708BD2F4B984708BD2F4B27
:102D3000984708BD2E4B984708BD2E4B984708BDB5
:102D40002D4B984708BD2D4B984708BD2C4B9847F5
:102D500008BD2C4B984708BD2B4B984708BD2B4B03
:102D6000984708BD2A4B984708BD2A4B984708BD8D
:102D7000294B984708BD294B984708BD284B9847D1
:102D800008BD284B984708BD274B984708BD274BDF
:102D9000984708BD264B984708BD264B984708BD65
:102DA000254B984708BD00BF00060E405930400033
:102DB00000080E40990540003506400059064000C5
:102DC0007D064000A90A4000290B40004D0B400041
:102DD000B50B4000350C4000590C4000D1064000B6
:102DE0002D074000B50740001D084000990840002D
:102DF0000509400071094000F5094000D90840006C
:102E0000410A4000710A4000ED0140002D024000DF
:102E1000A1024000DD0240001903400055034000BC
:102E2000F503400095044000490540003901400089
:102E300079014000AD014000AD06400010B50446E8
:102E40000068084B984700B910BD21790C31214426
:102E50002068054B98472379013323710023A36031
:102E6000F2E700BFAF514000C751400010B5044623
:102E700000682E4B9847E0281AD0A3680133A3605E
:102E800040F2FF72934220D0237923B1237B3C2B65
:102E90002BD0002323712379032B2ED9E37B772BAF
:102EA0002BD0AA2B29D0332B27D00023237110BD80
:102EB0008822002104F10C001D4B98470023237148
:102EC000A36020681B4B9847D7E70023A3602371BA
:102ED0002379022BDFD9A37BEE2BDCD0332BDAD086
:102EE000AA2BD8D00023237110BD2379012BEFD951
:102EF000637B042BECD0002323712179072903D9AC
:102F0000637C08338B4200D010BD0B4B1B78002B29
:102F1000FAD104F10C00094B98470028F4D120465F
:102F2000074B984700232371EEE700BF9B514000F9
:102F3000699640009F514000EC0D00200132400096
:102F4000652B4000AAB12DE9F041571EBFB20446DF
:102F50004E1E0F44074DDFF820802046A84700286A
:102F6000FBD016F8011F2046C047BE42F5D1BDE890
:102F7000F0817047A7514000B751400070B58822DA
:102F800000210C480C4CA0470C4D942632460021E1
:102F90002846A0470A4B2B600A4D3246002128469E
:102FA000A047094B2B600023084A1380084A13806E
:102FB00070BD00BFF01E002069964000581E002022
:102FC00000080E407C1F002000060E40781F0020E5
:102FD000EC1E002010B50348034CA0470348A0474F
:102FE00010BD00BF7C1F00206D2E4000581E002029
:102FF0002DE9F04180461D46124E01233370124CDC
:103000003C232370042363707723A370E170227143
:103010006571AFB23A46A11D06980C4B984761798D
:10302000063120460A4B98472544A871000AE871EA
:1030300007F1080221464046064B984700233370AB
:10304000BDE8F081EC0D0020F01E00202931400089
:1030500001324000452F4000F8B507460C46094DA7
:1030600001232B70084E0A79314604F10C00074BFE
:103070009847227931463846054B984700232B70F4
:10308000F8BD00BFEC0D0020F01E002029314000EB
:10309000452F400008B5124B1B8813B1013B104A65
:1030A0001380104A138801339BB2138041F2873298
:1030B00093420DD942F20F7293420DD90022094B6F
:1030C0001A80094A13889BB243F00203138008BD9B
:1030D0000F20064B984708BD0F20054B984708BDA9
:1030E000781F0020EC1E0020541E00208B49400059
:1030F000A54940000022014B1A807047781F00202C
:1031000008B50248024B984708BD00BF7C1F00204D
:103110003D2E400008B50248024B984708BD00BF4D
:10312000581E00203D2E400062B110B4431E0139EC
:10313000541E10FA84F013F8012F01F8012F834276
:10314000F9D110BC7047000070B40024104B1C80F3
:103150001646C2B10378DBB20A789A4215D1012330
:103160009CB2A6420AD9C25CD2B2013311F8015F07
:103170009542F5D0064B1C80012002E0044B1C80D8
:10318000002070BC70471046FBE70120F9E700BF44
:10319000EE0D00202DE9F0410024164B1C6031B3E8
:1031A0008C46074600EB010E4FF008084AF2010674
:1031B00017F8015B1388414603F0010405F0010094
:1031C00084424FEA55054FEA53031CBF73409BB23C
:1031D000013911F0FF01EFD113807745E8D1064B9B
:1031E0001D700822054B1A70024BC3F800C0BDE8E1
:1031F000F08100BFF00D0020ED0D0020F40D002047
:1032000000B583B002AA002322F8023D034B984781
:10321000BDF8060003B05DF804FB00BF9531400027
:1032200003784BB141B100230133DBB2C25C0AB178
:103230009942F9D8184670470023FBE7027862B13B
:1032400010B40146431C00F20124581A13F8012B54
:103250000AB1A342F9D110BC7047002070470000AA
:1032600038B5044680B10D46094B9847B0F5007F4C
:103270000BD82346184613F8012BAA4203D0002A84
:10328000F8D1002038BD38BD38BD002038BD00BFA2
:103290003D32400068B370B506460D46184B98475E
:1032A000112828D833782D2B15BF002401240120A4
:1032B0004FF0FF30335DB3B1A3F13001C9B209293A
:1032C0001BD8002202EB820203EB4203A3F130027F
:1032D0000134E4B2335D3BB1A3F13001C9B2092935
:1032E000F0D9002070BD002202FB00F22A6001200C
:1032F00070BD00207047002070BD002070BD00BF71
:103300003D3240002DE9F04F87B04FF400427A4B38
:103310005A607A4B98470B20794B9847794D4FF07C
:1033200020524FF0FF312846774EB047774C4FF090
:1033300020524FF0FF312046B04700224FF0FF31BE
:103340002846734EB04700224FF0FF312046B04769
:1033500000224FF0FF3128466E4DA84700224FF063
:10336000FF312046A84700206B4B98476B4CA04785
:103370000128FCD16A4C002120466A4B9847012362
:103380007C2219462046684CA0474FF040510F2040
:10339000664CA0470F20664DA8474FF040511020C3
:1033A000A0471020A8474FF040512120A0472120DE
:1033B000A8474FF040511220A0471220A8474FF0D5
:1033C00040511320A0471320A8474FF0405114202C
:1033D000A0471420A847574B0393574B04934FF42F
:1033E0000C630593474D4FF000624FF4C0612846CF
:1033F000DFF814B1D8470820DFF804A1D0474F4EBA
:1034000003A93046DFF86891C8473046DFF8648189
:10341000C047012130464A4FB8474FF000620C21A7
:103420003A48D8470920D04706F5007603A9304628
:10343000C8473046C04701213046B847DFF83891C9
:1034400049460B20A0470A224FF400612846DFF8C6
:103450002C81C0473B4B009358234FF400620B2153
:103460002846394FB8474FF400612846374EB047D9
:1034700049460C20A0470A224FF480512846C047F5
:10348000334B009358234FF480520B212846B84702
:103490004FF480512846B0474FF0C0511C20A04740
:1034A0004FF0C0511D20A0474FF0C0511E20A04733
:1034B0004FF0C0511F20A0474FF0C0511A20A04725
:1034C0004FF0C0511B20A04722491920A047224B92
:1034D0009847224C2046224B98472046214B98473C
:1034E0004FF480612046204B98470A2120461F4B0D
:1034F000984707B0BDE8F08F50140E406D42400071
:103500005D4E4000000E0E40E14A400000100E40AB
:1035100041494000354840004D4D4000714D40004C
:1035200060140E40014F400031514000C14940003D
:10353000A5494000000E27071C4E0E0000060E4055
:1035400097514000A17D4000214C40007D49400042
:10355000D57D400001000028E137400010140E40E6
:103560003B294000452940002B2940001B294000F1
:103570005B51400091514000580000283F484000F6
:103580002DE9F84303244FF01009DFF838800A4F83
:103590004846C0470F20C0473846084DA847484610
:1035A000074EB0470F20B0473846A847631E13F0B8
:1035B000FF04EDD1BDE8F8838AB220008900002025
:1035C000A54940008B494000174B0122C3F88020D9
:1035D000C3F88021002183F800131A604FF40062C1
:1035E0001A60C3F88021302183F80B131A601A6027
:1035F000C3F88021402183F80B131A604FF48072C6
:10360000C3F88020C3F88021102183F808131A60C2
:103610004FF40072C3F88020C3F88021202183F882
:1036200009131A60704700BF00E100E0094B012256
:10363000C3F880204FF40062C3F88020C3F88020D4
:103640004FF48072C3F880204FF40072C3F88020DA
:10365000704700BF00E100E0014A024B1A6070476A
:10366000050000A500140E4010B5074B196891F82D
:103670002230003318BF01234A7C096803480078D0
:10368000034CA04710BD00BFF80D0020010E002024
:103690004544400008B104207047334B9A685309F1
:1036A00003F5001303F207735B02D96B02F01F02EC
:1036B000012303FA02F20A4210D02B4B9B7B012B11
:1036C00004D00422284B9A7302207047274B1B78A2
:1036D000002BF6D00022264B1A60F2E710B5224BE1
:1036E0009B7B042B05D0012B19D0032B2CD103205D
:1036F00010BD01221C4B9A731D4B1B683BB91B4B21
:103700001A701B4B1B4959601A60022010BD002221
:10371000164B1A701848194B9847022010BD134BCE
:103720001B783BB1124B1B6813F4803F1AD0002268
:103730000F4B1A600C4B02229A73114A1A60012235
:103740005A74002283F8222000220E4B1A70064C75
:103750000D4B1C600D4B9847A07B022814BF002026
:10376000012010BD022010BD94000020000E00209A
:1037700010E000E0C0E1E40025CA820089000020DA
:10378000801A0600010E0020F80D00206936400066
:1037900010B5094B1B689989090441F60930074B9C
:1037A0009847044608B9204610BD034B18681230EC
:1037B000034B9847F7E700BFF80D0020D9444000BD
:1037C0000D45400008B5044B1B7803B108BD00202F
:1037D000024B9847FAE700BF010E0020B5444000B5
:1037E00008B50422034B9A73FF22034B1A70034B54
:1037F000984708BD94000020010E00200D444000B1
:103800002DE9F04395B08A4B98470446012805D02E
:10381000884B9847204615B0BDE8F083864B1B685F
:103820000122DA7300251D749D81844B9847294637
:103830004FF48040824B984730B97F4B1B6803247C
:103840009C737C4B9847E5E74FF4D57145F20850DF
:103850007B4B9847002840F090800022764B1B68F5
:10386000DB7B13F0010F40F0AA82002145F2031028
:10387000734B98470028E0D06F4D2E68714B9847E6
:10388000000CB0812B68DB7B13F0010F34D06E4B42
:1038900098470028D1D02B685A7DC2F3C30002F0AC
:1038A00007026A4951F822104FF47A7202FB01F2C2
:1038B000674951F8201002FB01F21A609A7C9209C4
:1038C00040F0B481997E587E1A7E920242EA8002CC
:1038D00042EAA112187FD97E490041EAE011C2F301
:1038E0000B02013201F0070102318A40D97D01F05B
:1038F0000F018A40920A5A604F4B1B68998909044C
:1039000043F207104E4B9847002896D04A4B1B684D
:10391000DA7B12F0010F00F09A819989090441F2D3
:103920003710474B9847002887D00123009308227F
:1039300000214848484DA84700283FF47EAF0121A8
:1039400004A8464B984700283FF477AF444B98476C
:1039500000283FF472AF9DF8103003F00F03012BE5
:1039600000F0BC81002B00F06E81022B00F0BB81C7
:10397000314B1B6810221A7469E1324B9847B0F141
:10398000FF3F00F01A82C0F30B00B0F5D57F7FF443
:1039900054AF012262E710F0804F05D0264B1A6821
:1039A000D37B43F00803D373234B1B68DB7B13F0FB
:1039B000010F3FF45AAF002145F60230204B9847E3
:1039C00000287FF452AF38E700F0C040B0F1804FDC
:1039D00027D0002145F60230194B984700283FF4C4
:1039E0002CAF154B1B6801229A814FF4803141F2B4
:1039F0000310134B984700283FF41FAF124B984712
:103A000000283FF41AAF0C4B1A68937CC3F383036E
:103A1000013B032B26D8DFE813F0F000F300F6009B
:103A2000F900054B1A68D37B43F00803D373D0E742
:103A300095364000C5374000F80D0020B7444000DF
:103A4000D94440000545400091374000ACED4000AE
:103A5000C8ED400033110800394540007946400068
:103A6000E146400012231374537D03F00700A3497D
:103A700051F820004FF47A7101FB00F1C3F3C30346
:103A80009F4850F8233003FB01F31360917E507E72
:103A9000137E9B0243EA800343EAA113C3F30B03A3
:103AA00040F6FF718B420FD0107FD17E490041EA72
:103AB000E011013301F0070102318B40D17D01F0AB
:103AC0000F018B409B0A53609189090443F2071050
:103AD0008C4B984700283FF4B0AE8B4B1B681B7C87
:103AE0003F2B40F2A0800021009101234FF400728F
:103AF0008648874DA84700283FF49FAE0025854E95
:103B000003A8B04700283FF498AE0135ADB2322D7E
:103B1000F6D1039E06F002067B4B1B689A7E597E07
:103B20001B7E9B0243EA810343EAA213C3F30B0308
:103B300040F6FF7293420ED1764F04A8B847002892
:103B40003FF47BAE0135ADB2352DF6D96E4B1A6818
:103B5000049B5B0853606F4F7F2D5AD96E4B1878CA
:103B60006E4B984703281DD96B4B18786B4B9847C1
:103B70000546042855D06A4B6A49082818BF1946DB
:103B800043F206105F4B984700283FF456AE664B51
:103B9000984710F0800F7FF450AE5B4B1B685D744C
:103BA000624B9847624B9847B8B1B6B1614943F24E
:103BB0000610544B984700283FF43FAE5A4B9847A5
:103BC00010F0800F7FF439AE4F4B1B68012283F851
:103BD0002220594A1A60554B98470A254FF400781D
:103BE00041F21017474E41463846B04700286ED183
:103BF000013D15F0FF05F6D11FE61423137433E7DA
:103C00002223137430E7302313742DE740231374F9
:103C10002AE704A8B84700283FF40FAE0135ADB23B
:103C20009AE74649ACE7414B9847D6E7D97E987E5C
:103C30005A7E120442EA00220A43C2F315020132FC
:103C400052025A6058E6304B1B6810221A74324BED
:103C50001878324B984703281CD92B4B1B68DA7B0A
:103C600012F0010F14D09989090441F23710254B45
:103C7000984700283FF4E1AD022141F20610214BA4
:103C8000984700283FF4D9AD1F4B1B6804225A7493
:103C9000264B9847264B984750B11B4B1B68DA7B45
:103CA00012F0010F02D01B7C102B4BD81F4B9847F2
:103CB000154B1B68DB7B13F0010F08D04FF400712C
:103CC00041F210100F4B984700283FF4B6AD0E4B51
:103CD0001B6800229A731A4B98479BE50A4B1B6896
:103CE0001A221A74B3E79DF81230DB09064B1B68E1
:103CF00014BF302220221A74A9E700BFACED4000A7
:103D00006CED4000D9444000F80D00200811080077
:103D10003945400005464000010E00203544400072
:103D20000000B7010002B7010545400069364000B8
:103D30003F4440000001B903007519030001B701B9
:103D4000C537400040252A46002104A83A4B984731
:103D5000012300932A46394939483A4DA84700289B
:103D60003FF46BAD012104A8374B984700283FF47E
:103D700064AD364B984700283FF45FAD344B98470D
:103D800010F0800F7FF459AD9DF8203003F00F0341
:103D90000F2B8BD09DF82D309DF82C2053EA022359
:103DA0007FF44BAD2B4B98472B4B1B68012283F8BC
:103DB00022201A6852001A6078E700224EE5002A95
:103DC000264F08BF4FF4FC1740F635054FF00008AA
:103DD000234EDFF87C90414641F23710B04750B196
:103DE000394644F22950B04728B1C8470028FFF6A9
:103DF000D2AD013DEFD1184B1B680222DA730021CE
:103E00004FF48040164B984700283FF416AD41F21E
:103E10006905DFF84880124F0D4E414644F20150CB
:103E2000B84700283FF409ADB0470028FFF6CCADF5
:103E3000013DF2D101E500BF6996400001FFFF801E
:103E4000061108003945400079464000E14640002F
:103E500005454000B7444000F80D002000801F4099
:103E6000D944400008B5054B984708B1002008BD6B
:103E7000034B9847034B1B68D87B08BD9536400021
:103E8000C5374000F80D002008B5054B984708B12C
:103E9000002008BD034B9847034B1B68586808BDBA
:103EA00095364000C5374000F80D002000207047CF
:103EB0002DE9F04782B08A469146264B98478046C6
:103EC00018B1404602B0BDE8F087234C234E244D84
:103ED000244F33689989090441F20D10A84728B18D
:103EE000B84710F4807F17D1013CF2D11E4B9847A0
:103EF0004FF00508E5E71B4B98471C4B034033B9CF
:103F00001B4BA3F800901B4BA3F80090D9E7164B6E
:103F100098474FF00508D4E7174B1848B9F1010F3F
:103F200098BF18460D4B1B68DB7B13F0080F01D1BF
:103F30004FEA4A2A012300934B464FF40072514640
:103F40000F4CA0470028D6D1074B98474FF00508E3
:103F5000B7E700BF95364000410D0300F80D002083
:103F6000D944400005454000C5374000000058E4F2
:103F7000FC0D0020FE0D0020111108001211100090
:103F80003945400010B50C46064B984720B9002231
:103F9000054B1A80052010BD034A13881C1B148092
:103FA000002010BD79464000FC0D002010B50446ED
:103FB000134B984708B9052010BD84B10022114B5E
:103FC0001A80114B1B88012B0FD0002143F20C10DB
:103FD0000E4B984768B10E4B9847002010BD094B17
:103FE0001B88002BEDD0002010BD094B9847002006
:103FF00010BD002143F20C10044B9847EBE700BFC3
:10400000E1464000FC0D0020FE0D0020D944400098
:10401000C537400070B582B00E461546164B98471E
:104020000446B8B9154B1648012D98BF1846154BD4
:104030001B68DB7B13F0080F08BF76020123009397
:104040002B464FF4007231460F4EB04728B90F4B44
:1040500098470524204602B070BD0D4B98470D4B84
:10406000034023B90C4B1D800C4B1D80F2E7074B1E
:1040700098470524EEE700BF9536400018910800E8
:1040800019911000F80D002039454000C537400057
:1040900005454000000058E4FC0D0020FE0D002006
:1040A00010B50C46064B984720B90022054B1A80E4
:1040B000052010BD034A13881C1B1480002010BD6E
:1040C00055474000FC0D002010B50446124B9847A0
:1040D00008B9052010BD84B10022104B1A80104B86
:1040E0001B88012B0FD0002143F20C100D4B984779
:1040F00068B90D4B9847052010BD084B1B88002B55
:10410000EDD0002010BD084B9847002010BD064B95
:104110009847002010BD00BFC1474000FC0D0020A3
:10412000FE0D0020D9444000C537400010B50446BC
:104130000F4B9847012818D018B1022810D0012041
:1041400010BD0C4B1B5D0BB1022010BD20460A4B6D
:10415000984700F00300002814BF0020022010BD83
:104160000022044B1A55022010BD032010BD00BFD1
:1041700001384000040E0020653E400008B50020D4
:10418000014B984708BD00BF2D41400038B504469B
:104190000D46044B98474000013828602046024BEA
:1041A000984738BD893E40002D41400008B5014682
:1041B0000020014B984708BD8D41400008B5002004
:1041C000014B984708BD00BFAD3E400010B51446F6
:1041D00001220A4B984720B102280CBF022001207F
:1041E00010BD01212046064B984708B1012010BDA3
:1041F000044B9847003018BF012010BDB13E40006D
:10420000853F4000AD3F400008B50A46014600200A
:10421000014B984708BD00BFCD41400010B5144682
:1042200001220A4B984720B102280CBF022001202E
:1042300010BD01212046064B984708B1012010BD52
:10424000044B9847003018BF012010BD15404000B6
:10425000A1404000C940400008B50A460146002080
:10426000014B984708BD00BF1D42400010B50E48E5
:104270000E4B98473E2100200D4B98470D4CA04710
:104280000028FCD00C4B98470C4A0D4B9A620D4C01
:10429000A0470028FCD010200B4B98470B4B9847A9
:1042A0000148024B984710BD000E27079953400064
:1042B000A94D40002D4E40003D4E4000013F1320CF
:1042C00000040E404D4E4000E94C40008952400031
:1042D00008B10120704708B5014B984708BD00BFE1
:1042E0007D41400008B10120704708B50846014BE8
:1042F000984708BDAD414000B0FA80F040097047D2
:1043000008B10120704708B5014B984708BD00BFB0
:10431000BD41400008B10120704708B5084611466C
:10432000014B984708BD00BF0942400008B1012079
:10433000704708B508461146014B984708BD00BFB5
:104340005942400070B44FF080435D689C68D86863
:10435000D9695A6D80261E605D609C60D860D96105
:104360005A6505221A6070BC7047000008B501F05C
:104370003F03184311F4807F04D011F4006F0ED076
:1043800040F4845011F4804F18BF40F400604FF0A7
:1043900080431A615861184601F480520DE011F40F
:1043A000005F14BF40F4865040F48250EAE713F4F3
:1043B0001B0F0CD113F0010F0DD1036C002AF6D0A6
:1043C00013F41F0FF6D0104B9847002008BD0E4B7A
:1043D0009847002008BD11F4005F03D1012008BDFB
:1043E000012008BD4FF080431B6C4FF0FF324FF0AF
:1043F000804103F03003202BF2D00B6C013AF8D14E
:10440000014B9847002008BD4543400008B51220E5
:10441000074B98474FF0804372229A60DA6111226D
:104420005A654FF4E0625A6005221A6008BD00BF69
:104430005D4E400000280CBF042000207047012082
:10444000704700009BB14FF08040436D43F4807390
:1044500043654900154B994210D81548B0FBF1F35C
:1044600001FB130101B101334BB1013B07E04FF0F8
:104470008040436D23F480734365EAE700234FF0E7
:104480008041486820F0FF0048604868DBB2034381
:104490004B60042A07D0082A0CBFC02200224FF02C
:1044A0008043DA6070478022F9E700BFFF0D2707DD
:1044B000000E270770474FF080435A6822F460527D
:1044C0005A6000221A614FF410625A611A46136C46
:1044D00013F0010FFBD0704710B54FF080435A68BE
:1044E00022F460525A605A6822F400425A60002452
:1044F0009C610A4601462046014B984710BD00BF0B
:104500006D4340004FF08043186A704710B4031D9C
:1045100014304FF08044226A110E03F8041C110C71
:1045200003F8031C110A03F8021C03F8012C0433DE
:104530008342F0D110BC704770B59DF810408CB329
:104540004FF080456C6844F400446C604FF0804547
:104550006C6844F4C0546C6012F0030F29D06C688E
:1045600044F400546C6000F40044002C14BF4FF479
:1045700080344FF4A02410F4803F21D143EA024557
:104580004FF08046B56110F4003F2DD110F4802F1C
:104590002DD110F4002F1AD110F4801F18BF44F44D
:1045A000002414E04FF080456C6824F400446C60F3
:1045B000CCE74FF080456C6824F400546C60D2E77F
:1045C00044F40014C2F308054FF08046B56100269C
:1045D000084D2E60084D2A80084A13800A4601467D
:1045E0002046074B984770BD44F42014EFE744F48D
:1045F0008014ECE70C0E0020060E0020080E0020B0
:104600006D43400008B54FF08041164A0B6C1342D1
:104610001DD113F0020FF9D04FF080431B6B0360E4
:10462000114A136804331360104A1188104A128823
:1046300002FB01F2934212D34FF08041094A0B6C06
:10464000134208D113F0006FF9D0012008BD094BC7
:104650009847002008BD074B9847002008BD01205F
:1046600008BD00BF000060C00C0E0020060E002038
:10467000080E002045434000174B1B8803FB01F147
:1046800010F0030F02D113F0030F1ED04FF0804241
:10469000536843F4005353604FF08043C3F8000164
:1046A0005B6813F4005F0CBF8B080B464FF0804231
:1046B000C2F804310023C2F814310120C2F82001ED
:1046C000064A13680B44136070474FF080425368EA
:1046D00023F400535360DFE7060E00200C0E002089
:1046E00008B54FF08041164A0B6C134217D113F4F2
:1046F000804FF9D0134B1A88134B1B8803FB02F32E
:10470000124A1268934218D84FF080410C4A0B6C41
:1047100013420ED113F0006FF9D0012008BD40F212
:1047200002224FF08043C3F82021094B9847002014
:1047300008BD074B9847002008BD012008BD00BFF9
:10474000000060C0060E0020080E00200C0E0020A5
:1047500045434000184B1B8803FB01F110F0030F89
:1047600002D113F0030F20D04FF08042536843F47E
:10477000005353604FF08043C3F808015B6813F4A3
:10478000005F0CBF8B080B464FF08042C2F80C3123
:104790000023C2F81C314FF48073C2F82031074A5D
:1047A00013680B441360012070474FF08042536838
:1047B00023F400535360DDE7060E00200C0E0020AA
:1047C00008B54FF08041164A0B6C134217D113F411
:1047D000004FF9D0134B1A88134B1B8803FB02F3CD
:1047E000124A1268934218D84FF080410C4A0B6C61
:1047F00013420ED113F0200FF9D0012008BD0C4B4D
:10480000984740F202224FF08043C3F82021002055
:1048100008BD074B9847002008BD012008BD00BF18
:10482000000060C0060E0020080E00200C0E0020C4
:10483000454340000AB90166704741667047C0F8B9
:10484000841053004FF40042B2FBF3F2013AC2F37A
:104850000D02C0F88C2070474264B1F1C05F39D0BE
:1048600013D8B1F1006F25D0B1F1805F0AD1036F89
:1048700013430367436F416F0B4023EA020343670F
:10488000426070470029FBD17047B1F1205F20D012
:1048900009D8B1F1005FF3D1036F13430367436F8E
:1048A00013434367ECE7B1F1405F12D0B1F1605FB1
:1048B0000FD0E5E710B4016F046FD34321401C46CD
:1048C00019400167436F416F0B40234043674260CB
:1048D00010BC7047036F016F0B4023EA02030367AC
:1048E000436F13434367CBE7416412F0010F14BFDA
:1048F0004166016612F00A0F14BF0162416212F0B4
:10490000020F07D112F0080F18BFC0F884104161E0
:1049100001607047C0F88010F9E710B4019C416451
:1049200044B9016643B1016542B941630161016067
:1049300010BC70474166F5E74165F5E70163F5E7AF
:1049400012B9C0F890107047C0F89410704712F078
:10495000100F10D0C0F8B01012F0200F14BFC0F824
:10496000D410C0F8D01012F0400F14BFC0F8C0101F
:10497000C0F8C4107047C0F8B4107047C36C01642D
:104980007047C06C7047806C7047430903F5001393
:1049900003F207735B0200F01F00012202FA00F02D
:1049A00018637047430903F5001303F207735B02B2
:1049B00000F01F00012202FA00F058637047000067
:1049C00070B582B00D46430903F5001303F2077377
:1049D0005C0201F0F043B3F1005F53D00AD8B3F1A9
:1049E000805F2DD0B3F1C05F3BD0B3F1006F15D025
:1049F000002023E0B3F1405F55D0B3F1605F52D0A7
:104A0000B3F1205FF4D100F01F0101262A4606FA17
:104A100001F120462F4B984730460FE000F01F0071
:104A20000126864032464FF0006120462A4B9847C7
:104A300015F0010F14BF66662666012002B070BD36
:104A400000F01F000126864032464FF0805120467C
:104A5000214B984715F0010F14BF666626660120AA
:104A6000ECE700F01F000126864032464FF0C051AF
:104A70002046194B984715F0010F14BF666626664D
:104A80000120DBE700F01F000126864032464FF090
:104A900000512046104B984715F0010F14BF666671
:104AA00026660120CAE705F0605200F01F010126CA
:104AB00005EA06030093C5F38003B2F1605F14BFFB
:104AC0000022012206FA01F12046044CA04730469C
:104AD000B4E700BFE9484000594840001B49400086
:104AE00070B582B005460E46144602F0F043B3F1AD
:104AF000005F3DD00AD8B3F1805F21D0B3F1C05F31
:104B00002AD0B3F1006F0ED0002017E0B3F1405F60
:104B10003AD0B3F1605F37D0B3F1205FF4D1234BCB
:104B2000984701200AE00A464FF00061204B984761
:104B300014F0010F14BF6E662E66012002B070BD26
:104B40000A464FF080511A4B984714F0010F14BFDA
:104B50006E662E660120F1E70A464FF0C051144BF5
:104B6000984714F0010F14BF6E662E660120E5E72A
:104B70000A464FF000510E4B984714F0010F14BF36
:104B80006E662E660120D9E704F0605204F001033E
:104B90000093C4F38003B2F1605F14BF00220122CE
:104BA00031462846034CA0470120C7E7E9484000AA
:104BB000594840001B4940002DE9F84381460F4603
:104BC000124B984705464846114B9847054013D06D
:104BD000104C04F1600603E0B4420DD010345DB116
:104BE0002068B842F8D161682942F5D0E368984757
:104BF000636825EA0305EFE7074B1B6823B1074B02
:104C00001B680BB148469847BDE8F88383494000CC
:104C100087494000100E002010200020840E002044
:104C2000F8B50C4C2468062C01D90120F8BD1546B6
:104C3000094F2601BA19B951556093600699D160A0
:104C40000134044A14601A462946044B9847002050
:104C5000F8BD00BF800E0020100E00204F4940001C
:104C600008B50B210148024B984708BD000E0E40C5
:104C7000B94B400008B50C210148024B984708BDCC
:104C800000100E40B94B4000164B1A6B22F0030285
:104C90001A639B6E13F0080F0AD14FF40063114999
:104CA0008A6E12F0080F03D1013BF9D10120704741
:104CB0000C4A136B23F0700318431063936E13F0C8
:104CC000080F0AD14FF4006306498A6E12F0080FEC
:104CD00005D1013BF9D10120704700207047002029
:104CE000704700BF00040E40174A136B23F0700397
:104CF00018431063936E13F0080F0AD14FF400634A
:104D000011498A6E12F0080F03D1013BF9D101203D
:104D100070470D4A136B23F0030343F00203136340
:104D2000936E13F0080F0AD14FF4006306498A6EA0
:104D300012F0080F05D1013BF9D101207047002086
:104D400070470020704700BF00040E40012803D0C8
:104D5000054A064B1A607047044A936843F025439E
:104D600043F480139360F3E7080000A510140E408D
:104D7000054B5B6913F0800F1DBF044B986EC0F3A9
:104D8000C0100020704700BF10140E4000040E40F9
:104D9000044A136A23F45C1323F0780343F45C138E
:104DA0001362704700040E40C8B9114A136A090221
:104DB00089B223F45C1323F0030343F45C1343F040
:104DC00001030B431362936E13F0010FFBD0084AEB
:104DD000136A43F09B7343F48033136270470449B2
:104DE0000B6A044A1A40044B13430B62704700BF1E
:104DF00000040E40FCFFC8FE0200370148B90A4A11
:104E0000136A23F45C1323F0010343F45C1313626D
:104E10007047054A136A23F45C1323F0020343F43A
:104E20005C131362704700BF00040E40024B986E83
:104E300000F48030704700BF00040E404FF0005275
:104E4000014B9A62704700BF00040E40024B986EFF
:104E500000F00200704700BF00040E4022281ED858
:104E60001F280CD8114B9A6901238340934318D013
:104E7000012303FA00F00D4B186100207047203821
:104E80000A4BD3F808210123834093430BD001231D
:104E900003FA00F0054BC3F8000100207047012021
:104EA0007047002070470020704700BF00040E408C
:104EB0006FF00302084B5A611A46936933F00303FB
:104EC000FBD14FF0FF32044BC3F804211A46D2F84D
:104ED0000831002BFBD1704700040E40054A1369CE
:104EE00043F004031361044A044B1A6020BF30BF2F
:104EF000704700BF00ED00E0040000A510140E4054
:104F000021B9436823F0010343607047436843F0CD
:104F100001034360704730B485688468A54203D0BC
:104F200085688468AC42FBD161B1C4F3015000EBE9
:104F30008005C4F3034000EB450014F4800F18BF54
:104F40000C30086042B1C4F3023101EB8101C4F3BB
:104F5000032000EB4101116043B1C4F3021202EBE4
:104F6000820204F00F0404EB42041C6030BC704762
:104F7000F0B4446814F0010F05D00C293DD90C3968
:104F80004FF4800700E000271D4CA4FB0356F608F1
:104F900006EB8605A3EB450343EA0613A4FB026573
:104FA000ED0843EA053305EB8505A2EB450543EA29
:104FB00005233B43A4FB0142D20843EA025302EB20
:104FC0008202A1EB420143EA0141036843F001037D
:104FD0000360836913F0010FFBD00123C36181607B
:104FE000036823F001030360C36943F00403C36152
:104FF000C06A00F00100F0BC70470027C4E700BFA2
:10500000CDCCCCCCF0B4049EC568C468A54203D016
:10501000C568C468AC42FBD199B1C4F3033000EB5E
:105020008000C4F3032707EB4007C4F3021000EB32
:10503000800504F00F0000EB4500642505FB0070BF
:10504000086042B1C4F3005081000844C4F3034136
:1050500001EB4001116043B1C4F3017202EB820223
:10506000C4F3036101EB42021A6016B1C4F3425467
:105070003460F0BC7047000070B42A4DA5FB0346B5
:10508000F608039C640544EA067406EB8606A3EB67
:10509000460344EA0363A5FB0264E40843EA0453BD
:1050A00004EB8404A2EB440243EA02421E4BA3FB3E
:1050B00001439B0942EA03121C4BA3FB01435B091A
:1050C000A5FB0364E40804EB8404A3EB44031A4344
:1050D000A5FB0143DB0803EB8304A1EB440142EA97
:1050E0000122A5FB0315ED0805EB8505A3EB45059E
:1050F00042EA0532036843F002030360836913F058
:10510000010FFBD00123C361C260036823F00203D7
:105110000360C36943F00403C361C06A00F0020086
:1051200070BC7047CDCCCCCCD34D62101F85EB51F9
:1051300010B4446859B144F01004120202F4FE4263
:1051400022433BB922F40042426010BC704724F075
:105150001004F2E742F40042F6E710B4AC23036017
:105160000B684A68B3FBF2F31B095C1E4FF6FE7234
:1051700094420BD803628B68436040F20223C0F86C
:10518000203150230360002010BC70470120FBE752
:1051900050230360704781607047406970474FF447
:1051A0008073036070474069C0F3402070474069D6
:1051B00000F001007047436913F0020F1ABFC1618C
:1051C000002001207047436913F0010F1DBF836960
:1051D0000B70002001207047FEE7000008B5214B4E
:1051E000214A9A4228D9214B1E4A9A420CD2013BAD
:1051F0009B1A23F00303043313441B4951F8040B97
:1052000042F8040B9A42F9D100BF194B194A9A424D
:105210000AD2013B9B1A23F00303043313440021F9
:1052200042F8041B9A42FBD1134B144A9A60144B68
:105230009847144B9847FEE70A4B0B4A9A42E3D231
:105240000A4B0848181A1146043A02440028DBD0D9
:10525000C1F1040152F8040943F8040DCA42F9D11E
:10526000D2E700BF000000206CF64000700A00206A
:105270003C200020700A002000ED00E0000040000B
:1052800085944000157D40003C4B1B6B03F00303ED
:10529000032B0ED8DFE803F0021C3838384B5B696B
:1052A00013F0800F14BF4FF400424FF4FA42354B15
:1052B0001A60324B1B6B03F07003702B55D02F4BD1
:1052C0001A6B3049C2F302120B68D3400B6070476F
:1052D0002A4B1B6A13F0807F03D02B4A294B1A609C
:1052E000E7E72A4A274B1A60244B1B6A03F0700336
:1052F000102B05D0202BDCD1234A224B1A60D8E793
:10530000234A204B1A60D4E71C4B1B6A13F0807FA2
:1053100018D01D4A1B4B1A60184B1B6B03F003037C
:10532000022B164A07BF916A926AD16AD26A15485F
:10533000C1F30A41036801FB0333D2B2B3FBF2F3BA
:105340000360B6E7114A0F4B1A600C4B1B6A03F05F
:105350007003102B05D0202BDED10B4A094B1A60AD
:10536000DAE70B4A074B1A60D6E7064A1368094981
:10537000A1FB03135B081360704700BF00040E40DD
:1053800010140E40BC000020001BB70000093D00B7
:1053900000127A00ABAAAAAA124B984211D9124B5A
:1053A000984213D9114B984214D9114B984215D9F0
:1053B000104B984294BF4FF004220F4A0F4B1A60D3
:1053C00070474FF080620D4B1A6070470C4A0B4BD0
:1053D0001A6070470B4A094B1A6070470A4A074B1C
:1053E0001A607047FF2C3101FF596202FF86930358
:1053F000FFB3C404FFE0F50500050004000A0E40F9
:105400000001000400020004000300040A4B1B68B2
:1054100053B1094B1B681A180849914208DB104622
:10542000054A106018467047054A034B1A60F0E7BA
:105430004FF0FF30704700BF880E0020FCFF0120B6
:105440004050002010B5044600210F480F4B9847EC
:10545000012C01D9012010BD20460D4B984703288F
:1054600006D120460A4B9847032801D1012010BDE0
:1054700038B92046074B9847002814BF0420002065
:1054800010BD012010BD00BF60140E40014F400050
:10549000D14240000143400008B5054B984720B178
:1054A00002280CBF0320012008BD002008BD00BF5A
:1054B000D14240002DE9F04F83B080460D4614469E
:1054C0001F46154B984718B9012003B0BDE8F08F6F
:1054D000064601A94046114B9847B14606FB0742D4
:1054E000019B03FB06639A4201D90420EDE7BA460B
:1054F00077B176020027DFF828B02A4621464046D9
:10550000D84738B901374C4435445745F5D1DCE725
:105510000020DAE70120D8E7F9424000E5424000E8
:10552000154340002DE9F04F83B080460D461446E8
:105530001F46154B984718B9012003B0BDE8F08FFE
:10554000064601A94046114B9847B14606FB074263
:10555000019B03FB06639A4201D90420EDE7BA469A
:1055600077B176020027DFF828B02A462146404668
:10557000D84738B901374C4435445745F5D1DCE7B5
:105580000020DAE70120D8E7F9424000E542400078
:105590002D43400010B582B01446032927D8DFE818
:1055A00001F01F070F0201231360002002B010BD9D
:1055B00001A9114B9847019B013323600020F5E7B7
:1055C0000E4B9847082814D84FF48B7323FA00F039
:1055D00010F0010F01D10120E8E700202070E5E77D
:1055E000074B984700280CBF00200320DEE704206B
:1055F000DCE70120DAE700BFE5424000F942400065
:10560000D142400030B58BB0114C07AB08AA09A9B4
:105610002046104DA84703AB009304AB05AA06A98A
:1056200020460D4CA047049B1B04059843EA4053B9
:1056300007980343099843EAC023089843EA4013B4
:105640000698A0F2BC7043EA40600BB030BD00BFCA
:1056500060140E40174F4000055040003AB1013829
:105660008A1811F8013B00F8013F9142F9D17047C7
:1056700022B1821800F8011B8242FBD17047023927
:10568000C369023B99423DBF8378C06A01FB0300B6
:1056900000207047024600F10B010020C30143EADD
:1056A000500312F8010B50FA83F3D8B28A42F5D1B5
:1056B0007047000098B108B502780AB9092008BD02
:1056C000C2888A4201D0092008BD4078054B98471E
:1056D00000F00100002814BF0320002008BD0920AD
:1056E000704700BF9954400038B5044601230A466C
:1056F00000F1340140781D4DA84708B1032038BDA2
:1057000094F8332294F8323243EA02231BB2184A47
:10571000934201D0022038BD94F86D2094F86C308B
:105720001B0443EA026394F86A20134394F86B2045
:1057300043EA022323F07F430E4A934213D094F8A6
:10574000893094F88800000440EA036094F88630B9
:10575000184394F8873040EA032020F07F40801AF5
:1057600018BF012038BD002038BD00BFB55440002F
:1057700055AAFFFF46415400F8B503681C78303C39
:10578000092C02D85D783A2D05D0B34B1C78072C34
:1057900004D90B20F8BD02330360F8E7AF4B53F890
:1057A00024500D60002D00F03E8116462B787BB111
:1057B0006878AB4B984710F0010F09D1002E00F02C
:1057C000348100F0040000280CBF00200A20F8BD3E
:1057D00000232B70E0B26870A24B984710F0010FC5
:1057E00001D00320F8BD26B110F0040F01D00A202B
:1057F000F8BD002128469C4B9847012806D000247C
:10580000032800F01481C8B10D20F8BD95F8F631D9
:105810000BB90D20F8BD95F8FD3195F8FC41240435
:1058200044EA036495F8FA311C4395F8FB3144EAE5
:105830000324214628468C4B9847E1E795F8402001
:1058400095F83F3043EA02231BB2B3F5007F01D045
:105850000D20F8BD95F84B3095F84A2052EA032206
:105860000DD195F85B3095F85A20120442EA036294
:1058700095F858301A4395F8593042EA03222A62C3
:1058800095F844E085F803E00EF1FF33DBB2012B1D
:1058900001D90D20F8BD95F84160AE70002E00F0E2
:1058A000C880731E334201D00D20F8BD95F84630F4
:1058B00095F8451041EA0321298111F00F0F40F0BE
:1058C000BA8095F8480095F8473053EA00230DD187
:1058D00095F8570095F856301B0443EA006395F895
:1058E0005400034395F8550043EA002395F843001C
:1058F00095F8427057EA002700F09F8002FB0EFEE9
:1059000007EB111070448342C0F099801B1AB3FB5F
:10591000F6F3002B00F0958040F6F576B3428CBF8D
:10592000022601264FF6F57C634500F2A78002337C
:10593000EB612044E8623C446C62002900F08980FD
:105940007444AC62022E0FBF5B0003EB430103F013
:10595000010303EB510303F2FF13B2EB532F76D392
:105960004FF0FF332B610023EB604AE095F83322C0
:1059700095F8323243EA02231BB23C4A93424CD19F
:1059800095F8372095F836301B0443EA026395F802
:105990003420134395F8352043EA0223344A9342D6
:1059A0003DD195F81B2295F81A321B0443EA026395
:1059B00095F81822134395F8192243EA02232D4A39
:1059C00093422ED195F8232295F822321B0443EA04
:1059D000026395F82022134395F8212243EA02231B
:1059E000EB6095F81F2295F81E321B0443EA026310
:1059F00095F81C22134395F81D2243EA02232B61DC
:105A000003262E701C4A138801339BB21380EB804F
:105A1000002028632871A861F8BD0326F1E703265A
:105A2000EFE70326EDE70C20F8BD0020F8BD0120CC
:105A3000F8BD0D20F8BD0D20F8BD0D20F8BD0D20DE
:105A4000F8BD0D20F8BD0D20F8BD0D20F8BD0D20CE
:105A5000F8BD0D20F8BD00BF8C0E0020900E002078
:105A60009954400045544000E956400055AAFFFFB4
:105A70005252614172724161B00E00200233EB61FB
:105A80002044E86227446F620029DED195F8630064
:105A900095F86210090441EA006195F8600001433D
:105AA00095F8610041EA0021A9629B0003F2FF130F
:105AB000B2EB532FC7D34FF0FF332B610023EB60C2
:105AC0006B7195F8653095F8642042EA0322224410
:105AD0006A61012305F134016878034CA04700286E
