:020000040040BA
:10200000784E0020D5604000D1604000D160400093
:10201000D1604000D1604000D1604000000000006D
:10202000000000000000000000000000D16040003F
:10203000D160400000000000D16040002533400026
:10204000BD8B4000D1604000D1604000D1604000B5
:10205000D1604000D1604000D1604000000000002D
:10206000A58B4000B18B4000000000003D5B4000AC
:10207000515B400000000000D1604000D160400092
:102080000000000000000000D1604000D16040006E
:10209000D1604000D1604000D1604000D16040007C
:1020A000D1604000D160400000000000000000004E
:1020B00000000000D1604000D1604000D1604000CD
:1020C000D1604000D1604000D160400010B5054CA7
:1020D000237833B9044B13B10448AFF300800123D4
:1020E000237010BD3C0900200000000008034100DF
:1020F00008B5064B1BB106480649AFF300800648F9
:10210000036813B1054B03B1984708BD00000000F8
:1021100008034100400900200803410000000000BE
:1021200010B584B00446437C102B05D112300A4B05
:1021300098478DF80F0002E001238DF80F302068DA
:10214000A17B227C01320DF10F030093D2B2012357
:10215000024CA04704B010BDFD2E40007D3E400063
:1021600010B584B004461230617C084B984704AB2C
:1021700003F8010D2068A17B227C01320093D2B2CA
:102180000123034CA04704B010BD00BF512F4000F5
:102190007D3E400010B584B00446437C102B05D131
:1021A00012300A4B98478DF80F0002E001238DF89A
:1021B0000F302068A17B227C01320DF10F030093C8
:1021C000D2B20123024CA04704B010BD892F4000B9
:1021D0007D3E400008B5437C022B12D1094B1B8881
:1021E00013F0010F0DD0827C074B1A70C27C5A701D
:1021F000044A138823F001031B041B0C1380034BB8
:10220000984708BDA41C00203C0A00201D3F400048
:1022100010B582B004462120154B9847637C022BF1
:1022200020D1144B1B8803F002039BB2D3B1E27C94
:10223000A37C03EB02239BB2ADF806300D4A138852
:10224000BDF806100B439BB21380138823F00203E2
:102250001B041B0C1380BDF8060080B2064B984788
:10226000064B98472120064B984702B010BD00BF8F
:1022700059584000A41C0020A13040001D3F4000E0
:102280007558400008B5036923F07F4323F0FF032E
:10229000B3F5807F0ED1084B1B8803F004039BB27B
:1022A00043B1054A138823F004031B041B0C13805D
:1022B000024B984708BD00BFA41C00201D3F4000F2
:1022C00008B5036923F07F4323F0FF03B3F5807F54
:1022D0000ED1084B1B8803F008039BB243B1054A9B
:1022E000138823F008031B041B0C1380024B984730
:1022F00008BD00BFA41C00201D3F400008B50369B5
:1023000023F07F4323F0FF03B3F5807F0ED1084B0A
:102310001B8803F010039BB243B1054A138823F0D6
:1023200010031B041B0C1380024B984708BD00BF11
:10233000A41C00201D3F400008B50246224B1B880C
:1023400003F020039BB2002B3AD0204B1B885BB9D3
:10235000036923F07F4323F0FF03B3F5807F2FD180
:1023600001221A4B1A802BE0591E89B209290CD878
:10237000013B1230164901EBC311527C154B9847B3
:10238000124B1A8801321A8007E00B2B05D1437CCF
:10239000012B15D1FF23837403E00C4B1B880C2BFE
:1023A0000ED1094A138823F020031B041B0C138051
:1023B000094B1A7842F001021A700022034B1A806E
:1023C000064B984708BD00BFA41C002058090020F8
:1023D00080160020513F4000401B00201D3F400060
:1023E00008B50246224B1B8803F040039BB2002B2A
:1023F0003AD0204B1B885BB9036923F07F4323F05D
:10240000FF03B3F5807F2FD101221A4B1A802BE0F6
:10241000591E89B209290CD8013B1230164901EB2B
:10242000C311527C154B9847124B1A8801321A80FF
:1024300007E00B2B05D1437C012B15D1FF238374BF
:1024400003E00C4B1B880C2B0ED1094A138823F098
:1024500040031B041B0C1380094B1A7842F0020244
:102460001A700022034B1A80064B984708BD00BF24
:10247000A41C00205C09002050110020513F4000A6
:10248000401B00201D3F400008B5254B1B8803F46E
:1024900080739BB2002B40D0224B1B888BB9437CAE
:1024A000062B3AD1123020490622204B9847204B68
:1024B0001A7842F008021A701A4B1A8801321A80F0
:1024C0002BE05A1E92B2B2F5806F10D2427C122AD3
:1024D0000DD112301749154B9847154B1A7842F019
:1024E00010021A700F4B1A8801321A8015E040F260
:1024F0000142934211D1036923F07F4323F0FF038C
:10250000B3F5807F09D10022064B1A80044A138854
:1025100023F480731B041B0C1380074B984708BDE2
:10252000A41C00205A090020441B0020513F4000F9
:10253000401B00203C1100201D3F400008B5437C9B
:10254000182B18D10C4B1B8803F400739BB293B16A
:1025500012300A4918220A4B9847074A138823F475
:1025600000731B041B0C1380064B1A7842F0040204
:102570001A70054B984708BDA41C0020681600205F
:10258000513F4000401B00201D3F400010B588B067
:10259000024602238DF8083003238DF809305323B7
:1025A0008DF80A3065238DF80B3070238DF80C30D0
:1025B00020238DF80D308DF80E3037218DF80F1057
:1025C0008DF8103032238DF8113030238DF8123011
:1025D00031218DF8131039218DF8141000218DF858
:1025E00015108DF816308DF817303A208DF8180038
:1025F0008DF8193038238DF81A308DF81B003423EC
:102600008DF81C3035238DF81D308DF81E101068A4
:10261000917B127C013202AB0093D2B21723024CA1
:10262000A04708B010BD00BF7D3E400010B582B08D
:102630000468817B027C0132437C1230009020468A
:10264000D2B2024CA04702B010BD00BF7D3E400098
:1026500010B582B003460068997B1A7C0132044BA6
:102660000093D2B21023034CA04702B010BD00BFAC
:10267000F01B00207D3E400070B584B00546012669
:1026800004AC04F8016D064B98472868A97B2A7CA6
:1026900032440094D2B23346024CA04704B070BD1D
:1026A000C14340007D3E400010B582B0817B33299C
:1026B00007D0034653F8100B00930F220123024C5E
:1026C000A04702B010BD00BF7D3E4000F0B583B012
:1026D00005460F4E0F4C30462146221D04F10803DB
:1026E0000D4FB847231F103C009330462146221D52
:1026F00004F10803094EB0472868A97B2A7C0132FF
:102700000094D2B21C23064CA04703B0F0BD00BF1A
:1027100060140E40480D0020F95D4000ED5E400061
:102720007D3E4000F0B585B00446437C1C2B1ED195
:10273000174D123029461C22164B9847164E30462C
:1027400029696A69AB69154FB84729686A68AB6837
:10275000E86800903046124DA847124B1A8892B292
:1027600042F004021A8000238DF80F3002E00123AA
:102770008DF80F302068A17B227C01320DF10F0310
:102780000093D2B20123084CA04705B0F0BD00BFB2
:10279000380D0020513F400060140E40595E40004B
:1027A000655F4000A41C00207D3E400030B583B032
:1027B0000446104D2846002180220F4B9847294699
:1027C0000E4B41F8033B04F11200627C0C4B98471E
:1027D0000C4829460C4B98470C4B18702068A17B7D
:1027E000227C01320093D2B20123094CA04703B0EE
:1027F00030BD00BFC00D002011974000303A2F00BF
:10280000513F4000540D0020B1824000BC0D00201B
:102810007D3E4000F0B583B00446437C002B31D1AF
:10282000194900220B4643F8042B4A60043343F84D
:10283000042B43F8042B43F8042B43F8042B43F8F0
:10284000042B1A601148124B9847124B187078B934
:10285000114F8026384600213246104B98470A4DCA
:102860000A4829463A4633460D4EB047202301E038
:10287000084D01232068A17B227C01320095D2B251
:10288000084CA04703B0F0BD9C0D0020540D002063
:1028900035834000BC0D0020C00D00201197400082
:1028A000CD3240007D3E400010B582B0437CABB9D4
:1028B0000B4B1B783BB1002309490133DBB2CA5CE7
:1028C000002AFAD100E000230468817B027C0132F7
:1028D000034800902046D2B2024CA04702B010BD7F
:1028E000C00D00207D3E400010B582B0437C53B93E
:1028F0000368817B027C0132044800901846D2B202
:102900000423034CA04702B010BD00BF840D00207B
:102910007D3E400030B583B00446104D284600216E
:1029200080220F4B984729460E4B41F8033B04F198
:102930001200627C0C4B98470C48294601220C4B34
:1029400098470C4B18702068A17B227C01320093C1
:10295000D2B20123084CA04703B030BDC00D002007
:1029600011974000303A2F00513F4000780D002071
:102970005D7B4000BC0D00207D3E40002DE9F04114
:1029800084B00446437C042B28D1123002A90422CF
:10299000144EB047DFF860800299C1EB4111404608
:1029A0008900114B9847114F3870114D4046294608
:1029B0007C2203ABDFF844C0E0473870043D03A835
:1029C00029460422B0472068A17B227C0132039B68
:1029D00004330095D2B2DBB2064CA04704B0BDE888
:1029E000F08100BF513F400039814000BC0D002004
:1029F000C40D00207D3E4000780D0020F17C400099
:102A000010B584B00446437C3BB90C480C4B984746
:102A10000C4B18708DF80F0002E0FF238DF80F307B
:102A20002068A17B227C01320DF10F030093D2B20A
:102A30000123054CA04704B010BD00BF780D002055
:102A400021814000BC0D00207D3E400010B584B0C7
:102A500004461230074B984704AB03F8010D206879
:102A6000A17B227C01320093D2B20123024CA04709
:102A700004B010BD653240007D3E400010B584B00A
:102A80000446094B98470290084B984703902068EA
:102A9000A17B227C013202AB0093D2B20823044C0A
:102AA000A04704B010BD00BFF53140002532400002
:102AB0007D3E400030B585B00446437C442B19D19F
:102AC000144D123029464422134B98472846134B85
:102AD0009847134B1A8892B242F008021A80114BA1
:102AE0001B7813F0200F01D00F4B984700238DF86F
:102AF0000F3002E001238DF80F302068A17B227C8B
:102B000001320DF10F030093D2B20123074CA0470D
:102B100005B030BD60090020513F4000C93540007C
:102B2000A41C0020181B0020E12F40007D3E400027
:102B300010B582B003460068997B1A7C0132044BC1
:102B40000093D2B24423034CA04702B010BD00BF93
:102B5000001C00207D3E400010B584B00446437C3C
:102B600093B9114B9847114B1A8892B242F0080260
:102B70001A800F4B1B7813F0200F01D00D4B984794
:102B800000238DF80F3002E001238DF80F3020680C
:102B9000A17B227C01320DF10F030093D2B20123FD
:102BA000054CA04704B010BD55354000A41C0020C2
:102BB000181B0020E12F40007D3E400030B585B05D
:102BC0000446437C602B19D1144D123029466022F3
:102BD000134B98472846134B9847134B1A8892B2C9
:102BE00042F010021A80114B1B7813F0200F01D015
:102BF0000F4B984700238DF80F3002E001238DF82A
:102C00000F302068A17B227C01320DF10F0300936D
:102C1000D2B20123074CA04705B030BDA409002063
:102C2000513F400015364000A41C0020181B002016
:102C3000413040007D3E400010B582B00346006840
:102C4000997B1A7C0132044B0093D2B26023034C6F
:102C5000A04702B010BD00BF441C00207D3E4000D4
:102C600010B584B00446437C93B9114B9847114B7F
:102C70001A8892B242F010021A800F4B1B7813F0A0
:102C8000200F01D00D4B984700238DF80F3002E044
:102C900001238DF80F302068A17B227C01320DF1D9
:102CA0000F030093D2B20123054CA04704B010BD1E
:102CB000DD354000A41C0020181B002041304000DE
:102CC0007D3E40002DE9F041144D2C686B68E11801
:102CD0002046013900221346114EB04706466B6864
:102CE000B3F5803F0ED30025DFF83C800B4F204624
:102CF000C047064304F580340135EDB27B68B5EB7F
:102D0000134FF4D3054A1068411E1944002213469C
:102D1000044CA0473043BDE8F08100BF500E0020B6
:102D200049394000D9384000F137400000B583B040
:102D3000014602AA002322F8023D044B1868044B06
:102D40009847BDF8060003B05DF804FB500E002064
:102D5000BD3F400010B50C4630B1044B9847A0422F
:102D600014BF0020012010BD002010BD2D2D4000FB
:102D70002DE9F8430D461646194BDC6804FB00F4B8
:102D8000184B196828462144174B984728B371B649
:102D9000144F3968214406F1FF38084641440022A7
:102DA0001346DFF850C0E047814638682044294682
:102DB000324600230D4DA84740EA09053B68E1185B
:102DC0000846414400221346094CA04761B62843F7
:102DD0000CBF00200120BDE8F8830020BDE8F88387
:102DE000400E0020500E0020759540001538400020
:102DF000D93840004939400070B584B00091ADF831
:102E00000600134B1B88ADF80830ADF80A0003919B
:102E100071B6104C216863681944A068013900221A
:102E200013460D4DA8470546A06802A908220023B5
:102E30000A4EB0470543216863681944A068013908
:102E400000221346064CA04761B6284304B070BD6B
:102E500094000020500E00204939400015384000F1
:102E6000D9384000234B1B68C3F30323073B072BD0
:102E70002DD8DFE803F0042C0C142C1C2C241E4B42
:102E80004FF482021A604FF480325A6026E01A4BE7
:102E90004FF484021A604FF400325A601EE0164B61
:102EA0004FF488021A604FF480225A6016E0124BE9
:102EB0004FF490021A604FF400225A600EE00E4B5D
:102EC0004FF4A0021A604FF480125A6006E00A4BD9
:102ED0004FF482021A604FF480325A60064B5968F0
:102EE0001A680A44A2F108019960911FD960043A56
:102EF0001A61704740070E40500E002010B50022A6
:102F00000E4B1A700E4C214610220E4B98470E4B5A
:102F10005B68A3F5005362689A4209D8E3687E2B88
:102F200008D80A4B984738B90122044B1A7010BDD3
:102F3000032010BD052010BD062010BD040A00208E
:102F4000400E0020513F4000500E0020C52C400094
:102F500000B583B003460288ADF80620084A12780F
:102F600052B18A1EBDF80600991C92B2054B9847D3
:102F7000002818BF032000E0022003B05DF804FB26
:102F8000040A0020712D400010B501460E481022A1
:102F90000E4B984790B90C4B586819890C4B9847C1
:102FA00070B1094B188959680A4B984750B90024E9
:102FB000094B1C70094B9847204610BD022010BDDC
:102FC000032010BD042010BD400E0020693F4000CA
:102FD000552D4000F92D4000040A0020C143400057
:102FE0002DE9F0410F4810490A22104B9847A8B923
:102FF0000F4C04F144080B4F0E4E0F4D384631462E
:1030000054F8042FA8474445F8D106480B4B98477D
:10301000D0F1010038BF0020BDE8F0810020BDE8FC
:10302000F08100BF9810002080E140005D7B4000EF
:10303000FC1B0020E0E14000798740002181400036
:103040002DE9F0410F4810490A22104B9847A8B9C2
:103050000F4C04F160080B4F0E4E0F4D38463146B1
:1030600054F8042FA8474445F8D106480B4B98471D
:10307000D0F1010038BF0020BDE8F0810020BDE89C
:10308000F08100BF98100020F0F940005D7B400007
:10309000401C0020E0E14000798740002181400091
:1030A0002DE9F04788B082463E4E304607A906AA71
:1030B00005AB3D4CA04700270097304604A903AA62
:1030C00002ABDFF82891C847384C204639468022A9
:1030D000374B984720463749BDF91020364DA84751
:1030E0002046DFF80C81C047201D3449BDF90C2073
:1030F000A8472046C04704F10D003149BDF908201A
:10310000A8472046C047BDF91020BDF90C30BDF9D5
:103110000810009104F114002A49A847009730468E
:1031200004A903AA02ABC847274821461222274B0D
:10313000984700282AD1244B1846D968244B984731
:1031400030BBBDF91C20BDF91830BDF91410009139
:103150001D482049204CA047B0F1FF3F1AD01A4823
:103160001E495246A047B0F1FF3F15D01C4B1A78BC
:1031700015481C49A047B0F1FF3F0FD012481A4B29
:103180009847B84214BF0020012008E0002006E064
:10319000002004E0002002E0002000E0002008B051
:1031A000BDE8F08760140E40F95D4000BC100020BF
:1031B00011974000BCE2400011984000C0E240007E
:1031C000CCE24000ACF94000080A00205D7B4000E2
:1031D00039814000CCF9400079874000DCF940009B
:1031E000181B0020E4F9400021814000ED5E400002
:1031F0000185400030B40A4CE069002343EAD05313
:103200004202B2F5806043F1FF31A478A0FB0423B1
:1032100004FB0133100D40EA033030BC704700BF9F
:10322000640E002010B582B00A4C00940A4801A92F
:103230006A460A4B98470A4B18700198A278A0FB7F
:1032400002014B0243EAD0534202100D40EA033020
:1032500002B010BD640E0020ECF940000184400073
:10326000BC0D002070B505468021104B98470446E0
:103270000F4B1B78B3B90F4E3046002180220E4B06
:10328000984731460D4B41F8033B284622460C4BEC
:10329000984730460B490C4B984728B90334044BE8
:1032A0001C7070BD022070BD012070BD51404000F7
:1032B000050A00204C1B002011974000303A2F00D7
:1032C000513F4000CC1B0020B1834000F8B51746A9
:1032D000048C4FF6FF72944205D0C269158803B181
:1032E00075B9002418E001F1090528460D210B4BA2
:1032F00098470446284639462246094B98470BE032
:1033000000263446BD550134E4B22646C56935F879
:1033100014500DB1A342F5D82046F8BD51404000ED
:10332000513F400008B51948194B984710F0010F5C
:103330002AD0184B1B680133632B02D8154A13603F
:1033400002E00022134B1A60134B1B783BB1114B68
:103350001B68332B40F6FF7128BF002111E00D4B95
:103360001A680E4B33F912300D4A116801FB03F352
:103370000C4981FB03211944DB17C3EBE12101F266
:10338000FF710248084B984708BD00BF00C00340CA
:10339000B13640002C0A0020340A002004FA400014
:1033A000300A002001021080B536400038B51F4BAE
:1033B00098471F4B98471F481F4B98471E201F4B8D
:1033C00098471F4C20461F4B9847204600211E4B14
:1033D0009847204600210A461C4B98472046082162
:1033E000002210231A4DA84720460121194B984767
:1033F00020460121184B984720464FF48571174B02
:10340000984740F2FF72164B1A604FF47A72154BD0
:103410001A60154B40F2AF425A60F021134A82F80D
:10342000231000229A6007221A6038BD1550400010
:1034300085514000CCFA400001984000395D4000C1
:1034400000C003409136400099364000D13640001C
:10345000FD364000B93640002D374000413740006E
:10346000300A0020380A002010E000E000ED00E003
:1034700070B51D4B98471D4C20464FF0FF314FF063
:1034800020521B4DA8471B4E30464FF0FF314FF0E6
:103490002052A84720464FF0FF310022164DA84782
:1034A00030464FF0FF310022A84720464FF0FF3151
:1034B0000022124DA84730464FF0FF310022A847A6
:1034C000204601210A46A8470D4B984704F5C264DF
:1034D00020460C4B9847204600210B4B98474FF451
:1034E000F0620A4B5A6070BD95434000000E0E40DA
:1034F000B559400000100E40F556400009584000F4
:10350000915D400099374000C137400000040E40F3
:1035100008B5094801214FF48032084B9847002034
:10352000074B9847074B98470020074B9847074B96
:103530009847074B984708BD10140E40E9374000E4
:10354000655B40006D5C4000D95C4000195D400047
:10355000BD5D4000144B154A1A6040F2FF725A607C
:10356000134A9A60134ADA60A2F5A202A2F52E72FB
:103570001A6100225A61104A9A61104ADA614FF4C6
:10358000C8721A625A629A624FF40052DA620C4AA6
:103590001A630C4A5A634FF010629A633422DA635A
:1035A00030221A64704700BF001C00202101010076
:1035B000B0710B00988E2800007701000089FEFF93
:1035C0001FF46C17567DAE0F08B502494422024B1A
:1035D000984708BD001C0020513F400010B4002354
:1035E0000A4A4FF400440A4899B2032994BF42F8AA
:1035F000230042F8234003F10C0142F8210001337B
:103600000C2BF1D15DF8044B704700BF441C002027
:103610000080FFFF08B502496022024B984708BDB1
:10362000441C0020513F400070B510480021442246
:103630000F4CA0470F4800216022A04700230E4AEC
:1036400013700E4A13800E4E04250E4C3046294648
:10365000A0470028FAD10C4B98470C4B9847012300
:10366000054A1370054A138070BD00BF001C00207E
:1036700011974000441C0020181B0020A41C0020AF
:10368000F01B0020B939400055354000DD354000C1
:1036900001230360704700BF21B1436843F010036A
:1036A000436003E0436823F0100343600020704749
:1036B000006B7047016270474368012906D823F404
:1036C000981343EA01414160002070470120704790
:1036D00021B1436843F02003436003E0436823F0D3
:1036E0002003436022B1436843F04003436003E09A
:1036F000436823F0400343600020704710B44468DF
:1037000024F07C5424F47F44090289B20C4312B1A2
:1037100044F4001401E024F400141B0603F07C536D
:103720001C43446000205DF8044B7047012905D814
:10373000012303FA01F10161002070470120704765
:10374000C0F894100020704738B5A1F10E03012B8A
:103750001AD9EFF3108472B6BFF35F8F00250C4BBC
:103760001D70120222F07F4222F0FF0242F0B442AA
:10377000C9B21143074B984744B90122044B1A7050
:10378000BFF35F8F62B638BD4FF0FF3038BD00BF6A
:10379000BC0000206D000020836823F07F4323F4E9
:1037A000005343F0254343F400538360704700BF48
:1037B000436801F00F0123F00F030B434360704790
:1037C000436801F4E06123F4E0630B434360704716
:1037D000436823F480534360704700BF436843F459
:1037E00000534360704700BF0A430261704700BF47
:1037F00008B5A0F5800205481121C2F34F22044B01
:103800009847002818BF102008BD00BF000A0E40CE
:10381000493740002DE9F04F85B001910393A0F5A1
:103820008003C3F34F2BC0F30807002A46D0DFF80C
:10383000A08008F5FE750092C7F5007A009EB2459B
:1038400038BF5646CDF808B00BF500546402404628
:1038500021463A46DFF87C90C84708EB07000199FB
:103860003246C847F019C6EB0A02311940443944C0
:1038700092B2C847A8F10403404653F8041F1A1A2D
:103880001151AB42F9D1039B2BB10F480321029A8E
:103890000E4B984704E00C480121029A0B4B9847C5
:1038A00078B9019B334401930BF1010B1FFA8BFB99
:1038B000009B9B1B009303D00027BDE7002000E086
:1038C000002005B0BDE8F08F000A0E4049374000E7
:1038D000400A0020DD9540002DE9F04120F4FF5022
:1038E00020F01F0021F4FF5121F01F0101F5FF54CA
:1038F0001F3402B1106003B11C60A0F58004640A9B
:10390000A4B20E4D0D44C5F34F25AC420DD2DFF8E5
:10391000348008270A4E404639462246B04738B917
:103920001034A4B2AC42F6D304E00020BDE8F0812C
:10393000BDE8F0810020BDE8F08100BFFF1FC0FF9F
:1039400049374000000A0E402DE9F04120F4FF50B5
:1039500020F01F0021F4FF5121F01F0101F5FF5459
:103960001F3402B1106003B11C60A0F58004640A2A
:10397000A4B20E4D0D44C5F34F25AC420DD2DFF875
:10398000348009270A4E404639462246B04738B9A6
:103990001034A4B2AC42F6D304E00020BDE8F081BC
:1039A000BDE8F0810020BDE8F08100BFFF1FC0FF2F
:1039B00049374000000A0E4070B586B005460E46F5
:1039C000042300930C480E210F2202AB0B4CA0479E
:1039D000024660B9042E28BF04264EB1B100002370
:1039E00002AC1C59EC5004338B42F9D100E0102298
:1039F000104606B070BD00BF000A0E400100002056
:103A000008B50146C37B332B03D18048804B9847D0
:103A100008BDAA2B01D0EE2B03D17E487C4B9847E2
:103A200008BD037C023B9E2B00F23F81DFE813F0D0
:103A30009F003D01A2003D01A5003D01A8003D0100
:103A40003D013D013D013D013D013D013D01DE00E6
:103A50003D013D013D01E1003D013D013D013D01D3
:103A60003D013D013D013D013D013D01AB003D01F9
:103A7000AE003D01B1003D01B4003D01B7003D0184
:103A8000BA003D013D013D013D013D013D01E70021
:103A90003D013D013D013D013D01EA003D013D018A
:103AA0003D013D013D013D013D013D01C0003D01A4
:103AB000BD003D013D013D013D013D013D013D0197
:103AC0003D013D013D013D013D013D013D01E40060
:103AD0003D013D013D013D013D013D013D013D01F6
:103AE0003D013D013D013D013D013D01C3003D0161
:103AF000C6003D01C9003D01CC003D01CF003D01A4
:103B0000D2003D01D5003D01D8003D013D01280115
:103B10003D012B013D013D013D013D013D012E01D6
:103B20003D0131013D013D013D013D0134013D01BA
:103B300037013D013A013D013D013D013D013D019E
:103B40003D013D013D013D013D013D013D013D0185
:103B50003D013D013D013D013D013D013D013D0175
:103B60003D013D013D013D013D013D01DB002A4B91
:103B7000984708BD294B984708BD294B984708BD71
:103B8000284B984708BD284B984708BD274B9847B6
:103B900008BD274B984708BD264B984708BD264BC4
:103BA000984708BD254B984708BD254B984708BD49
:103BB000244B984708BD244B984708BD234B984792
:103BC00008BD234B984708BD224B984708BD224BA0
:103BD000984708BD214B984708BD214B984708BD21
:103BE000204B984708BD204B984708BD1F4B98476E
:103BF00008BD1F4B984708BD1E4B984708BD1E4B7C
:103C0000984708BD1D4B984708BD00BF00060E40F1
:103C1000E13E400000080E408D2540002D2640006A
:103C20005126400079264000B52A4000312B400043
:103C3000592B4000BD2B4000392C4000612C400026
:103C4000CD26400025274000AD2740001528400024
:103C5000A9284000152940007D294000012A400084
:103C6000E92840004D2A40007D2A4000D52140002F
:103C70001122400085224000C1224000FD22400068
:103C80000B4B984708BD0B4B984708BD0A4B98470C
:103C900008BD0A4B984708BD094B984708BD094B1A
:103CA000984708BD084B984708BD084B984708BD82
:103CB00039234000E1234000892440003D25400095
:103CC000212140006121400095214000A9264000AB
:103CD00010B504460068074B984750B1217921443C
:103CE00020680C31044B984723790133237100235A
:103CF000A36010BDA5604000BD60400010B5044643
:103D000000682D4B9847E0280BD104F10C000021EE
:103D100088222A4B984700232371A3602068284BF0
:103D20009847A3680133A36040F2FF72934203D126
:103D30000023A36023710FE023796BB1227B3C2A1F
:103D400002D00023237107E0012B05D9637B042BEC
:103D500002D00023237119E02379022B09D9A37B18
:103D6000EE2B06D0332B04D0AA2B02D000232371D4
:103D700010BD2379032B09D9E37B772B06D0AA2B1F
:103D800004D0332B02D00023237110BD21790729E1
:103D900010D9637C08338B420CD10A4B1B784BB98A
:103DA00004F10C00084B984720B92046074B984770
:103DB0000023237110BD00BF9160400011974000A7
:103DC00095604000400C002031404000013A400026
:103DD0002DE9F04104460E46531E9BB272B10133E9
:103DE00001EB0308064D074F2046A8470028FBD0EB
:103DF000204616F8011BB8474645F5D1BDE8F081CD
:103E00009D604000AD60400070B50D4800218822E3
:103E10000C4CA0470C4D9426284600213246A04762
:103E20000A4B2B600A4D284600213246A047094B19
:103E30002B600023084A1380084A138070BD00BF1E
:103E4000401D002011974000A81C002000080E40D3
:103E5000CC1D002000060E40C81D00203C1D002087
:103E600010B50348034CA0470348A04710BD00BF4E
:103E7000CC1D0020FD3C4000A81C0020F8B50746E2
:103E80001D46124E01233370114C3C232370042332
:103E900063707723A370E170227165710698A11D8C
:103EA0002A460C4B98476179204606310A4B9847C1
:103EB00063199871020ADA713846214605F1080241
:103EC000064B984700233370F8BD00BF400C00201C
:103ED000401D0020513F400031404000D13D400096
:103EE000F8B507460C46094D01232B70084E01F129
:103EF0000C0031462279074B9847384631462279E3
:103F0000054B984700232B70F8BD00BF400C0020E4
:103F1000401D0020513F4000D13D40000022014B98
:103F20001A807047C81D002008B50248024B984708
:103F300008BD00BFCC1D0020D13C400008B50248A0
:103F4000024B984708BD00BFA81C0020D13C400090
:103F500030B4154632B10023C45CCC5401339CB25A
:103F6000A542F9D830BC7047F0B40024124B1C8035
:103F70001746DAB10378DBB20A789A4218D10130D9
:103F800001230DE010F8015BEDB211F8014F5E1C4A
:103F9000B6B2A54203D0084A1380012009E0334697
:103FA000BB42EFD1044A1380002002E0002000E071
:103FB0000120F0BC704700BF420C00202DE9F00347
:103FC0000024164B1C60894629B3844641184FF0E3
:103FD00008084AF2010713881CF8010B444603F055
:103FE00001065B0800F001054008AE4218BF7B40A7
:103FF000013C14F0FF04F2D113808C45EBD1084B47
:1040000018700822074B1A70074B1E70074B1D7063
:10401000024BC3F80090BDE8F0037047480C002045
:10402000410C0020440C0020460C0020450C0020D0
:1040300000B583B002AA002322F8023D034B984743
:10404000BDF8060003B05DF804FB00BFBD3F4000B3
:104050000246037843B139B100200130C0B2135C8D
:104060001BB18142F9D87047002070472DE9F04F0D
:1040700087B04FF400427A4B5A607A4B98470B2036
:10408000794B9847794D28464FF0FF314FF0205239
:10409000774EB047774C20464FF0FF314FF020521B
:1040A000B04728464FF0FF310022734EB0472046FC
:1040B0004FF0FF310022B04728464FF0FF31002279
:1040C0006E4DA84720464FF0FF310022A847002040
:1040D0006B4B98476B4CA0470128FCD16A4C20469B
:1040E00000216A4B9847204601217C220B46684CF0
:1040F000A0470F204FF04051664CA0470F20664D5F
:10410000A84710204FF04051A0471020A847212079
:104110004FF04051A0472120A84712204FF04051B6
:10412000A0471220A84713204FF04051A04713206A
:10413000A84714204FF04051A0471420A847574BE0
:104140000393574B04934FF40C630593474D284654
:104150004FF4C0614FF00062DFF814B1D847082077
:10416000DFF804A1D0474F4E304603A9DFF868912D
:10417000C8473046DFF86481C047304601214A4FC6
:10418000B8473C480C214FF00062D8470920D0477F
:1041900006F50076304603A9C8473046C04730468A
:1041A0000121B847DFF838910B204946A04728463F
:1041B0004FF400610A22DFF82C81C0473B4B00938B
:1041C00028460B214FF400625823394FB847284640
:1041D0004FF40061374EB0470C204946A0472846AF
:1041E0004FF480510A22C047334B009328460B21DD
:1041F0004FF480525823B84728464FF48051B047B7
:104200001C204FF0C051A0471D204FF0C051A047C7
:104210001E204FF0C051A0471F204FF0C051A047B3
:104220001A204FF0C051A0471B204FF0C051A047AB
:1042300019202249A047224B9847224C2046224B66
:1042400098472046214B984720464FF48061204BE9
:10425000984720460A211F4B984707B0BDE8F08FCA
:1042600050140E4015504000395D4000000E0E40C5
:10427000B559400000100E4009584000F556400066
:10428000295C40004D5C400060140E40E15D400040
:10429000216040009158400075584000000E2707EB
:1042A0001C4E0E0000060E408D604000458B400005
:1042B000015B400049584000758B40000100002818
:1042C0004945400010140E40D1374000DD37400012
:1042D000C1374000B13740004D604000856040006C
:1042E00058000028015740002DE9F0414FF0030825
:1042F0000B4F0C4E0C4D1020B8470F20B8473046DE
:10430000A8471020094CA0470F20A0473046A847D7
:1043100008F1FF3313F0FF08EDD1BDE8F08100BFD5
:10432000595840008AB2200089000020755840008A
:10433000174B0122C3F88020C3F88021002183F8A5
:1043400000131A604FF400621A60C3F88021302114
:1043500083F80B131A601A60C3F88021402183F898
:104360000B131A604FF48072C3F88020C3F88021C9
:10437000102183F808131A604FF40072C3F88020EC
:10438000C3F88021202183F809131A60704700BF09
:1043900000E100E0094B0122C3F880204FF40062E5
:1043A000C3F88020C3F880204FF48072C3F88020C7
:1043B0004FF40072C3F88020704700BF00E100E0B6
:1043C000014A024B1A607047050000A500140E4018
:1043D00010B5074B1A6892F8223006490878116820
:1043E000527C003318BF0123034CA04710BD00BF0F
:1043F000500C0020560C00200553400010B5084B0F
:104400001B68998941F609300904064B9847044610
:1044100020B1034B18681230034B9847204610BD5B
:10442000500C002099534000CD53400008B5034B79
:104430001B7813B90020024B984708BD560C00208A
:104440007153400010B5002858D1354B9A68530974
:1044500003F5001303F207735B02DB6B02F01F022C
:10446000012101FA02F21A420ED02D4B9B7B8B42A6
:1044700005D12C4B1B7813B100222B4B1A60042260
:10448000274B9A73022010BD254B9B7B042B15D123
:104490000122234B9A73244B1B683BB9214B1A70A2
:1044A000214B224959601A60022010BD00221D4B89
:1044B0001A701F481F4B9847022010BD012B0BD1CB
:1044C000184B1B7803B3184B1B6813F4803F17D0AD
:1044D0000022154B1A6017E0114B9B7B032B11D068
:1044E0000022154B1A700E4C144B1C60144B98474D
:1044F000A07B022814BF0020012010BD042010BDA5
:10450000022010BD032010BD054B02229A730D4AF4
:104510001A6001225A74002283F82220DCE700BFCF
:10452000980000204E0C002010E000E0C0E1E40004
:1045300025CA820089000020560C0020500C002063
:10454000D1434000801A060008B50422034B9A7339
:10455000FF22034B1A70034B984708BD98000020B8
:10456000560C0020CD5240002DE9F04194B0984BFC
:1045700098470446012803D0964B9847204622E3EB
:10458000954B1B680122DA7300241C749C81934BA9
:1045900098474FF480402146914B9847002800F0FF
:1045A000C48245F208504FF4D5718D4B98470028CE
:1045B00000F0C3828B4B9847B0F1FF3F00F0BF8201
:1045C000C0F30B00B0F5D57F40F0AF820126B7E213
:1045D00041F237100021A847002800F0BF82002ECA
:1045E00044F2295014BF39464FF4FC11A847002863
:1045F00000F0B482C04700280ADA10F0804F00F0C3
:10460000BF82754B1B68DA7B42F00802DA73B7E2AF
:10461000013CDDD1A2E244F201503946B047002806
:1046200000F0B682A84700280CDA00F0C040B0F1D4
:10463000804F40F0AF82684B1B68DA7B42F0080283
:10464000DA73A7E2013CE6D1A2E2634B1B680122C8
:104650009A8141F203104FF48031614B9847034631
:10466000002800F05982604B98470346002800F06C
:104670005382594B1B689A7CC2F38302013A032A86
:1046800003D8DFE802F005080B0E12221A740AE0C4
:1046900014221A7407E022221A7404E030221A74D9
:1046A00001E040221A745A7D02F007004F4951F888
:1046B00020104FF47A7000FB01F1C2F3C3024C48A2
:1046C00050F8222002FB01F21A60997E187E5A7E71
:1046D000920042EA802242EAA112C2F30B0240F6A3
:1046E000FF718A4211D0187FD97E490041EAE0115A
:1046F000013201F00701023102FA01F1DA7D02F024
:104700000F0201FA02F2920A5A60998943F20710E5
:104710000904334B98470346002800F0FD812E4BD7
:104720001B681B7C3F2B40F2A28000210091314886
:104730004FF400720123304CA047002800F0338270
:1047400000242E4D03A8A847002800F02C82013435
:10475000A4B2322CF6D1039B03F00203DEB21E4B4F
:104760001B689A7E197E5B7E9B0043EA812343EAA5
:10477000A212C2F30B0240F6FF739A420ED120E25E
:1047800004A8A847002800F00E820134A4B2352CFA
:10479000F6D9114B1A68049B5B085360174D06E06D
:1047A00004A8A847002800F0FE810134A4B27F2CA1
:1047B000F6D9FAE1124B1878124B984704460428B0
:1047C00026D0114B1149082818BF194621E000BF17
:1047D000454440002D444000500C002075534000DB
:1047E00099534000C5534000FD43400060FB40002A
:1047F0007CFB400008110800F5534000C554400000
:10480000560C0020F55240000000B7010002B7012D
:10481000774943F20610774B9847002800F0CD8186
:10482000754B984710F0800F40F0C781734B1B68A1
:104830005C74734B9847734B984708B306B343F2C5
:10484000061071496B4B9847002800F0B8816A4BFD
:10485000984710F0800F40F0B281684B1B6801222E
:1048600083F82220694A1A60654B984708E0644B38
:10487000984705E038463146A847034638B14BE132
:104880000A2441F210174FF400765A4DF2E7013C2A
:1048900014F0FF04EED13FE145F602300021554B04
:1048A0009847002800F0418145F203100021514B48
:1048B0009847002800F03981504C25684E4B9847A6
:1048C000000CA8812368DB7B13F0010F42D0504B12
:1048D0009847002800F0298123685A7D02F00700DC
:1048E0004C4951F820104FF47A7000FB01F1C2F3EB
:1048F000C302494850F8222002FB01F21A609A7C58
:1049000092090CD0DA7E987E597E090441EA002192
:104910000A43C2F31502013252025A601AE0997E2C
:10492000187E5A7E920042EA802242EAA111187F44
:10493000DA7E520042EAE012C1F30B01013102F0CB
:10494000070202329140DA7D02F00F0201FA02F210
:10495000920A5A60294B1B68998943F2071009048F
:10496000244B9847002800F0E080244B1B68DA7B3A
:1049700012F0010F5ED0998941F2371009041D4BE6
:104980009847002800F0D18001230093234800219C
:104990000822234CA047002800F0C78004A801216A
:1049A000204B9847002800F0C0801F4B98470028F4
:1049B00000F0BB809DF8103003F00F03012B08D0EE
:1049C00013B1022B0AD031E00C4B1B6810221A7471
:1049D00030E00A4B1B681A221A742BE09DF8123043
:1049E000DB09064B1B6814BF302220221A7421E019
:1049F0000001B70199534000C5534000500C0020FE
:104A0000D1434000015340000001B9030075190370
:104A1000FD43400060FB400020FB400033110800D4
:104A2000F553400039554000A1554000674B1B68C5
:104A300010221A74664B1878664B984703281AD9C7
:104A4000624B1B68DA7B12F0010F12D0998941F298
:104A500037100904604B9847002866D041F20610D1
:104A600002215D4B984700285FD0584B1B680422F9
:104A70005A745A4B98475A4B984700283FD0534B8B
:104A80001B68DA7B12F0010F37D01B7C102B34D956
:104A9000402404A800212246524B9847012300934A
:104AA000514852492246524CA04700283DD004A804
:104AB0000121504B9847002837D04F4B984700288A
:104AC00033D04E4B984710F0800F2ED19DF82030F8
:104AD00003F00F030F2B10D09DF82D309DF82C20E4
:104AE00053EA022221D1464B9847384B1B680122DA
:104AF00083F822201A6852001A60384B9847334BCB
:104B00001B68DB7B13F0010F07D041F210104FF44C
:104B10000071314B984703463BB12C4B1B68002278
:104B20009A73384B984701204DE0284B1B680324AB
:104B30009C73344B9847204645E0002600E0002651
:104B4000224B1B68DB7B13F0010F3FF4ADAE40F648
:104B50003504214D2C4FDFF8A48039E51B4B1B6831
:104B60000222DA734FF4804000211B4B9847034622
:104B70000028D1D041F26904234F174E1F4D4AE55A
:104B8000124B1B68DB7B13F0010F7FF485AE8BE6C5
:104B90000023C1E745F6023000210F4B984703463A
:104BA0000028B9D051E50023B6E7094B1878094B26
:104BB000984703283FF6FEAD3DE60023ACE700230F
:104BC000AAE7124DDCE514B0BDE8F081500C0020DE
:104BD000560C0020F552400099534000D14340004C
:104BE00001534000119740000611080001FFFF80AB
:104BF000F553400039554000A1554000C5534000D1
:104C0000755340002D44400000801F40C5544000B3
:104C100008B5054B984728B9044B9847044B1B68C7
:104C2000D87B08BD002008BD454440002D4440000D
:104C3000500C002008B5054B984728B9044B9847FD
:104C4000044B1B68586808BD002008BD454440005F
:104C50002D444000500C0020002070472DE9D04723
:104C600083B08A469146264B9847002832D1254C7E
:104C7000254F264EDFF8A0803868818941F20D105B
:104C80000904B04738B3C04710F4807F27D1013CF6
:104C9000F2D120E04FEA4A2A0123009351464FF413
:104CA00000724B461A4CA04718B91A4B984705207A
:104CB00022E0194B9847194B03401BB1154B9847FD
:104CC000052019E0164BA3F80090164BA3F80090AE
:104CD000002011E010E00F4B984705200CE0124B2C
:104CE0001248B9F1010F88BF1846074B1B68DB7BE0
:104CF00013F0080FD0D1CDE703B0BDE8D08700BFD7
:104D000045444000410D0300500C002099534000E1
:104D1000F55340002D444000C5534000000058E4C6
:104D2000540C00204C0C002012111000111108002E
:104D300010B50C46064B984720B90022054B1A8047
:104D4000052010BD034B1A88141B1C80002010BDC9
:104D500039554000540C002010B50446124B9847BA
:104D6000F0B11CB10022114B1A8002E00F4B1B88DE
:104D7000C3B90F4B1B88012B03D10E4B9847002062
:104D800010BD43F20C1000210B4B984720B943F2A1
:104D90000C100021084B9847064B9847002010BD87
:104DA000052010BD002010BDA1554000540C00206E
:104DB0004C0C00202D4440009953400070B582B047
:104DC0000E461546164CA04738BB164B1648012D0B
:104DD00088BF1846154B1B68DB7B13F0080F08BF14
:104DE00076020123009331464FF400722B46104C9B
:104DF000A04718B90F4B984705200EE00E4B984777
:104E00000E4B03401BB10B4B9847052005E00C4BA4
:104E10001D800C4B1D800020FFE702B070BD00BF5D
:104E2000454440001991100018910800500C0020D2
:104E3000F55340002D444000C5534000000058E4A5
:104E4000540C00204C0C002010B50C46064B984723
:104E500020B90022054B1A80052010BD034B1A888B
:104E6000141B1C80002010BD15564000540C00205F
:104E700010B50446124B9847E8B11CB10022114B03
:104E80001A8002E00F4B1B88BBB90F4B1B88012B0C
:104E900003D10E4B9847002010BD43F20C100021A7
:104EA0000B4B984718B9094B9847052010BD074B85
:104EB0009847002010BD052010BD002010BD00BF88
:104EC00081564000540C00204C0C00202D44400022
:104ED0009953400010B504460F4B9847012803D062
:104EE00020B102280FD013E0032010BD0B4B1B5D37
:104EF00083B920460A4B984700F0030000280CBFF6
:104F00000220002010BD0022044B1A55022010BDC3
:104F1000012010BD022010BD69454000580C002042
:104F2000114C400008B50020014B984708BD00BF58
:104F3000D54E400038B504460D46044B9847400016
:104F4000013828602046024B984738BD354C400058
:104F5000D54E400008B501460020014B984708BDDA
:104F6000354F400008B50020014B984708BD00BFF1
:104F7000594C400010B5144601220A4B984720B105
:104F800002280CBF0220012010BD20460121064B43
:104F9000984728B9054B9847003018BF012010BD2D
:104FA000012010BD5D4C4000314D4000594D400086
:104FB00008B503460A4600201946014B984708BD2C
:104FC000754F400010B5144601220A4B984720B196
:104FD00002280CBF0220012010BD20460121064BF3
:104FE000984728B9054B9847003018BF012010BDDD
:104FF000012010BDBD4D4000494E4000714E4000A3
:1050000008B503460A4600201946014B984708BDDB
:10501000C54F400010B50E480E4B984700203E216A
:105020000D4B98470D4CA0470028FCD00C4B9847DF
:105030000C4A0D4B9A620D4CA0470028FCD0102062
:105040000B4B98470B4B98470148024B984710BDB4
:10505000000E27079D624000855C4000095D40000E
:10506000195D4000013F132000040E40295D4000FF
:10507000C55B40008961400008B510B9024B9847F4
:1050800008BD012008BD00BF254F400008B518B974
:105090000846024B984708BD012008BD554F400007
:1050A000D0F1010038BF0020704700BF08B510B92B
:1050B000024B984708BD012008BD00BF654F400066
:1050C00008B520B908461146024B984708BD012093
:1050D00008BD00BFB14F400008B520B908461146D1
:1050E000024B984708BD012008BD00BF0150400099
:1050F0002DE9F0410C46904660B9002A0EDD8F186C
:10510000094E0A4D306821462B6898470134BC424D
:10511000F8D106E04FF0FF30BDE8F0810020BDE897
:10512000F0814046BDE8F081681E0020601E00202E
:105130002DE9F0410E461546013802280FD892B1EC
:105140000024DFF83C800D4FD8F80000315D3B684B
:10515000984700280ADB0134A542F5D10AE04FF058
:10516000FF30BDE8F0810020BDE8F0814FF0FF3056
:10517000BDE8F0812046BDE8F08100BF641E00203C
:10518000681E002038B54FF40042194B5A600B20BE
:10519000184CA0470C20A0470F204FF04051164C50
:1051A000A04710204FF04051A047144D0B20294636
:1051B000A0470C202946A0471C204FF0C051A04713
:1051C0001D204FF0C051A0471E204FF0C051A047F6
:1051D0001F204FF0C051A0471A204FF0C051A047E8
:1051E0001B204FF0C051A04719200549A04738BDEA
:1051F00050140E40395D400091584000580000287E
:105200000100002870B44FF080435D689C68D86846
:10521000D9695A6D80261E605D609C60D860D96136
:105220005A6505221A6070BC704700BF08B501F0CE
:105230003F03184311F4807F0CD011F4006F02D0AB
:1052400040F4845006E011F4005F14BF40F486502F
:1052500040F4825011F4804F18BF40F400604FF0CA
:1052600080431A615861184601F48052036C32B1D0
:1052700013F41F0F0AD0144B9847002008BD13F4F5
:105280001B0F03D0104B9847002008BD13F0010FEF
:10529000ECD011F4005F0ED1012008BD0A6C013B77
:1052A00003D1094B9847002008BD02F03002202AA4
:1052B000F4D1012008BD4FF080431A6C4FF0FF334A
:1052C0004FF08041F1E700BF0552400008B51220C1
:1052D000074B98474FF0804372229A60DA6111229F
:1052E0005A654FF4E0625A6005221A6008BD00BF9B
:1052F000395D400000280CBF04200020704700BF2B
:105300000120704733B14FF08043586D40F48070F6
:10531000586505E04FF08043586D20F48070586563
:105320004900124B994209D80133B3FBF1F001FB5C
:10533000103101B1013010B1013800E000204FF010
:105340008043596821F0FF0159605968C0B2084391
:105350005860042A04D0082A0CBFC022002200E0B2
:1053600080224FF08043DA60704700BFFF0D2707AF
:10537000704700BF4FF080435A6822F460525A6071
:1053800000221A614FF410625A611A46136C13F02E
:10539000010FFBD0704700BF10B504460A464FF01E
:1053A0008043596821F460515960596821F40041E3
:1053B0005960002098612146014B984710BD00BFFD
:1053C0002D5240004FF08043186A704710B400F12E
:1053D00010044FF080410B6A1A0E02701A0C4270D2
:1053E0001A0A8270C37004308442F4D15DF8044B11
:1053F000704700BF70B504460D469DF8101031B1DE
:105400004FF08041486840F40040486005E04FF0AC
:105410008041486820F4004048604FF08040416877
:1054200041F4C051416012F0030F05D001464068BD
:1054300040F40050486005E04FF08041486820F497
:105440000050486004F4004100290CBF4FF4A02034
:105450004FF4803014F4803F07D040F40010C2F3C2
:1054600008064FF080418E6118E043EA02464FF093
:1054700080418E6114F4003F02D040F420100DE012
:1054800014F4802F02D040F4801007E014F4002FB1
:1054900004D114F4801F18BF40F4002000260549F1
:1054A0000E6005490A80054A138021462A46044BAE
:1054B000984770BD600C00205C0C00205E0C002042
:1054C0002D52400008B54FF08041164A0B6C134234
:1054D00003D0154B9847002008BD13F0020FF5D0FC
:1054E0004FF080431B6B0360104A13680433136052
:1054F0000F4A12880F49098801FB02F293420DD32B
:105500004FF08041074A0B6C134203D0064B98477B
:10551000002008BD13F0006FF5D001E0012008BDA8
:10552000012008BD000060C005524000600C002052
:105530005E0C00205C0C0020174B1B8803FB01F164
:1055400010F0030F02D113F0030F06D04FF0804389
:105550005A6842F400525A6005E04FF080435A689E
:1055600022F400525A604FF08043C3F800015B6898
:1055700013F4005F0CBF8A080A464FF08043C3F85B
:1055800004210022C3F814210120C3F82001034B99
:105590001A681144196070475C0C0020600C0020F0
:1055A00008B54FF08041164A0B6C134209D040F207
:1055B00002224FF08043C3F82021124B984700206D
:1055C00008BD13F4804FEFD00F4B1B880F4A128891
:1055D00002FB03F20E4B1B689A420DD84FF080413C
:1055E000074A0B6C134203D0064B9847002008BDB6
:1055F00013F0006FF5D001E0012008BD012008BDC7
:10560000000060C0055240005E0C00205C0C0020D1
:10561000600C0020184B1B8803FB01F110F0030FF6
:1056200002D113F0030F06D04FF080435A6842F4C2
:1056300000525A6005E04FF080435A6822F400524D
:105640005A604FF08043C3F808015B6813F4005FB1
:105650000CBF8A080A464FF08043C3F80C21002291
:10566000C3F81C214FF48072C3F82021034B1A6841
:1056700011441960012070475C0C0020600C002070
:1056800008B54FF08041164A0B6C134209D0154BF8
:10569000984740F202224FF08043C3F820210020B7
:1056A00008BD13F4004FEFD00F4B1B880F4A128830
:1056B00002FB03F20E4B1B689A420DD84FF080415B
:1056C000074A0B6C134203D0064B9847002008BDD5
:1056D00013F0200FF5D001E0012008BD012008BD26
:1056E000000060C0055240005E0C00205C0C0020F1
:1056F000600C00200AB1416670470166704700BF28
:10570000C0F8841052004FF40043B3FBF2F3013BA6
:10571000C3F30D03C0F88C30704700BF10B442646F
:10572000B1F1C05F2ED008D8B1F1006F14D0B1F143
:10573000805F1DD0002935D135E0B1F1205F32D036
:1057400003D8B1F1005F27D02CE0B1F1405F2AD03F
:10575000B1F1605F27D025E0016F046FD343214092
:1057600019400167416F446F21400B40436719E0C6
:10577000036F13430367436F416F0B4023EA020338
:1057800043670FE0036F016F0B4023EA02030367D7
:10579000436F1343436705E0036F13430367436F8E
:1057A0001343436742605DF8044B7047416412F055
:1057B000010F14BF4166016612F00A0F14BF0162A7
:1057C000416212F0020F02D0C0F8801004E012F023
:1057D000080F18BFC0F8841041610160704700BF16
:1057E00010B44164019C0CB1416600E001660BB14C
:1057F000016500E041650AB1016300E041630161B8
:1058000001605DF8044B704712B1C0F89410704706
:10581000C0F89010704700BF12F0100F10D0C0F801
:10582000B01012F0200F14BFC0F8D410C0F8D01080
:1058300012F0400F14BFC0F8C010C0F8C410704779
:10584000C0F8B410704700BFC36C0164704700BF5C
:10585000C06C7047806C7047430903F5001303F276
:1058600007735B0200F01F00012202FA00F01863C8
:10587000704700BF430903F5001303F207735B028F
:1058800000F01F00012202FA00F05863704700BFC9
:1058900070B582B00D46440904F5001404F2077493
:1058A000660201F0F044B4F1005F47D009D8B4F1CA
:1058B000805F21D0B4F1C05F2FD0B4F1006F6FD101
:1058C00009E0B4F1405F55D0B4F1605F52D0B4F15B
:1058D000205F44D064E000F01F0001248440304683
:1058E0004FF000612246304B984715F0010F14BF6E
:1058F00074663466012054E000F01F0001248440E7
:1059000030464FF080512246274B984715F0010F43
:1059100014BF74663466012043E000F01F000124C8
:10592000844030464FF0C05122461F4B984715F037
:10593000010F14BF74663466012032E000F01F00CE
:105940000124844030464FF000512246164B9847C0
:1059500015F0010F14BF74663466012021E000F0D9
:105960001F010124304604FA01F12A460F4B9847E3
:10597000204616E000F01F01012405F0605205EA00
:1059800004030093304604FA01F1B2F1605F14BFE2
:1059900000220122C5F38003054DA847204600E000
:1059A000002002B070BD00BF1D574000AD57400041
:1059B000E1574000F0B583B007460E46154602F0A9
:1059C000F044B4F1005F38D009D8B4F1805F1CD046
:1059D000B4F1C05F25D0B4F1006F50D109E0B4F14B
:1059E000405F3AD0B4F1605F37D0B4F1205F30D07F
:1059F00045E04FF000613246224B984715F0010F09
:105A000014BF7E663E6601203AE04FF08051324678
:105A10001C4B984715F0010F14BF7E663E660120AF
:105A20002EE04FF0C0513246164B984715F0010F4B
:105A300014BF7E663E66012022E04FF000513246E0
:105A4000104B984715F0010F14BF7E663E6601208B
:105A500016E00D4B9847012012E005F0605205F06A
:105A60000103009338463146B2F1605F14BF002253
:105A70000122C5F38003054CA047012000E000206F
:105A800003B0F0BD1D574000AD574000E157400046
:105A90002DE9F84381460E46144B98470546484683
:105AA000134B9847054017D0124F07F10C046C3781
:105AB00054F80C3CB3420AD154F8081C294206D0D1
:105AC00023683046984754F8083C25EA0305BC4251
:105AD00002D01034002DEBD1074B1B6823B1074BCC
:105AE0001B680BB148469847BDE8F8835158400001
:105AF000555840006C0C00206C1E0020680C0020E3
:105B0000F8B50B4C2468062C10D80A4F2601BD1995
:105B1000B9516A60AB600699E960013404490C60D0
:105B200011461A46044B98470020F8BD0120F8BDE5
:105B3000640C00206C0C00201958400008B5024885
:105B40000B21024B984708BD000E0E40915A4000B1
:105B500008B502480C21024B984708BD00100E40C2
:105B6000915A4000164B1A6B22F003021A639B6E87
:105B700013F0080F09D14FF40063114901E0013B14
:105B800018D08A6E12F0080FF9D00D4B1A6B22F064
:105B9000700210431863986E10F008000CD14FF497
:105BA0000063074901E0013B08D08A6E12F0080F3C
:105BB000F9D07047012070470020704701207047DE
:105BC00000040E40174B1A6B22F07002104318634A
:105BD0009B6E13F0080F09D14FF40063114901E0E7
:105BE000013B19D08A6E12F0080FF9D00D4B1A6BD9
:105BF00022F0030242F002021A63986E10F00800CD
:105C00000CD14FF40063074901E0013B08D08A6ED4
:105C100012F0080FF9D0704701207047002070473C
:105C20000120704700040E40012806D1054A936800
:105C300043F0254343F480139360034A014B1A60F9
:105C4000704700BF10140E40080000A5054B5B69AB
:105C500013F0800F1DBF044B986EC0F3C0100020DE
:105C6000704700BF10140E4000040E40044A136A2F
:105C700023F45C1323F0780343F45C13136270473E
:105C800000040E4038B111490B6A114A1A40114BF9
:105C900013430B6270470D4A136A23F45C1323F01D
:105CA000030343F45C1343F00103090289B20B437D
:105CB0001362936E13F0010FFBD0044A136A43F092
:105CC0009B7343F480331362704700BF00040E409F
:105CD000FCFFC8FE0200370148B10A4A136A23F4E8
:105CE0005C1323F0020343F45C1313627047054A0C
:105CF000136A23F45C1323F0010343F45C1313626F
:105D0000704700BF00040E40024B986E00F48030D4
:105D1000704700BF00040E404FF00052014B9A62E2
:105D2000704700BF00040E40024B986E00F0020066
:105D3000704700BF00040E40222820D81F280DD82D
:105D4000124B9A69012383401A40934219D00123D0
:105D500003FA00F00D4B1861002070470B4BD3F88D
:105D600008212038012383401A4093420BD001239D
:105D700003FA00F0054BC3F8000100207047012032
:105D80007047002070470020704700BF00040E409D
:105D90006FF00302084B5A611A46936933F003010E
:105DA000FBD14FF0FF32044BC3F804211A46D2F85E
:105DB0000831002BFBD1704700040E40054B1A69D7
:105DC00042F004021A61044A044B1A6020BF30BF3B
:105DD000704700BF00ED00E0040000A510140E4065
:105DE00021B1436843F0010343607047436823F0E7
:105DF00001034360704700BF30B484688568AC42DB
:105E000003D084688568A542FBD169B104F47C1095
:105E1000050D05EB8505C0F3034000EB450014F4C8
:105E2000800F18BF0C3008604AB104F4FE41080B23
:105E300000EB8000C1F3032101EB4001116043B18D
:105E4000C4F3021202EB820204F00F0404EB4202DC
:105E50001A6030BC704700BFF0B4446814F0010F02
:105E600005D00C2905D90C394FF4800702E0002732
:105E700000E000271C4CA4FB0356F60806EB860541
:105E8000A3EB450343EA0616A4FB0235ED0846EAF8
:105E9000053605EB8505A2EB450246EA02223A43A8
:105EA000A4FB0153DB0842EA035203EB8303A1EB9B
:105EB000430142EA0141036843F00103036083693F
:105EC00013F0010FFBD00123C3618160036823F04D
:105ED00001030360C36943F00403C361C06A00F0B7
:105EE0000100F0BC704700BFCDCCCCCCF0B4049E18
:105EF000C468C568AC4203D0C468C568A542FBD17C
:105F0000A1B104F47F40050B05EB8505C0F3032028
:105F100000EB4505C4F3021000EB800004F00F070E
:105F200007EB4000642707FB005008604AB104F407
:105F3000F811080D85002844C1F3034101EB40012D
:105F400011604BB104F07C52110F01EB8101C2F3DF
:105F5000036202EB41021A6016B1C4F3425434608A
:105F6000F0BC704770B42B4CA4FB0365ED08039E96
:105F7000760546EA057605EB8505A3EB450546EA79
:105F80000565A4FB0263DB0845EA035503EB8303C5
:105F9000A2EB430245EA02431F4AA2FB01529209C7
:105FA00043EA02121D4BA3FB01635B09A4FB0365DB
:105FB000ED0805EB8505A3EB450342EA0305A4FBC9
:105FC0000123DB0803EB8302A1EB420145EA012137
:105FD000A4FB0354E40804EB8404A3EB440341EA68
:105FE0000331036843F002030360836913F0010F78
:105FF000FBD00123C361C160036823F00203036087
:10600000C36943F00403C361C06A00F0020070BCBE
:10601000704700BFCDCCCCCCD34D62101F85EB5167
:1060200010B4446811B144F0100401E024F01004ED
:10603000120202F4FE42144313B144F4004401E09E
:1060400024F4004444605DF8044B704710B4AC2362
:1060500003600A684B68B2FBF3F31B095C1E4FF642
:10606000FE7294420AD803628B68436040F20223B6
:10607000C0F8203150230360002000E001205DF8CB
:10608000044B704750230360704700BF8160704726
:10609000406970474FF48073036070474069C0F3F4
:1060A00040207047406900F001007047436913F0D9
:1060B000020F1ABFC161002001207047436913F02D
:1060C000010F1DBF83690B7000200120704700BFC6
:1060D000FEE700BF10B5204B204A9A4212D9204B50
:1060E0001D4A9A421FD2131D1E4CE41A24F00304C9
:1060F00004340023104619495A581A500433A34255
:10610000FAD110E0144B154A9A420CD2144A19469F
:10611000D31A1548184433B113469C1A245843F82F
:10612000044D9942F9D100BF104B114A9A420BD24B
:10613000131F1049C91A21F003011A1D114400222E
:1061400043F8042F8B42FBD10B4B0C4A9A600C4B4B
:1061500098470C4B9847FEE70000002008034100D9
:106160003C0900203F09002004034100741E002068
:106170003C0900206F1E002000ED00E000204000E0
:1061800025954000E18A40003D4B1B6B03F0030363
:10619000032B5DD8DFE803F0020E2B2B394B5B6934
:1061A00013F0800F14BF4FF400424FF4FA42364B05
:1061B0001A604DE0324B1B6A13F0807F03D0334AE4
:1061C000314B1A6044E0324A2F4B1A602C4B1B6A49
:1061D00003F07003102B02D0202B04D038E02D4A9E
:1061E000294B1A6034E0294A274B1A6030E0244BCF
:1061F0001B6A13F0807F03D0244A234B1A6012E0FD
:10620000234A214B1A601E4B1B6A03F07003102BAC
:1062100002D0202B04D006E01E4A1B4B1A6002E07D
:106220001A4A194B1A60164B1B6B03F00303022B1F
:10623000134B07BF986A996AD86AD96A124BC0F3A0
:106240000A401A6800FB0222C9B2B2FBF1F21A60DE
:106250000B4B1B6B03F07003702B07D10A4B1A68B2
:106260000D49A1FB020252081A607047044B196BDA
:10627000054BC1F302111A68CA401A60704700BF8B
:1062800000040E4010140E40C0000020001BB70098
:1062900000093D0000127A00ABAAAAAA124B98424C
:1062A00004D84FF08062114B1A607047104B98422F
:1062B00003D8104A0D4B1A6070470F4B984203D811
:1062C0000E4A0A4B1A6070470D4B984203D80D4A8C
:1062D000064B1A6070470C4B984294BF4FF0042253
:1062E0000A4A024B1A607047FF2C3101000A0E4027
:1062F000FF59620200010004FF86930300020004BC
:10630000FFB3C40400030004FFE0F505000500042A
:10631000094B1B6813B9094A074B1A60064B1B68E7
:106320001A180749914204DB1046034A10601846C8
:1063300070474FF0FF307047DC0C0020784E002093
:10634000FCFF01204FF0FF30704700BF4FF40053B7
:106350004B600020704700BF01207047002070474D
:1063600010B504460F4800210F4B9847012C12D856
:1063700020460E4B9847032804D120460B4B9847E4
:1063800003280AD058B92046094B984700280CBF6B
:106390000020042010BD012010BD012010BD0120EF
:1063A00010BD00BF60140E40E15D40007950400018
:1063B000AD50400008B5054B984720B102280CBFEE
:1063C0000320012008BD002008BD00BF7950400017
:1063D0002DE9F04F83B007460D4614469A46184EF5
:1063E000B0470646F8B1384601A9164B9847B04663
:1063F00006FB0A42019B03FB06639A4215D8D1466D
:10640000BAF1000F13D04FEA462A0026DFF838B061
:10641000384621462A46D84758B90136444455449F
:106420004E45F5D307E0012006E0042004E00020FB
:1064300002E0012000E0002003B0BDE8F08F00BFC3
:10644000A15040008D504000C15040002DE9F04F58
:1064500083B007460D4614469A46184EB047064686
:10646000F8B1384601A9164B9847B04606FB0A42D8
:10647000019B03FB06639A4215D8D146BAF1000F7F
:1064800013D04FEA462A0026DFF838B038462146B6
:106490002A46D84758B90136444455444E45F5D3A9
:1064A00007E0012006E0042004E0002002E00120D3
:1064B00000E0002003B0BDE8F08F00BFA150400015
:1064C0008D504000D950400010B582B014460329C9
:1064D00023D8DFE801F01B060E0201231360002021
:1064E0001EE001A90F4B9847019B01332360002058
:1064F00016E00D4B9847431EDBB2012B03D904284D
:1065000001D008280BD10020207009E0074B9847E4
:10651000002814BF0320002002E0042000E0012036
:1065200002B010BD8D504000A15040007950400095
:1065300030B58BB0114C204609A908AA07AB104D05
:10654000A84703AB0093204606A905AA04AB0D4C4F
:10655000A047049B1A04059B42EA4352079B1A4337
:10656000099B42EAC322089B42EA4310069BA3F21E
:10657000BC7340EA43600BB030BD00BF60140E40F6
:10658000F95D4000ED5E400032B1821811F8013B28
:1065900000F8013B9042F9D1704700BF22B1821848
:1065A00000F8011B9042FBD1704700BF0239C3695C
:1065B000023B99423DBF8278C36A02FB0130002052
:1065C000704700BF00F10B010023DA0142EA5303D8
:1065D00010F8012B52FA83F3DBB28842F5D118464A
:1065E000704700BF08B570B1027872B1C2888A42A4
:1065F0000DD14078074B984700F0010000280CBFF0
:106600000020032008BD092008BD092008BD09207D
:1066100008BD00BFB563400038B504460A4640785F
:1066200004F1340101231D4DA84788BB94F833229F
:1066300094F8323243EA022212B2194B9A4229D11B
:1066400094F86D2094F86C301B0443EA026294F8CD
:106650006A30134394F86B2043EA022222F07F420F
:10666000104B9A4218D094F8890094F888301B0493
:1066700043EA006094F88630034394F8870043EAC5
:10668000002020F07F40074BC01A18BF012038BD02
:10669000032038BD022038BD002038BDD163400042
:1066A00055AAFFFF464154002DE9F0411646036804
:1066B0001C78303C092C05D85A783A2A02D102338A
:1066C000036001E0CF4B1C78072C00F26281CE4BB7
:1066D00053F824500D60002D00F05E812B788BB1B3
:1066E0006878CA4B984710F0010F0BD1002E00F0CC
:1066F000568100F00400C0B2002814BF0A20002018
:10670000BDE8F08100232B70E0B26870C04B984761
:1067100010F0010F40F046811EB110F0040F40F060
:10672000448128460021BB4B9847012817D195F892
:10673000F631002B00F03C8195F8FD2195F8FC31F5
:106740001B0443EA026295F8FA31134395F8FB41C2
:1067500043EA042428462146AE4B984700E0002433
:10676000032800F02881002840F0288195F8402077
:1067700095F83F3043EA02231BB2B3F5007F40F0A7
:10678000208195F84B0095F84A3053EA00200DD14E
:1067900095F85B2095F85A301B0443EA026295F89D
:1067A0005830134395F8590043EA0020286295F8C1
:1067B0004410E9704B1EDBB2012B00F2058195F805
:1067C0004130AB70002B00F002815A1E1A4240F09B
:1067D000018195F8466095F8452042EA06222A8113
:1067E00012F00F0F40F0F98095F8487095F8476067
:1067F00056EA07260DD195F8577095F8566036047D
:1068000046EA076795F854603E4395F8557046EAA6
:10681000072695F843C095F8427057EA0C2700F018
:10682000DF8001FB00FC07EB121161448E42C0F0D7
:10683000DA80761AB6FBF3F3002B00F0D78040F62F
:10684000F576B3428CBF022601264FF6F578434514
:1068500000F2EC800233EB612144E96227446F626D
:10686000032E13D1002A40F0C48095F8631095F8E8
:106870006220120442EA016195F860200A4395F80B
:10688000611042EA0122AA629B000DE0002A00F09A
:10689000B3806744AF62022E0FBF5B0003EB43027D
:1068A00003F0010303EB520303F2FF13B0EB532F8A
:1068B000C0F0A5804FF0FF332B610023EB60032E67
:1068C0005AD16B7195F8652095F8643043EA02223D
:1068D00022446A61687805F1340101234E4CA047D7
:1068E000002849D195F8332295F8323243EA022242
:1068F00012B24A4B9A423FD195F8372095F836307C
:106900001B0443EA026295F83430134395F83520AE
:1069100043EA0222424B9A422ED195F81B2295F867
:106920001A321B0443EA026295F81832134395F8B1
:10693000192243EA02223B4B9A421DD195F82322A9
:1069400095F822321B0443EA026295F82032134381
:1069500095F8212243EA0223EB6095F81F2295F86F
:106960001E321B0443EA026295F81C32134395F869
:106970001D2243EA02232B612E702B4A1388013318
:106980009BB21380EB80002028632871A861BDE8CA
:10699000F0810B20BDE8F0810C20BDE8F0810020E3
:1069A000BDE8F0810320BDE8F0810A20BDE8F08158
:1069B0000D20BDE8F0810120BDE8F0810D20BDE88B
:1069C000F0810D20BDE8F0810D20BDE8F0810D20A3
:1069D000BDE8F0810D20BDE8F0810D20BDE8F0811B
:1069E0000D20BDE8F0810D20BDE8F0810D20BDE84F
:1069F000F0810D20BDE8F0810D20BDE8F0810D2073
:106A0000BDE8F081E00C0020E40C0020B5634000FC
:106A10006163400019664000D163400055AAFFFF42
:106A20005252614172724161E20C00200233EB610B
:106A30002144E96227446F62032613E72DE9F843F6
:106A40000D4601F109020369002B5ED0416991F8FE
:106A50000C800B78202B1BD00E46002408F0080772
:106A6000FFB203E016F8013F202B11D0052B08BF21
:106A7000E52347B1A3F1410C5FFA8CFCBCF1190F7F
:106A80009CBF2033DBB202F8013B0134082CE9D172
:106A90000B7A202B22D0561C2E2313700B7A202B1E
:106AA0001BD001F10804171D324608F010085FFAE8
:106AB00088F603E014F8013F202B0FD046B1A3F174
:106AC000410C5FFA8CFCBCF1190F9CBF2033DBB288
:106AD00002F8013BBA42EDD100E03246CB7A2B728C
:106AE000CC7F8B7F1B0443EA04630C7F23434C7FE2
:106AF00043EA04232B604C7E0B7E43EA0423AB80E5
:106B0000CC7D8B7D43EA0423EB8000231370AE69B8
:106B100056B3EB6943B30369DBB1028C4FF6FF73E5
:106B20009A4218D0C7693888B8B10024A146DFF866
:106B30003C804946C04790B1EA69013AA24210D967
:106B40000134321902F8010C37F814000028F0D192
:106B500008E0002406E0002404E0002402E0002411
:106B600000E0002400233355BDE8F883758A400017
:106B70002DE9F04704460E46056B8D422FD0037970
:106B80000BB300F13408407841462A4601231A4FDE
:106B9000B84738BB00232371226A636A13449D42BD
:106BA00011D2E778012F0ED94FF0010ADFF8489093
:106BB000226A1544607841462A465346C847013F39
:106BC000FFB2012FF4D186B1607804F1340132466E
:106BD00001230A4DA84758B92663BDE8F087002075
:106BE000BDE8F0870120BDE8F0870020BDE8F08710
:106BF0000120BDE8F08700BF4D644000D163400034
:106C0000F8B505460C4601295CD9C36999425BD2A7
:106C10000378022B28D0032B38D0012B56D101EB5F
:106C20005106416A01EB5621304B9847002850D15C
:106C3000C6F308032B4493F834700136696A28467A
:106C400001EB5621294B9847002845D1C6F3080689
:106C5000354495F8340047EA002014F0010F14BFC2
:106C60000009C0F30B00F8BD416A01EB14211F4B72
:106C70009847A0BB640004F4FF742B1993F83430D8
:106C80002C4494F8350043EA0020F8BD416A01EB3A
:106C9000D411164B984728BBA40004F4FE742B199A
:106CA00093F8360093F83720120642EA004293F830
:106CB000350042EA00202C4494F83430184320F088
:106CC0007040F8BD0120F8BD0120F8BD4FF0FF3045
:106CD000F8BD4FF0FF30F8BD4FF0FF30F8BD4FF07A
:106CE000FF30F8BD4FF0FF30F8BD00BF716B4000C2
:106CF000F8B504460D46E1808168012938D0036863
:106D0000DA69914236D271B91A78032A01D1996AA7
:106D100049B90022E2601A89AA422DD99B6A03EB85
:106D2000151323611BE09E783601B54210D3164F30
:106D30002068B8470146B0F1FF3F1FD001281FD996
:106D40002368DB6998421DD2AD1BADB2AE42EFD9CC
:106D5000E16020680D4B984700EB1510206105F0AD
:106D60000F05236803EB4513343363610020F8BD3E
:106D70000220F8BD0220F8BD0220F8BD0120F8BDB8
:106D80000220F8BD0220F8BD016C4000AD65400056
:106D9000F8B505460C461646012979D9C3699942CA
:106DA00078D20378022B3ED0032B4ED0012B6BD12F
:106DB00001EB5107416A01EB5721384B98470346D5
:106DC000002862D1C7F3080314F0010409D0EA18BF
:106DD00092F8342002F00F02F1B242EA0112D2B26C
:106DE00000E0F2B22B4483F83420013701232B71E9
:106DF000696A284601EB5721284B9847034600282B
:106E000043D1C7F3080714B1C6F3071607E0EA1920
:106E100092F8342022F00F02C6F3032616432F44C3
:106E200087F8346031E0416A01EB14211B4B98472D
:106E3000034650BB640004F4FF742A1982F83460DE
:106E4000C6F3072682F835601FE0416A01EBD411D2
:106E5000124B98470346C0B9A40004F4FE742A19E3
:106E600092F8371009062C4401F070410E4384F863
:106E70003460C6F3072182F83510310C82F83610E1
:106E8000360E82F8376000E0022301222A7102E008
:106E9000022300E002231846F8BD00BF716B4000DA
:106EA0002DE9F8430546894631B9C6686EB1C36914
:106EB0009E4228BF012609E02B4B9847012842D962
:106EC000EB6998424DD34E4600E0012634464FF020
:106ED0000208254F0134EB699C4202D3012E35D9BB
:106EE000444628462146B84738B1B0F1FF3F30D07C
:106EF000012830D0B442EDD12FE026462846214665
:106F00006FF07042194B98470346A8B9B9F1000FCA
:106F100006D0284649462246144B9847034658B99E
:106F2000EE602B69B3F1FF3F1AD0013B2B610123C7
:106F30006B712046BDE8F883012B14BF01204FF090
:106F4000FF30BDE8F8830120BDE8F8830020BDE8EC
:106F5000F883BDE8F883BDE8F8830020BDE8F88336
:106F60002046BDE8F88300BF016C4000916D4000F1
:106F70002DE9F84304460E46012924D9C3699942F4
:106F800023D2174F4FF00009DFF8588020463146D2
:106F9000B8470546D8B101281BD0B0F1FF3F1AD041
:106FA000204631464A46C0470146A8B92369B3F195
:106FB000FF3F03D00133236101236371E369AB42D7
:106FC0000AD92E46E2E7022106E0022104E0002170
:106FD00002E0022100E001210846BDE8F88300BF7D
:106FE000016C4000916D40002DE9F84F04460E46BB
:106FF000C5880135ADB2002D6BD00369002B6BD075
:1070000015F00F075CD101330361C16821B9036832
:107010001B89AB4263D953E000688378013B13EAD4
:1070200015134DD13B4B9847804601285AD9B0F1F2
:10703000FF3F5AD02068C36998453AD3002E57D0F5
:10704000E168354B98478046002854D0012855D038
:10705000B0F1FF3F55D020680021304B9847002801
:1070600052D12068343000214FF400722C4B9847E5
:107070002668304641462B4B9847306300264FF038
:10708000010BB246DFF894900BE083F804B020685F
:107090005146C8470136002839D123681A6B01329E
:1070A0001A63F2B2236899789142EED8196B8A1A62
:1070B0001A63C4F80C80206841461A4B9847206137
:1070C000E580236803EB4713343363610020BDE898
:1070D000F88F0420BDE8F88F0420BDE8F88F042065
:1070E000BDE8F88F0220BDE8F88F0120BDE8F88FD9
:1070F0000420BDE8F88F0720BDE8F88F0220BDE826
:10710000F88F0120BDE8F88F0120BDE8F88F01203D
:10711000BDE8F88F016C4000A16E4000716B40002B
:107120009D654000AD6540002DE9F04F87B00546F4
:1071300000216A4B9847002840F0B3804FF0FF09C8
:10714000C846674F674A0C320192DFF8A4B128683D
:107150002969B847002840F0A5806C692678002E80
:1071600000F0A180E37A03F03F02E52E00F0868074
:1071700013F0080F03D00F2A40F0838001E00F2A9C
:107180005FD1D5F81CA0BAF1000F00F0828016F094
:10719000400F06D094F80D9006F0BF06EB882B84C4
:1071A00004E0B04518BF4FF0FF0872D1637B009335
:1071B0004B4569D1237823F04003013B03EB4302A5
:1071C00003EB82020392474A02F1FF384FF00109B4
:1071D000CDF808A00596039E04954D46DDF8049071
:1071E00018F8013FE2185078E35C43EA00207DB1D3
:1071F0003D4B98470546FE2E62D806F1010A029AD9
:1072000032F81600384B984785425BD1564603E06A
:107210004FF6FF72904257D1C845E1D1DDF808A082
:10722000A9460396059E049D237813F0400F41D094
:10723000B9F1000F3ED0039A3AF81230002B39D042
:1072400043E0B8F1000F03D12046D84748452CD081
:107250004FF6FF732B84AB69DA7A12F0010F16D167
:1072600004F10B0001E0844221D014F8011B13F853
:10727000012B9142F7D04FF0FF080AE04FF0FF08D2
:1072800007E04FF0FF0804E04FF0FF0801E04FF087
:10729000FF0828460021154B984700283FF457AFB8
:1072A00007E017E016E0042014E0002012E00020C0
:1072B00010E00FE0013E5FFA86F8DDF80090E8E7A5
:1072C000049D02E0049D00E0049DDDF800904FF075
:1072D000FF08DEE707B0BDE8F08F00BFF16C4000AB
:1072E000716B400004FC4000B58A4000E96F40002B
:1072F000C56540002DE9F04F87B004468569D0F898
:107300001C8003A829460C22A44B98479DF81730EF
:1073100013F0200F40F02A8113F0010F6CD00023EE
:10732000EB72E361284603A90B229C4B9847012787
:107330003A46202616E0284603A90B22974B984789
:10734000052F0ED9A8F102033A46D10341EA5202B1
:1073500033F8021F11FA82F292B259880029F4D14F
:1073600000E03A46072302F00F0000F1300139290E
:1073700088BF00F13701013B01A818444170C2F3F6
:107380000F12002AEFD19E467E2106AA1A4402F867
:10739000141C63B12A78202A0BD02946002201321E
:1073A000724507D011F8010F2028F8D102E0002221
:1073B00000E00022072B05D806A9194411F8141C77
:1073C000013300E03146A9540132072AF2D92046A0
:1073D000734B984728B90137BFB2642FABD1072050
:1073E000F5E0642F00F0C480042840F0C3809DF8CD
:1073F0001730EB72C4F81C809DF8173013F0020FA1
:1074000015D0B8F800303BB1002301339BB238F8F7
:107410001320002AF9D100E000231933614A82FBCE
:107420000319DB17C3EBA9091FFA89F901E04FF033
:107430000109204600215C4B9847002840F09B80C2
:107440004FF000084546594EC246594F2068216901
:10745000B0470346002840F09F8063691B78E52B06
:1074600000D03BB90DB9B4F806800135ADB24D4539
:1074700001D181E0554620460121B8470346002846
:10748000E4D089E020464146474B98470346002810
:1074900040F08280A069474B9847804609F1FF374A
:1074A000BFB2454E20682169404B984703460028EB
:1074B00072D1D4F81C9061695FFA87FB81F80D8066
:1074C0000F23CB7200230B738B76CB760BF1FF323D
:1074D00002EB420002EB800001224FF6FF7E4FF0EC
:1074E000FF0A02E0284673460132734548D0451C26
:1074F00039F81030B01810F8010C0B5408444FEA5A
:10750000132C80F801C0002B43D028460C2AEBD95D
:107510004FF6FF72934202D039F810300BB94BF09E
:10752000400B81F800B0236801221A712046002127
:107530001F4B9847034678BB013FBFB2002FB1D124
:107540003EE065692846002120221C4B98472846CA
:10755000A1690B22114B9847A369DB7A03F018034A
:107560002B73236801221A71304630E006202EE08A
:1075700007202CE02BE02AE0B9F1010F82D81FE0B0
:10758000B51815F8015C01F805A00D4485F801A0B7
:10759000BCE70C2AA6D9C2E7184618E08965400066
:1075A000297140004FECC44EF16C4000716B4000FB
:1075B000E96F4000C565400004FC40009D65400047
:1075C00020682169034B984706460028B9D007B0C8
:1075D000BDE8F08F716B40002DE9F84F04464FF085
:1075E000FF0846460425414FDFF80CA10AF10C09BB
:1075F00069E02068B8470546002868D160690378CB
:10760000002B6ED0C27A02F03F01E52B50D012F071
:10761000080F02D00F294DD101E00F293FD113F0FF
:10762000400F06D090F80D8003F0BF03E28822845B
:1076300003E09E4218BFFF263FD190F80DE0C645FB
:107640003AD1D4F81CC0027802F03F02013A02EBB2
:10765000420502EB85050AF1FF3201264FF6FF785D
:1076600012F8011F00EB010B9BF801B0415C41EAED
:107670000B2136B1FE2D31D82CF815100E460135F0
:1076800001E041452AD14A45EAD1027812F0400F83
:1076900020D0FE2D22D800222CF815201AE01EB989
:1076A000134B984740451ED04FF6FF7323841AE0D2
:1076B000FF2602E0FF2600E0FF26204600210D4BBA
:1076C0009847054618B92169002992D15DB1002378
:1076D000236108E0013BDEB2F046EEE7F046FF260C
:1076E000EBE70425F3E72846BDE8F88F716B40000F
:1076F000C5654000E96F400004FC400070B50446D9
:1077000000212D4B98470346002852D12378032BA4
:1077100047D16379002B44D00025256304F134065A
:10772000304629464FF40072244B9847552384F87D
:107730003232AA2384F83332522384F8343084F866
:107740003530612384F83630412284F837207221A5
:1077500084F8181284F8191284F81A2284F81B325B
:10776000236984F81C32C3F3072284F81D221A0C03
:1077700084F81E221B0E84F81F32E36884F820323E
:10778000C3F3072284F821221A0C84F822221B0E4C
:1077900084F823326078314662690123084EB0478D
:1077A0006571607800210A46064B9847031C18BF94
:1077B0000123184670BD00BF716B40009D654000FD
:1077C0004D644000C96440002DE9F04F83B083460A
:1077D00088460B782F2B01D05C2B05D108F10108CE
:1077E0000023CBF8083002E003689B69836098F8B7
:1077F00000301F2B01D9B44D08E058460021B34B8F
:10780000984703460022CBF81420A0E1C24618F89E
:10781000013B2F2BFAD05C2BF8D0DBF81C609AF8D8
:1078200000001F2840F263812F2800F049815C2866
:1078300000F05681A6F1020957460124A0460AE04D
:107840002F2B00F04F815C2B00F04C81B2F5807F34
:1078500000F0738114464146A8470146002800F015
:107860006C817F2809D8222900F06781984A12F894
:10787000013F13B19842FAD15FE129F8021F621C5F
:1078800017F8013F18461F2BDAD832E1012C03D13B
:1078900033882E2B0BD10DE0022C03D173882E2BB5
:1078A00005D101E01CB948E133882E2B02D006EB4C
:1078B000440212E0002326F81430DBF81820A3421B
:1078C0002CBF20212E21D15401330B2BF5D1DBF815
:1078D000183049F02002DA7225E132F8023D202BFF
:1078E00001D02E2B02D1013CF7D126E1002C00F073
:1078F00024816700F21900924FF0000A26F814A0C4
:10790000DBF8180020210B22724B9847B11E53461A
:1079100000E0013331F8022F202AFAD02E2AF8D0C5
:10792000002B00F0EB8049F00309E7E0013C05D1B2
:107930000822019200220092924606E0AAF1020A71
:107940003AF8022C2E2AF1D1F2E75F1C36F8130028
:1079500000285AD0202804D02E2806D1BC4200F09E
:10796000EE8049F003093B46EFE7009B019A934202
:1079700002D2BC4217D1CAE0019B0B2B03D149F0C4
:107980000309534644E0BC4203D049F00309A7422F
:107990003DD84FEA8A0A5FFA8AFA23460B220192FF
:1079A00008220092D1E77F280CD90021A84703467E
:1079B000002800F0C980484A134413F8800C49F0AD
:1079C000020950B101462B2807D0444A12F8013F62
:1079D000002B00F0A1809942F8D149F003095F2003
:1079E0000BE04AF0020A08E0A0F161039BB2192BF8
:1079F00003D84AF0010A203880B2DBF81830009A28
:107A000098543B46013200929FE7534600E05346AC
:107A1000DBF818201178E52904BF05211170019ABF
:107A2000082A04BF9B005FFA83FA0AF00C030C2BB0
:107A300003D00AF00302032A01D149F0020919F028
:107A4000020F0AD10AF0030ABAF1010F08BF49F088
:107A50001009042B08BF49F00809DBF8183083F837
:107A60000B9060E0042B72D112F0200F09D000239C
:107A7000CBF80830CBF8143012F0040F3FF4C6AE48
:107A800065E002F00402D2B2002A08BF05235EE0DE
:107A900012F0040F5BD1DBF81430DA7A12F0100F19
:107AA0000CD0597D1A7D42EA0122D97E9B7E43EAA1
:107AB000012343EA0243CBF80830A7E6052346E05A
:107AC000002401220EE000BF758A4000F16C4000E6
:107AD000BCFB40009D65400014FC4000C8FB40001A
