:020000040040BA
:10000000580B002021014000A5014000A50140003F
:10001000A5014000A5014000A5014000000000002E
:10002000000000000000000000000000A5014000EA
:10003000A501400000000000A5014000A50140000E
:10004000A5014000A5014000A5014000A501400018
:10005000A5014000A5014000A501400000000000EE
:10006000A5014000A501400000000000A5014000DE
:10007000A501400000000000A5014000A5014000CE
:100080000000000000000000A5014000A5014000A4
:10009000A5014000A5014000A5014000C90E400097
:1000A000A5014000A5014000000000000000000084
:1000B00000000000A5014000A5014000A50140008E
:1000C000A5014000A5014000A501400010B5054C68
:1000D000237833B9044B13B10448AFF300800123F4
:1000E000237010BD20050020000000009811400082
:1000F00008B5064B1BB106480649AFF30080064819
:10010000036813B1054B03B1984708BD0000000018
:1001100098114000240500209811400000000000C4
:1001200080B582B000AF164B7B60164B3B607A689F
:100130003B689A420CD007E03B681A1D3A607A6827
:10014000111D796012681A603A680F4B9A42F3D316
:100150000E4B3B6004E03B681A1D3A6000221A60B7
:100160003A680B4B9A42F6D30A4B7B600A4B7A688B
:1001700022F07F029A60094B9847094B9847FEE7A7
:1001800098114000000000202005002020050020DC
:10019000540700200000400000ED00E0F10E400098
:1001A000B502400080B400AFFEE700BF80B483B06A
:1001B00000AF786001464868D1F800D080470C371E
:1001C000BD465DF8047B704780B584B000AF7860B1
:1001D0007B6803F07F03002B01D0012338E07A68AD
:1001E0001D4B9A4201D9022332E071B60023FB6015
:1001F00009E01A4BFA6820324FF0FF3143F8221021
:10020000FB680133FB60FB68072BF2DD0023FB601A
:1002100009E0124BFA6860324FF0FF3143F82210C8
:10022000FB680133FB60FB68072BF2DDBFF34F8FE8
:10023000BFF36F8F0A4B7A6822F07F029A60BFF398
:100240004F8FBFF36F8F61B67868064B98470023D6
:1002500018461037BD4680BD80FFFF3F00E100E03B
:1002600000ED00E0AD01400080B400AF034B044A54
:100270001A60BD465DF8047B704700BF00140E4055
:10028000050000A580B483B000AF094B9B6823F044
:100290007F4323F480537B60054A7B6843F025430A
:1002A00043F4805393600C37BD465DF8047B704780
:1002B00010140E4080B500AF104B9847104B984774
:1002C000002006210F4B98470F4B98470F4B98473C
:1002D0000346002B0DD00E4B98470346002B02D04F
:1002E0000C4B984701E00C4B98474FF47A700B4B3E
:1002F00098470B480B4B9847FEE700BF2903400087
:1003000085024000110B40007D0540005D06400065
:100310004508400069024000CD0840009D0E4000A5
:1003200000204000C901400080B483B000AF00232A
:100330007B604F4B4E4A126B22F003021A6300BFE0
:100340004B4B9B6E03F00803002BF9D0484B484AF7
:10035000126B22F070021A6300BF454B9B6E03F0D4
:100360000803002BF9D0424A414B1B6A43F45C134B
:1003700043F00803136200BF3D4B9B6E03F4003350
:10038000002BF9D03A4A3A4B1B6A23F45C1323F052
:10039000700343F45C1343F02003136200BF344B3B
:1003A0009B6E03F40033002BF9D0314A304B1B6AAB
:1003B00023F09B7323F4803343F45C1313622C4BC0
:1003C0002B4A126B22F0030242F001021A6300BFB3
:1003D000274B9B6E03F00803002BF9D0244B244AD3
:1003E000126B22F070021A6300BF214B9B6E03F068
:1003F0000803002BF9D01F4B4FF400721A601E4BFC
:100400001E4A1A601E4B7B60194B4FF000529A62D5
:10041000174B7A6842F000529A6200BF144B9B6EF1
:1004200003F00203002BF9D0114B114A126B22F09A
:1004300070021A6300BF0E4B9B6E03F00803002B83
:10044000F9D00B4B0A4A126B22F0030242F002026F
:100450001A6300BF064B9B6E03F00803002BF9D014
:10046000034B084A1A610C37BD465DF8047B7047A0
:1004700000040E40000A0E40F40000200051250246
:10048000033F08000008800080B584B000AFF8602A
:10049000B9607A607B681B0203F47062BB68134327
:1004A00043F08063F8681946034B984700231846C9
:1004B0001037BD4680BD00BFA500002080B584B0C8
:1004C00000AF786039607B681B6823F47063FB6061
:1004D0003B681B0203F47062FB681343786819469B
:1004E000024B98471037BD4680BD00BFA5000020D5
:1004F00080B483B000AF78607B681B6803F47063DE
:100500001B0A18460C37BD465DF8047B704700BFD8
:1005100080B584B000AFF860B9607A60BB680E2B1C
:1005200002D0BB680F2B02D14FF0FF330FE07B6886
:100530001B0223F07F4323F0FF03BA68D2B21343B8
:1005400043F0B443F8681946034B984703461846EE
:100550001037BD4680BD00BFC100002080B400AF91
:10056000054B1B6803F470631B0ADBB21846BD46DB
:100570005DF8047B704700BF40070E4080B500AFB8
:10058000344B98470346073B072B40D801A252F84B
:1005900023F000BFB50540000F064000C70540002E
:1005A000D90540000F064000EB0540000F06400053
:1005B000FD054000284B4FF482021A60264B4FF491
:1005C00080325A602CE0244B4FF484021A60224B94
:1005D0004FF400325A6023E01F4B4FF488021A6038
:1005E0001D4B4FF480225A601AE01B4B4FF49002CF
:1005F0001A60194B4FF400225A6011E0164B4FF469
:10060000A0021A60144B4FF480125A6008E0124B9B
:100610004FF482021A60104B4FF480325A6000BFD0
:100620000D4B1A680C4B5B681344A3F108020A4B8C
:100630009A60094B1A68084B5B6813449A1F064B73
:10064000DA60054B1A68044B5B6813441A1F024BAF
:100650001A6180BD5D0540004007002080B400AFF6
:10066000074B9B681A884AF6AA239A4201D10123B4
:1006700000E000231846BD465DF8047B704700BFCC
:100680004007002080B584B000AF0023FB73204BEF
:10069000BB6000237B60B86802211E4B984703466D
:1006A0007A6813437B60BB6803F50053BB6000238B
:1006B000FB730EE0B8680321164B984703467A682F
:1006C00013437B60BB6803F58043BB60FB7B013356
:1006D000FB73FB7B022BEDD90023FB730DE0B868A5
:1006E0000D4B984703467A6813437B60BB6803F55C
:1006F0008033BB60FB7B0133FB73FA7B074B5B688A
:100700001B0C9A42EBD37B6818461037BD4680BD60
:1007100000204000390B4000A10B400040070020A2
:1007200090B5ADF5077D00AF3B1D1860002387F83D
:1007300017320023C7F81032394BC7F80C32394B47
:100740001B68C7F80832374B1B68013B3448194611
:1007500000220023344CA0470346D7F8102213434D
:10076000C7F81032314B98470346D7F8102213438D
:10077000C7F8103238E0D7F8083207F108021146FE
:100780001A464FF40073084611461A46284B9847FC
:1007900007F10803D7F80C0219464FF40072002342
:1007A000244CA0470346D7F810221343C7F8103251
:1007B000D7F80C3203F50073C7F80C32D7F80832BB
:1007C00003F50073C7F8083297F817323F2B06D9A4
:1007D000194B1A4A1A60002387F8173204E097F879
:1007E0001732013387F817320E4B1A683B1D1B680E
:1007F0001A44D7F808329A42BDD20A4B1B68013B13
:1008000007481946002200230D4CA0470346D7F89D
:1008100010221343C7F8103207F50777BD4690BD85
:100820000020400040070020F50D400085064000F4
:10083000410F4000E90B400050140E40010000A59C
:100840004D0D400080B584B000AF1C4BDB681B88A9
:100850003B811A4B1B691B687B607A68174B5B688E
:100860009A4202D9154B5B687B60144B1B681A4691
:100870007B6810461946124B984703461A463B8937
:100880009A4213D17B6818460E4B98477B680E48F6
:1008900019460B4B984703461A463B899A4202D1A8
:1008A0000023FB7304E00123FB7301E00023FB73CF
:1008B000FB7B18461037BD4680BD00BF40070020B7
:1008C000050A4000210740000020400090B583B099
:1008D00000AF00237B60204B1A681F4B5B681344FA
:1008E000A3F580521C4B19681B4B5B680B44013B02
:1008F0001046194600220023184CA04703467A6888
:1009000013437B60144B1A68134B5B681344A3F5C5
:10091000805318460121124B984703467A681343C7
:100920007B600D4B1A680C4B5B681344A3F5805237
:10093000094B1968084B5B680B44013B104619468C
:1009400000220023074CA04703467A6813437B60CC
:100950000C37BD4690BD00BF40070020F50D40009C
:10096000390B40004D0D400080B489B000AFF860F5
:10097000B9607A604AF201033B830023FB610023E4
:10098000FB760023BB760023FB750023BB75002399
:10099000FB612EE0FA68FB6913441B78BB760023E9
:1009A000FB7620E07B681B88DBB203F00103FB755C
:1009B0007B681B885B089AB27B681A80BB7E03F059
:1009C0000103BB75BB7E5B08BB76FA7DBB7D9A429B
:1009D00006D07B681A883B8B53409AB27B681A809A
:1009E000FB7E0133FB76FB7E072BDBD9FB690133F2
:1009F000FB61FA69BB689A42CCD32437BD465DF8E7
:100A0000047B704780B584B000AF78603960002304
:100A1000FB8107F10E03786839681A46034B984743
:100A2000FB8918461037BD4680BD00BF69094000EC
:100A300080B487B000AFF860B9607A603B60114B5A
:100A40007B61BB68A3F580035B0A7B82BB689BB2BA
:100A5000C3F308033B82FB68002B02D0FB687A6972
:100A60001A607B68002B02D07B687A8A1A803B6808
:100A7000002B02D03B683A8A1A801C37BD465DF8CD
:100A8000047B7047000A0E4080B487B000AFF86066
:100A90007B600B467B8113463B817B8903F50053CA
:100AA0005A023B8913447B617B68002B02D07B6830
:100AB0007A691A601C37BD465DF8047B704700BF39
:100AC00080B487B000AFF860B9607A603B60FB68C3
:100AD00023F4FF5323F01F037B61BB6823F4FF5310
:100AE00023F01F0303F5FF531F333B617B68002B8B
:100AF00002D07B687A691A603B68002B02D03B68A1
:100B00003A691A601C37BD465DF8047B704700BF28
:100B100080B582B000AF78603960054879683A687E
:100B2000044B9847002318460837BD4680BD00BFD8
:100B3000000A0E408904400090B585B000AF78608F
:100B40000B46FB70FB78032B01D9112320E07B6857
:100B5000C3F30803002B01D0112319E007F10C02A5
:100B600007F10A03104679681A4600230A4CA04789
:100B7000FA687B891946FB780B43104607211A4611
:100B8000064B98470346002B01D0102300E00023BA
:100B900018461437BD4690BD310A4000110540008B
:100BA00090B585B000AF786007F10C0207F10A0339
:100BB000104679681A460023094CA047FA687B89D9
:100BC000104611211A46074B98470346002B01D0C7
:100BD000102300E0002318461437BD4690BD00BF27
:100BE000310A40001105400090B58FB000AFF860A9
:100BF000B9607A603B604E4BBB6207F1180107F1A8
:100C0000160207F114030846F9684A4CA047BB696D
:100C10001846494B98477862BB6918460621474BEE
:100C2000984777E0BB8AC3F500727B689A4238BF69
:100C300013463B62B969FA8A07F110030846114668
:100C400000223F4CA047BB8A5B429AB23B6A9BB2F0
:100C5000D31A9BB203F50073FB833B691A46BB8A28
:100C6000B86A11461A46374B9847BB8ABA6A13448A
:100C70001846B9683A6A334B9847BB8A1A463B6AAA
:100C80001344BA6AD118BB8A1A463B691A443B6AB4
:100C900013441A46FB8B084611461A46294B9847BF
:100CA0003B69FB6200233B630AE0FB6A1A1DFA62A0
:100CB0001F4A396B52F821201A603B6B01333B63AA
:100CC0003B6B7F2BF1D93B68002B08D0BA69FB8ABC
:100CD000104603211A461C4B9847786307E0BA690F
:100CE000FB8A104601211A46174B984778637B6BA5
:100CF000002B01D07B6B16E0BA683B6A1344BB60E3
:100D00007A683B6AD31A7B60FB8A01339BB2FB8211
:100D10000023BB827B68002B84D1BB691846796AAB
:100D2000064B9847002318463C37BD4690BD00BF90
:100D30003C050020310A4000F1044000BD044000A1
:100D4000890A4000410F40001105400090B58BB06A
:100D500000AFF860B9607A603B601023FB8407F154
:100D6000180207F11403F868B9681F4CA0477B68A4
:100D7000002B02D0BA697B681A603B68002B02D056
:100D80007A693B681A60BA6907F11C0107F112031E
:100D9000084611461A460023144CA0477A6907F109
:100DA0001003002011461A460023104CA04711E002
:100DB000FA697B8A104608211A460D4B984738621B
:100DC0003B6A002B01D03B6A09E07A8AFB8C134412
:100DD0009BB27B827A8A3B8A9A42E9D300231846E7
:100DE0002C37BD4690BD00BFC10A4000310A40000B
:100DF0001105400090B58BB000AFF860B9607A6023
:100E00003B601023FB8407F1180207F11403F86814
:100E1000B9681F4CA0477B68002B02D0BA697B6879
:100E20001A603B68002B02D07A693B681A60BA6985
:100E300007F11C0107F11203084611461A46002368
:100E4000144CA0477A6907F11003002011461A4696
:100E50000023104CA04711E0FA697B8A1046092153
:100E60001A460D4B984738623B6A002B01D03B6A0B
:100E700009E07A8AFB8C13449BB27B827A8A3B8A94
:100E80009A42E9D3002318462C37BD4690BD00BFD7
:100E9000C10A4000310A40001105400080B483B00F
:100EA00000AF0346FB80074B00221A8000BF054BB2
:100EB0001B889BB2FA889A42F9D20C37BD465DF87E
:100EC000047B70473C07002080B400AF064B1B6AD0
:100ED000064B1B889BB201339AB2044B1A80BD4665
:100EE0005DF8047B704700BF000001403C07002014
:100EF00070B50F4E0F4D761BB61007D0043D002481
:100F0000013455F8043F9847A642F9D10A4E0B4DDB
:100F1000761B00F02FF9B61008D0043D00240134F0
:100F200055F8043F9847A642F9D170BD70BD00BF87
:100F30008011400080114000881140008011400065
:100F4000844641EA000313F003036DD1403A41D3D4
:100F500051F8043B40F8043B51F8043B40F8043B93
:100F600051F8043B40F8043B51F8043B40F8043B83
:100F700051F8043B40F8043B51F8043B40F8043B73
:100F800051F8043B40F8043B51F8043B40F8043B63
:100F900051F8043B40F8043B51F8043B40F8043B53
:100FA00051F8043B40F8043B51F8043B40F8043B43
:100FB00051F8043B40F8043B51F8043B40F8043B33
:100FC00051F8043B40F8043B51F8043B40F8043B23
:100FD000403ABDD2303211D351F8043B40F8043BC3
:100FE00051F8043B40F8043B51F8043B40F8043B03
:100FF00051F8043B40F8043B103AEDD20C3205D3D3
:1010000051F8043B40F8043B043AF9D2043208D0CA
:10101000D2071CBF11F8013B00F8013B01D30B883C
:1010200003806046704700BF082A13D38B078DD01A
:1010300010F003038AD0C3F10403D21ADB071CBFEC
:1010400011F8013B00F8013B80D331F8023B20F856
:10105000023B7BE7043AD9D3013A11F8013B00F88F
:10106000013BF9D20B7803704B7843708B78837017
:1010700060467047024B13B1024800F005B8704754
:101080000000000095104000014600200246034683
:1010900000F018B838B5094D094C641BA41018BFEE
:1010A00005EB840505D0013C55F8043D9847002C1C
:1010B000F9D1BDE8384000F067B800BF9411400096
:1010C00098114000F0B5274C2668D6F8484185B005
:1010D0000746002C41D065681F2D1EDD224818B937
:1010E0004FF0FF3005B0F0BD4FF4C870039102928D
:1010F0000193AFF300800399029A019B04460028F4
:10110000EED0D6F848512560002060600546C6F84C
:101110004841C4F88801C4F88C013FB9AB1C0020D9
:101120000135656044F8231005B0F0BD04EB85007F
:101130004FF0010CC0F88820D4F888610CFA05F251
:101140001643022FC4F88861C0F80831E6D1D4F8FC
:101150008C311A43C4F88C21E0E706F5A674C6F872
:101160004841B8E770114000000000004300000053
:10117000F8000020F8B500BFF8BC08BC9E467047D8
:1011800075104000F1004000F8B500BFF8BC08BC85
:081190009E467047CD004000AF
:1011980080B489B000AFF860B9607A603B604FF402
:1011A8008003BB613B68002B01D102233CE0FB6854
:1011B8001B6843F48032FB681A60BB68DBB243F0FB
:1011C800B442FB685A60FB689B687B617B6903F0EB
:1011D8000103002BF7D10023FB610CE0FB699B00A6
:1011E8003A681344FA699200B9690A4412681A60A5
:1011F800FB690133FB61FA69BB6A9A42EED37B68EB
:10120800DBB243F0B442FB685A60FB689B687B61C1
:101218007B6903F00103002BF7D0FB681B6823F4FC
:101228008032FB681A60002318462437BD465DF8F3
:10123800047B704780B483B000AF786039607B6806
:101248003A681A600C37BD465DF8047B704700BFEA
:1012580080B485B000AF786039607B683A685A60BE
:101268007B689B68FB60FB6803F00103002BF7D0E9
:10127800FB6803F00E0318461437BD465DF8047B7F
:10128800704700BF00093D0000000000E403002093
:101298004C040020B40400200000000000000000FE
:1012A8000000000000000000000000000000000036
:1012B8000000000000000000000000006C11400069
:1012C8000000000000000000000000000000000016
:1012D8000000000000000000000000000000000006
:1012E80000000000000000000000000000000000F6
:1012F80000000000000000000000000000000000E6
:1013080000000000000000000000000000000000D5
:1013180000000000000000000000000000000000C5
:1013280000000000000000000000000000000000B5
:1013380001000000000000000E33CDAB34126DE652
:10134800ECDE05000B0000000000000000000000BB
:101358000000000000000000000000000000000085
:101368000000000000000000000000000000000075
:101378000000000000000000000000000000000065
:101388000000000000000000000000000000000055
:0400000500400000B7
:00000001FF
